:020000040800F2
:1000000000800120E9350008F1070008F307000827
:10001000F5070008F7070008F907000800000000CE
:10002000000000000000000000000000FB070008C6
:10003000FD07000800000000FF0700080108000895
:1000400039360008393600083936000839360008D4
:1000500039360008393600083936000839360008C4
:1000600039360008393600083936000839360008B4
:100070003936000809080008393600083936000802
:100080003936000839360008393600083936000894
:100090003936000839360008393600083936000884
:1000A0003936000839360008393600083936000874
:1000B0003936000839360008393600083936000864
:1000C0003936000839360008393600083936000854
:1000D0003936000839360008393600083936000844
:1000E0003936000839360008393600083936000834
:1000F0003936000839360008393600083936000824
:100100003936000839360008393600083936000813
:100110003936000839360008393600083936000803
:1001200039360008393600083936000839360008F3
:1001300039360008393600083936000839360008E3
:100140003936000839360008393600081908000821
:1001500039360008393600083936000839360008C3
:1001600039360008393600083936000839360008B3
:10017000393600083936000839360008000000001A
:08018000393600083936000889
:100188000348044B834202D0034B03B1184770471E
:10019800100000201000002000000000054806495B
:1001A8000B1AD90F01EBA301491002D0034B03B17D
:1001B80018477047100000201000002000000000C1
:1001C80010B5064C237843B9FFF7DAFF044B13B197
:1001D8000448AFF300800123237010BD10000020F5
:1001E800000000003C36000808B5044B1BB1044968
:1001F8000448AFF30080BDE80840CFE700000000E6
:10020800140000203C36000870B50D4E0D4D761BCD
:10021800B61006D0002455F8043B01349847A6428E
:10022800F9D1094E094D761B03F004FAB61006D031
:10023800002455F8043B01349847A642F9D170BD13
:1002480098360008983600089C360008983600084A
:10025800830730B548D0541E002A3FD0CAB203469F
:1002680001E0013C3AD303F8012B9D07F9D1032C97
:100278002DD9CDB245EA05250F2C45EA054536D9D5
:10028800A4F1100222F00F0C03F1200EE6444FEA0D
:10029800121C03F1100242E9045542E902551032DA
:1002A8007245F8D10CF1010214F00C0F03EB0212A5
:1002B80004F00F0C13D0ACF1040323F00303043350
:1002C800134442F8045B9342FBD10CF003042CB1B5
:1002D800CAB21C4403F8012B9C42FBD130BD6446D2
:1002E8001346002CF4D1F9E703461446BFE71A4633
:1002F800A446E0E72DE9F04F8DB000240794089458
:1003080009940A940B94A74BDA6C42F01002DA6451
:10031800DA6C02F010020192019ADA6C42F00402DF
:10032800DA64DA6C02F004020292029ADA6C42F0A1
:100338008002DA64DA6C02F080020392039ADA6CC3
:1003480042F00102DA64DA6C02F001020492049AC3
:10035800DA6C42F00202DA64DA6C02F00202059208
:10036800059ADA6C42F00802DA64DB6C03F00803E1
:100378000693069BDFF83082224640F20971404618
:1003880001F08EFFDFF8249222460C21484601F046
:1003980087FFDFF81CB222464FF40061584601F08F
:1003A8007FFFDFF810A222468021504601F078FF37
:1003B800F423079302250895099403270A970D2328
:1003C8000B9307A9404601F06BFE0823079301260B
:1003D800089609940A9507A9404601F061FE4FF472
:1003E800105307934FF490130893099407A958469C
:1003F80001F056FE40F2C73307930894099407A901
:10040800584601F04DFE38230793089509940A943D
:100418000B230B9307A9584601F042FE0F230793BD
:100428000894099507A94FF0904001F039FE102370
:1004380007934FF490130893099407A94FF090403D
:1004480001F02EFE4FF233230793089509940A947E
:100458000B230B9307A9484601F022FE04230793B8
:10046800089609960A9707A9484601F019FE4FF41D
:1004780080730793089609960A9707A9404601F0E2
:100488000FFE40F201630793089609940A9407A99E
:10049800404601F005FE4FF4784307930895099408
:1004A8000A970A230B9307A9404601F0F9FD4FF478
:1004B800406307931223089309940A9704230B9324
:1004C80007A9484601F0ECFD4FF47F4307930895D0
:1004D80009940A940B230B9307A9504601F0E0FDF9
:1004E8004FF403430793089509940A940B230B933D
:1004F80007A94FF0904001F0D3FD4FF40063079334
:10050800089609940A9407A9584601F0C9FD4FF0C6
:10051800050BCDF81CB04FF490130893099407A964
:10052800504601F0BDFD1A230793089509940A97D0
:10053800CDF82CB007A9504601F0B2FD602307930F
:10054800089509960A9707230B9307A9504601F0C7
:10055800A7FD80230793089609940A9707A9504690
:1005680001F09EFD08230793089609940A9407A9A9
:10057800484601F095FD4FF4807307934FF49013AC
:100588000893099407A9484601F08AFD07954FF496
:1005980090130893099407A9404601F081FD0DB016
:1005A800BDE8F08F00100240001000480004004829
:1005B80000080048000C004800B583B00A4B9A6C4C
:1005C80042F001029A649B6C03F001030193019BC2
:1005D800002211460D2001F0B9FF0D2001F0EEFFB9
:1005E80003B05DF804FB00BF0010024072B6FEE7DE
:1005F80008B50F480F4B03604FF482734360002324
:1006080083604FF4E062C260036143614FF400729B
:100618008261C3610362436283620722C262036329
:100628000823436301F0ECFF00B908BDFFF7DEFFC4
:10063800D80500200030014008B51148114B03606F
:10064800114B4360002383600122C2600361436150
:100658008361C361036200F046FB50B9002108487A
:1006680000F05EFC38B90021054800F087FC20B98D
:1006780008BDFFF7BBFFFFF7B9FFFFF7B7FF00BFE4
:100688007800002000540040EC9C901008B50B48FE
:100698004FF0A0430360062343600223C3608361D5
:1006A8000023C3610362436283620363C36202F08F
:1006B8007BF800B908BDFFF799FF00BFCC00002008
:1006C80000B597B04422002105A8FFF7C1FD00231B
:1006D800009301930293039304934FF4007001F085
:1006E800D3FE28BB1023059301220B9200230C9301
:1006F80060230D9302230F931092119228221292D5
:10070800072213921493159305A800F069FD88B980
:100718000F2300930323019300230293039304936D
:100728000421684601F06AF830B917B05DF804FB97
:10073800FFF75CFFFFF75AFFFFF758FFF0B583B0EC
:1007480000F070FCFFF7BCFFFFF7D4FDFFF734FFA4
:10075800FFF74EFFFFF770FFFFF798FF204A5A2177
:1007680011704FF47A73009301231E4800F01AFBAE
:10077800642000F07FFC1A4C00272770194D4FF4B5
:100788007A760096012322465A21284600F00AFB71
:10079800642000F06FFCFF2323700096012322469B
:1007A8005A21284600F0FEFA642000F063FC277006
:1007B8000096012322465A21284600F0F3FA6420C5
:1007C80000F058FC802323700096012322465A210A
:1007D800284600F0E7FA642000F04CFCCBE700BFA5
:1007E8002C00002078000020FEE7FEE7FEE7FEE789
:1007F800FEE770477047704708B500F029FC08BD50
:1008080008B5024801F0D6FD08BD00BF3000002041
:1008180008B5024802F0C6F808BD00BFCC000020A9
:1008280082B00A4B1A6E42F001021A661A6E02F082
:1008380001020092009A9A6D42F080529A659B6D6F
:1008480003F080530193019B02B0704700100240EF
:1008580010B5AAB004460021259126912791289128
:100868002991882203A8FFF7F3FC2268174B9A42C4
:1008780001D02AB010BD4023039303A801F0E6F984
:1008880008BB134CE36C43F00203E364E36C03F02E
:1008980002030193019BC02325931223269300236F
:1008A8002793032328930423299325A9094801F0B2
:1008B800F7FBA36D43F40013A365A36D03F40013C2
:1008C8000293029BD5E7FFF791FEDAE70054004058
:1008D800001002400004004810B588B000230393BC
:1008E80004930593069307930268204B9A4201D01C
:1008F80008B010BD044603F560431A6E42F48052F6
:100908001A661A6E02F480520192019ADA6C42F069
:100918000102DA64DB6C03F001030293029BE0231B
:10092800039302230493032306930523079303A940
:100938004FF0904001F0B4FB0D480E4B03600123CB
:100948004360102383600023C360802202614361F7
:100958008361C361036201F0A9FC18B9044B6365A4
:100968009C62C5E7FFF742FEF8E700BF0030014090
:10097800300000203000024010B5AAB00446002123
:1009880025912691279128912991882203A8FFF77C
:100998005FFC2368B3F1A04F01D02AB010BD4FF41B
:1009A800005303934FF080631E9301230493059330
:1009B80018230693072307930223089309934FF4F8
:1009C80080130A9303A801F041F900283ED1224C74
:1009D800E36C43F00103E364E36C03F00103009369
:1009E800009B4FF4E053259302232693002327937B
:1009F800032328930A23299325A94FF0904001F057
:100A08004FFBE36C43F48053E364E36C03F48053DB
:100A18000193019BA36D13F0805F1AD1A36D43F07E
:100A28008053A365A36D03F080530293029B01F0EA
:100A380073FDA36D23F08053A36500221146432064
:100A480001F084FD432001F0B9FDA6E7FFF7CEFDD4
:100A5800BDE701F061FDF0E70010024003689A6904
:100A680012F0020F01D000229A6203689A6912F00C
:100A7800010F03D19A6942F001029A61704710B4DC
:100A8800019CC1F3090141EA02411943214321F0C4
:100A9800004102685368640D04F4806444F07F7474
:100AA80044F4583444F47F7444F0030423EA0404FF
:100AB800214351605DF8044B70472DE9F04104462D
:100AC80003689F6917F010074CD00E469046102215
:100AD800DA6100252368986910F0200F3BD1002DBA
:100AE80039D1B6F1FF3FF5D000F0BEFAA0EB08000F
:100AF800B04201D8002EEDD121684B6803F4804341
:100B080094F84220D2B2886910F4004F02D00BB991
:100B1800202A18D123689B6913F0200FDAD100F03E
:100B2800A3FAA0EB08001928F4D9636C43F020035A
:100B38006364202384F84130002384F8423084F829
:100B480040300125E6E74B6843F480434B6000F0F2
:100B58008BFA8046DEE7002D40D12022DA61042797
:100B6800012500E000252268936913F4807F05D0F1
:100B780047F001074FF48071D161012513F4806FAC
:100B880006D047F0080722684FF48061D16101253B
:100B980013F4007F24D047F0020723684FF4007253
:100BA800DA6101252046FFF759FF2268536823F0D0
:100BB800FF7323F48B3323F4FF7323F00103536093
:100BC800636C1F436764202384F84130002384F852
:100BD800423084F840302846BDE8F0810427C2E757
:100BE800002DF8D0DEE770B504460D46164623689A
:100BF8009B6913F0020F1DD1324629462046FFF7A4
:100C08005CFFC8B9B5F1FF3FF1D000F02DFA801BA9
:100C1800A84201D8002DEAD1636C43F02003636435
:100C2800202384F84130002384F8423084F840308F
:100C3800012000E0002070BD0120FCE72DE9F04113
:100C48000646884617461D463468A46938EA0403F0
:100C58000CBF4FF0010C4FF0000CBC4518D1B5F19A
:100C6800FF3FF1D000F000FA069BC01AA84201D855
:100C7800002DE9D1736C43F020037364202386F8B8
:100C88004130002386F8423086F84030012000E0E9
:100C98000020BDE8F08170B505460C4616462B6865
:100CA8009B6913F0200F1AD1324621462846FFF7D8
:100CB80004FFB0B900F0D8F9801BA04201D8002C7D
:100CC800EDD16B6C43F020036B64202385F8413031
:100CD800002385F8423085F84030012070BD00209F
:100CE800FCE70120FAE7002859D010B5044690F82F
:100CF8004130002B43D0242384F841302268136804
:100D080023F0010313606368226823F070631361A2
:100D18002268936823F400439360E368012B33D07F
:100D2800A368226843F404439360E368022B31D03C
:100D38002268536843F0007343F400435360226809
:100D4800D36823F40043D360236962691343A1691C
:100D5800226843EA0123D360E369216A22680B43CE
:100D680013602268136843F0010313600020606475
:100D7800202384F84130206384F8420010BD80F8B5
:100D88004030FFF765FDB6E7A368226843F40043E7
:100D98009360CAE723684FF400625A60C8E70120ED
:100DA800704700002DE9F04782B00F460A9E90F880
:100DB8004110C9B2202940F0A380044690469946C4
:100DC80090F84030012B00F09F804FF0010A80F826
:100DD80040A000F049F905460090192352464FF407
:100DE80000412046FFF72AFF002840F08F8021238A
:100DF80084F84130102384F8423000236364C4F837
:100E08002480A4F82A906363638D9BB2FF2B0AD9D0
:100E1800FF222285414B00934FF0807339462046CC
:100E2800FFF72DFE18E0628D92B222853B4B0093AE
:100E38004FF00073D2B239462046FFF720FE0BE090
:100E4800628D92B22285002300934FF00073D2B2D4
:100E580039462046FFF713FE638D9BB2002B33D033
:100E68002A4631462046FFF7BEFE002850D1626A66
:100E7800236812789A62636A01336362638D9BB256
:100E8800013B9BB26385238D013B9BB22385628D19
:100E980092B2002AE0D0002BDED100953346002222
:100EA80080212046FFF7CAFEA0BB638D9BB2FF2BB3
:100EB800C6D9FF222285002300934FF0807339465C
:100EC8002046FFF7DCFDC7E72A4631462046FFF7F4
:100ED800E2FE08BB23682022DA6121684B6823F010
:100EE800FF7323F48B3323F4FF7323F001034B6068
:100EF80084F84120002384F8423084F8403000E030
:100F0800022002B0BDE8F0870220FAE70120F8E7E6
:100F18000120F6E70120F4E70120F2E70020008035
:100F280090F84130DBB2202B24D190F84030012BCF
:100F380022D0012380F84030242380F84130026811
:100F4800136823F0010313600268136823F48053C5
:100F5800136002681368194311600268136843F04C
:100F680001031360202380F84130002380F84030CB
:100F780018467047022070470220704790F84130A9
:100F8800DBB2202B22D190F84030012B20D0012356
:100F980080F84030242380F841300268136823F039
:100FA800010313600268136823F4706343EA0121A4
:100FB80011600268136843F001031360202380F86E
:100FC8004130002380F840301846704702207047AF
:100FD80002207047104B1B780BB90120704710B5E1
:100FE80004464FF47A70B0FBF3F30C4A1068B0FB78
:100FF800F3F001F0F1FA68B90F2C01D901200AE0E9
:10100800002221464FF0FF3001F0A0FA044B1C608B
:10101800002000E0012010BD000000200800002092
:101028000400002010B5094A136843F48073136064
:10103800032001F079FA0020FFF7CCFF10B101245A
:10104800204610BD0446FFF7EBFBF9E700200240FD
:10105800034B1B78034A11680B441360704700BFA9
:10106800000000203C060020014B1868704700BFB4
:101078003C06002038B50446FFF7F6FF0546B4F1F4
:10108800FF3F02D0044B1B781C44FFF7EDFF401BC9
:10109800A042FAD338BD00BF0000002030B583B0AD
:1010A8000446204B9B6D13F0805F0BD001F0E4F9F0
:1010B800B0F5007F17D0802C1FD82DD0702C2DD0E4
:1010C80000211BE0174DAB6D43F08053AB65AB6D52
:1010D80003F080530193019B01F0CEF9AB6D23F02F
:1010E8008053AB65E4E7802C03D9A02C03D90221F7
:1010F80004E0002102E0012100E003210A4A13680C
:1011080023F007030B431360136803F007038B42B4
:1011180006D1002003B030BD0221EFE70121EDE741
:101128000120F7E70010024000200240284A936897
:10113800D26802F0030213F00C030AD00C2B06D07D
:10114800042B1FD0082B20D00020024610E0012AD3
:10115800F6D11F4A126812F0080F0CD11C4AD2F8B7
:101168009420C2F303221B4951F8222043B10020E6
:101178000C2B0DD07047164A1268C2F30312F2E71F
:101188001046F5E714480022F2E714480022EFE77A
:101198000F4BDB6803F00303022B16D0032B00D19F
:1011A8000E4A0B49C868C0F30210431CC868C0F354
:1011B800062002FB00F0B0FBF3F0CB68C3F34163F9
:1011C80001335B00B0FBF3F0D4E7034AE9E700BF63
:1011D80000100240683600080024F40000127A006B
:1011E800002800F0F182F0B583B00446964B9D6864
:1011F80005F00C05DE6806F00306036813F0100F0F
:101208005AD0E5B10C2D18D0A369002B00F0BB8093
:101218008D4A136843F001031360FFF725FF074663
:10122800894B1B6813F0020F40F09A80FFF71CFFF0
:10123800C01B0228F4D90320D1E2012EE4D1824B4D
:101248001B6813F0020F03D0A369002B00F0BE82C5
:10125800206A7D4B1B6813F0080F5BD07A4B1B6824
:1012680003F0F00398425CD8774B1A6842F0080202
:101278001A601A6822F0F002216A0A431A605A6852
:1012880022F47F42E16942EA01225A60002D60D0CF
:10129800FFF74CFF6C4B9B68C3F303136B4AD35C9B
:1012A80003F01F03D8406A4B18606A4B1868FFF7B1
:1012B80091FE002840F09382236813F0010F00F09C
:1012C8008180082D75D00C2D71D06368B3F5803FEF
:1012D80000F09780B3F5A02F00F099805A4B1A6858
:1012E80022F480321A601A6822F480221A60636835
:1012F800002B00F09980FFF7B7FE0746524B1B689A
:1013080013F4003F5ED1FFF7AFFEC01B6428F5D988
:10131800032064E24C4BD3F894301B0903F0F0032C
:10132800A0E7FFF7BBFE002840F05282464B1A6840
:1013380042F008021A601A6822F0F002216A0A4391
:101348001A605A6822F47F42E16942EA01225A602F
:101358009EE7206AFFF7A2FE002899D001203EE20E
:10136800394B1A6842F008021A601A6822F0F00233
:10137800216A0A431A605A6822F47F42E16942EA04
:1013880001225A6098E7304A136823F0010313607A
:10139800FFF76AFE07462C4B1B6813F0020F8BD031
:1013A800FFF762FEC01B0228F5D9032017E2032EBF
:1013B8008BD1254B1B6813F4003F03D06368002BC7
:1013C80000F00882236813F0020F58D0042D45D08E
:1013D8000C2D41D0E368002B77D01B4A136843F4E7
:1013E80080731360FFF740FE0646174B1B6813F423
:1013F800806F61D1FFF738FE801B0228F5D90320E2
:10140800EDE1114A136843F4803313606FE703F189
:101418008043A3F53C331A6842F480221A601A68A4
:1014280042F480321A6062E7FFF71EFE0746064B59
:101438001B6813F4003FC5D0FFF716FEC01B6428D5
:10144800F5D90320CBE100BF001002405836000850
:101458000800002004000020022EBBD1A34B1B680B
:1014680013F4806F03D0E368002B00F0B5819F4A26
:10147800536823F0F853216943EA016353602368F2
:1014880013F0080F4CD063699BB3984AD2F8943094
:1014980043F00103C2F89430FFF7E6FD0646934B8C
:1014A800D3F8943013F0020F3AD1FFF7DDFD801B1B
:1014B8000228F4D9032092E18C4A536823F0F853A8
:1014C800216943EA01635360D9E7884A136823F422
:1014D80080731360FFF7C8FD0646844B1B6813F43E
:1014E800806FCCD0FFF7C0FD801B0228F5D9032000
:1014F80075E17E4AD2F8943023F00103C2F89430A3
:10150800FFF7B2FD0646794BD3F8943013F0020F7B
:1015180006D0FFF7A9FD801B0228F4D903205EE15D
:10152800236813F0040F7AD0704B9B6D13F0805F23
:1015380036D16E4B9A6D42F080529A659B6D03F0DE
:1015480080530193019B0126694B1B6813F4807F2C
:1015580028D0A368012B39D0052B3FD0634BD3F893
:10156800902022F00102C3F89020D3F8902022F0B6
:101578000402C3F89020A368002B3DD0FFF774FD48
:1015880007465A4BD3F8903013F0020F46D1FFF7B5
:101598006BFDC01B41F288339842F2D903201EE14B
:1015A8000026D1E7524A136843F480731360FFF7AB
:1015B8005BFD07464E4B1B6813F4807FC9D1FFF7CC
:1015C80053FDC01B0228F5D9032008E1474AD2F889
:1015D800903043F00103C2F89030CCE7434BD3F886
:1015E800902042F00402C3F89020D3F8902042F0F3
:1015F8000102C3F89020BEE7FFF736FD07463B4BD4
:10160800D3F8903013F0020F08D0FFF72DFDC01B60
:1016180041F288339842F2D90320E0E0EEB9A36A98
:10162800002B00F0DB80022B1DD00C2D00F0DD809C
:101638002E4A136823F080731360FFF715FD0446E4
:101648002A4B1B6813F0007F00F0B780FFF70CFDF2
:10165800001B0228F4D90320C1E0244A936D23F02B
:1016680080539365DBE7214BDB6803F00301E26AF3
:1016780091420FD00C2D00F0B4801C4B1B6813F066
:10168800806F40F0B080194B1B6813F0805F31D039
:101698000120A4E003F07002216B0139B2EB011FB5
:1016A800E8D103F4FE42616BB2EB012FE2D103F4FF
:1016B8000031A26B073A18BF01229142DAD103F434
:1016C800C001E26B5208013AB1EB425FD2D103F09C
:1016D800C063226C5208013AB3EB426FCAD1034B84
:1016E8001B6813F0007F4ED0002078E00010024005
:1016F800007000403E4A136823F080731360FFF7C0
:10170800B3FC05463A4B1B6813F0007F06D0FFF781
:10171800ABFC401B0228F5D9032060E0344AD368AB
:1017280034491940E36A206B013843EA0013606BBF
:1017380043EA0023E06B4008013843EA4053206C39
:101748004008013843EA4063A06B000943EA40437C
:101758000B43D360136843F080731360D36843F07E
:101768008073D360FFF780FC0446214B1B6813F09D
:10177800007F06D1FFF778FC001B0228F5D903206B
:101788002DE000202BE01A4B1A6842F080721A6094
:10179800DA6842F08072DA60FFF766FC0446144BA0
:1017A8001B6813F0007F06D1FFF75EFC031B022BBA
:1017B800F5D9032013E0002011E00D4AD1680E4B43
:1017C8000B40D36000200AE001207047012006E0AA
:1017D800012004E0012002E0012000E0002003B025
:1017E800F0BD0120FBE70120F9E70120F7E700BF82
:1017F800001002408C809DF9FCFFEEFE002800F0EE
:10180800AF8070B50D460446594B1B6803F00703BB
:101818008B420BD2564A136823F007030B4313601D
:10182800136803F007038B4240F09C80236813F091
:10183800020F0CD0A2684F4B9B6803F0F0039A424A
:1018480005D94C498B6823F0F0031A438A60236852
:1018580013F0010F39D06368032B09D0022B26D06F
:1018680063BB444A126812F0020F06D1012076E0E9
:10187800404A126812F0007F76D03E498A6822F00A
:10188800030213438B60FFF7EFFB0646394B9B6857
:1018980003F00C036268B3EB820F16D0FFF7E4FB8A
:1018A800801B41F288339842F0D9032057E0314A2F
:1018B800126812F4003FE0D1012050E02D4A12686E
:1018C80012F4806FD9D1012049E0236813F0020F88
:1018D8000CD0A268274B9B6803F0F0039A4205D20C
:1018E80024498B6823F0F0031A438A60204B1B6855
:1018F80003F00703AB420AD91D4A136823F0070314
:101908002B431360136803F00703AB422ED12368FF
:1019180013F0040F06D0174A936823F4E063E168D4
:101928000B439360236813F0080F07D0114A93689C
:1019380023F46053216943EAC1039360FFF7F6FB80
:101948000C4B9B68C3F303130B4AD35C03F01F03D0
:10195800D8400A4B18600A4B1868FFF73BFB70BD6C
:10196800012070470120FAE70120F8E70120F6E797
:1019780000200240001002405836000808000020ED
:1019880004000020014B1868704700BF08000020C1
:10199800F8B504460F46594BDB6813F0030F18D00F
:1019A800564BDB6803F003030268934202D001251B
:1019B8002846F8BD002A00F09E80504BDB68C3F330
:1019C800021301334268934201D00125F0E7002554
:1019D80009E00368022B57D0032B5CD0012B42D0BF
:1019E8000125002DE4D1454A136823F08063136074
:1019F800FFF73AFB0646414B1B6813F0006F05D012
:101A0800FFF732FB831B022BF5D90325002DCFD11D
:101A1800002F4ED139490B6923F41F3323F4407347
:101A2800A068E2681209520442EA002213430B61DB
:101A3800324A136843F080631360FFF715FB0646CC
:101A48002E4B1B6813F0006F05D1FFF70DFB831BAE
:101A5800022BF5D90325002DAAD1284A1369A169BB
:101A68000B431361A4E7254A126812F0020F1ED037
:101A78002248C26822F073026168013943EA0113FF
:101A88001343C3600025ACE71C4A126812F4806F48
:101A9800EED10125A5E7194A126812F4003FE7D1F3
:101AA800164A126812F4802FE2D1012599E7012520
:101AB80097E7012F0FD01148026922F0C06222F483
:101AC800FE42A16863695B08013B5B0643EA0123A8
:101AD80013430361ACE70948026922F4C00222F407
:101AE800FE42A16823695B08013B5B0543EA0123C9
:101AF800134303619CE701255AE700BF0010024029
:101B0800F8B504460F46504BDB6813F0030F18D0A6
:101B18004D4BDB6803F003030268934202D00125B2
:101B28002846F8BD002A00F08C80474BDB68C3F3D9
:101B3800021301334268934201D00125F0E70025E2
:101B480009E00368022B57D0032B5CD0012B42D04D
:101B58000125002DE4D13C4A136823F0805313601B
:101B6800FFF782FA0646384B1B6813F0005F05D072
:101B7800FFF77AFA831B022BF5D90325002DCFD165
:101B8800002F4ED130494B6923F41F3323F440739F
:101B9800A068E2681209520442EA002213434B612A
:101BA800294A136843F080531360FFF75DFA06462D
:101BB800254B1B6813F0005F05D1FFF755FA831B0F
:101BC800022BF5D90325002DAAD11F4A5369616953
:101BD8000B435361A4E71C4A126812F0020F1ED08F
:101BE8001948C26822F073026168013943EA011397
:101BF8001343C3600025ACE7134A126812F4806FE0
:101C0800EED10125A5E7104A126812F4003FE7D18A
:101C18000D4A126812F4802FE2D1012599E70125B7
:101C280097E70948426922F0C06222F4FE42A1689F
:101C380023695B08013B5B0643EA012313434361C5
:101C4800AEE701256CE700BF001002402DE9F04126
:101C580082B00446036813F4006F33D0436EB3F5C3
:101C6800000F1FD00CD823B3B3F5800F05D1002186
:101C78002030FFF745FF064620E001273E4623E0D7
:101C8800B3F5400F0BD10026604AD2F8883023F410
:101C98004003616E0B43C2F88830002714E0012727
:101CA8003E4611E0594AD36843F48033D360002696
:101CB800EAE700210430FFF76BFE0646002EE3D06A
:101CC800374601E000273E46236813F4805F30D092
:101CD800A36EB3F1007F1FD00DD81BB3B3F1807F83
:101CE80006D1002104F12000FFF70AFF064605E0AF
:101CF80001273E461DE0B3F1407F0AD1C6B9434AE9
:101D0800D2F8883023F04073A16E0B43C2F88830B4
:101D18000FE001273E460CE03C4AD36843F4803389
:101D2800D360EBE70021201DFFF732FE0646E5E70A
:101D38003746236813F4003F71D0344B9B6D13F082
:101D4800805F4ED1314B9A6D42F080529A659B6DFF
:101D580003F080530193019B4FF001082C4A13684C
:101D680043F480731360FFF77FF90546284B1B681F
:101D780013F4807F05D1FFF777F9401B0228F5D9C6
:101D88000326002E46D1214BD3F8903013F440732C
:101D980016D0D4F884209A4212D01C4AD2F8903037
:101DA80023F44073D2F8901041F48031C2F89010B7
:101DB800D2F8901021F48031C2F89010C2F8903017
:101DC80013F0010F10D1002E40F027810F4AD2F8EE
:101DD800903023F44073D4F884100B43C2F8903049
:101DE80019E04FF00008B9E7FFF73EF90546074B41
:101DF800D3F8903013F0020FE5D1FFF735F9401B07
:101E080041F288339842F2D90326DCE700100240F9
:101E1800007000403746B8F1000F40F00081236899
:101E280013F0010F08D09D4AD2F8883023F003033D
:101E3800A16B0B43C2F88830236813F0020F08D057
:101E4800964AD2F8883023F00C03E16B0B43C2F8B2
:101E58008830236813F0040F08D0904AD2F88830ED
:101E680023F03003216C0B43C2F88830236813F049
:101E7800080F08D0894AD2F8883023F0C003616C73
:101E88000B43C2F88830236813F0100F08D0834A38
:101E9800D2F8883023F44073A16C0B43C2F8883021
:101EA800236813F0200F08D07C4AD2F8883023F436
:101EB8004063E16C0B43C2F88830236813F4007F59
:101EC80008D0764AD2F8883023F44023E16D0B43DA
:101ED800C2F88830236813F4806F08D06F4AD2F8AC
:101EE800883023F44013216E0B43C2F888302368EE
:101EF80013F0400F08D0694AD2F8883023F44053D1
:101F0800216D0B43C2F88830236813F0800F08D086
:101F1800624AD2F8883023F44043616D0B43C2F81B
:101F28008830236813F4807F08D05C4AD2F8883060
:101F380023F44033A16D0B43C2F88830236813F4AF
:101F4800005F0FD0554AD2F8883023F04063E16E25
:101F58000B43C2F88830E36EB3F1006F65D0B3F17C
:101F6800806F67D0236813F4002F0FD04B4AD2F844
:101F7800883023F04063216F0B43C2F88830236F09
:101F8800B3F1006F5ED0B3F1806F60D0236813F4B3
:101F9800802F0FD0414AD2F8883023F04063616F18
:101FA8000B43C2F88830636FB3F1006F57D0B3F1B9
:101FB800806F59D0236813F4804F0FD0374AD2F876
:101FC800883023F04053A16F0B43C2F88830A36FC9
:101FD800B3F1805F50D0B3F1005F55D0236813F49C
:101FE800004F08D02D4AD2F8883023F08043E16FA3
:101FF8000B43C2F88830236813F4803F09D0274A7E
:10200800D2F8883023F00043D4F880100B43C2F88C
:102018008830384602B0BDE8F0813746FBE61F4AF3
:10202800936D23F080539365F9E6D36843F48013E6
:10203800D36097E70121201DFFF7AAFC002891D063
:1020480007468FE7D36843F48013D3609EE70121E6
:10205800201DFFF79DFC002898D0074696E7D36817
:1020680043F48013D360A5E70121201DFFF790FCFE
:1020780000289FD007469DE70221201DFFF788FC16
:102088000028ABD00746A9E7022104F12000FFF79A
:1020980037FD0028A2D00746A0E700BF0010024085
:1020A800F0B583B000236BE085685E000324B4407C
:1020B80025EA0405CC68B4402C438460456825EAC9
:1020C8000C054C68C4F300149C402C43446069E040
:1020D800C56A25EA0C0CC4F3C0049C4044EA0C040D
:1020E800C46265E0DD08083550F8256003F0070490
:1020F8004FEA840C0F2404FA0CF426EA040E0C6947
:1021080004FA0CF444EA0E0440F8254067E006247B
:1021180000E0002404FA0EF42C430CF1020C5C4D90
:1021280045F82C405B4CA568D44325EA02064F6865
:1021380017F4801F01D042EA0506564DAE60ED68DF
:1021480004EA05064F6817F4001F01D042EA0506A5
:10215800504DEE606D6804EA05064F6817F4003FBD
:1021680001D042EA05064B4D6E602D682C404E6842
:1021780016F4803F01D042EA0504464A1460013350
:102188000A6832FA03F400F081804FF0010C0CFA6F
:1021980003FC1CEA0202F2D04C6804F00304013C80
:1021A800012C81D94C6804F0030EBEF1030F8FD0C7
:1021B8004C6804F00304032C0CD0C4685D004FF095
:1021C800030C0CFA05FC24EA0C0C8C68AC4044EABD
:1021D8000C04C4604C6804F00304022C82D0046828
:1021E8004FEA430E4FF0030C0CFA0EFC24EA0C0CD9
:1021F8004C6804F0030404FA0EF444EA0C04046086
:102208004C6814F4403FBAD0234C256E45F00105C4
:102218002566246E04F001040194019C4FEA930C96
:102228000CF102051A4C54F8255003F003044FEA48
:10223800840E0F2404FA0EF425EA0405B0F1904F39
:102248003FF467AF154CA04216D004F58064A04255
:1022580014D004F58064A04212D004F58064A04232
:1022680010D004F58064A0420ED004F58064A0422A
:102278003FF44DAF07244DE701244BE7022449E71B
:10228800032447E7042445E7052443E703B0F0BDEA
:102298000000014000040140001002400004004812
:1022A8000AB181617047816270470000002873D0CD
:1022B80010B403460068394A90424AD8384A024462
:1022C8003849A1FB0212120992005A64364A1A646C
:1022D800022283F82520016821F4FF4121F07001D2
:1022E8009A68DC6822431C6922435C6922439C6922
:1022F8002243DC6922431C6A22430A4302609A682B
:10230800B2F5804F1BD0196C274A91422CD0264A2F
:10231800D2F8A814586C00F01C0C0F2000FA0CF02E
:1023280021EA0001C2F8A814D2F8A81458685C6C15
:1023380004F01C0C00FA0CF00143C2F8A8140020A9
:10234800D863012283F8252083F824005DF8044B24
:102358007047164A02441349A1FB0212120992005F
:102368005A64134A1A64B3E7D2F8A810586C00F0FC
:102378001C0C0F2000FA0CF021EA0001C2F8A8108A
:10238800D2F8A81058685C6C04F01C0C00FA0CF029
:102398000143C2F8A810D2E70120704707040240A1
:1023A800F8FFFDBFCDCCCCCC00000240F8FBFDBF50
:1023B8000004024038B5036C196804682568436C4A
:1023C80003F01C0304229A400A4215D015F0040FAA
:1023D80012D0236813F0200F03D1236823F00403DD
:1023E8002360436C03F01C02016C042393404B6090
:1023F800036B03B1984738BD02229A400A421CD0A9
:1024080015F0020F19D0236813F0200F06D12368A6
:1024180023F00A032360012380F82530436C03F07E
:102428001C02016C022393404B60002380F8243087
:10243800C36A002BDFD09847DDE7082202FA03F3CE
:102448000B42D8D015F0080FD5D0236823F00E031F
:102458002360436C03F01C03016C012202FA03F3AE
:102468004B60C26380F82520002380F82430436B3A
:10247800002BC0D09847BEE7024B186800F4C06034
:10248800704700BF00700040B0F5007F0FD01F4BB1
:102498001B6803F4C063B3F5806F34D01B4A13681C
:1024A80023F4C06343F48063136000207047174B24
:1024B8001B6803F4C063B3F5007F20D0134A136888
:1024C80023F4C06343F400731360114B1B6832227A
:1024D80002FB03F30F4AA2FB03239B0C013300E02A
:1024E800013B0A4A526912F4806F01D0002BF7D1E0
:1024F800064B5B6913F4806F03D1002070470020FE
:102508007047032070470020704700BF00700040EC
:102518000800002083DE1B43024A536843F48063AB
:102528005360704700700040074AD36823F4E063A3
:102538001B041B0C000200F4E060034343F0BF637C
:1025480043F40033D360704700ED00E000B5194B49
:10255800DB68C3F30223C3F1070CBCF1040F28BFE7
:102568004FF0040C03F1040EBEF1060F18D9033B1B
:102578004FF0FF3E0EFA0CFC21EA0C0199400EFACE
:1025880003F322EA0303194300280BDB0901C9B24C
:1025980000F1604000F5614080F800135DF804FB2D
:1025A8000023E5E700F00F000901C9B2024B1954F6
:1025B800F4E700BF00ED00E014ED00E0002807DBC1
:1025C80000F01F02400901239340024A42F82030DC
:1025D800704700BF00E100E00138B0F1807F0BD206
:1025E8004FF0E0235861054AF02182F823100020BB
:1025F800986107221A6170470120704700ED00E0DA
:1026080000286AD010B50446436A33B94368B3F565
:10261800827F05D00023C36102E000230361436188
:102628000023A36294F85D30002B4DD0022384F878
:102638005D302268136823F040031360E368B3F544
:10264800E06F47D90022B3F5706F04D0B3F5E06F9F
:1026580001D00023A362636803F48273A16801F4C4
:1026680004410B43216901F002010B43616901F048
:1026780001010B43A16901F400710B43E16901F009
:1026880038010B43216A01F080010B43A16A01F470
:10269800005120680B430360638B03F00403616AF5
:1026A80001F010010B43616B01F008010B43E16875
:1026B80001F470610B43216813434B6000202066CE
:1026C800012384F85D3010BD84F85C302046FEF7A5
:1026D80003F9ABE74FF48052B5E7012070472DE9C5
:1026E800F843076801EBC10300EB8303DA6D5B6D08
:1026F8009A4254D880460C469B1A01EBC10200EB63
:102708008202926C9A4200D31A4602F103094FEAF8
:10271800990913E006F103094FEA990904EBC40586
:1027280008EB8505B3B2E2B2E96C384600F069FE01
:10273800EB6C3344EB64EB6D3344EB6507EB44130C
:1027480003F510639B699BB24B4512D304EBC4029B
:1027580008EB8202D16D536D99420AD24BB15B1AD4
:1027680004EBC40208EB8202966C9E42D2D31E464A
:10277800D0E704EBC40008EB8008D8F85420D8F858
:102788005C309A420ED804F00F040123A340D7F816
:10279800344824EA0304C7F83448002000E0012044
:1027A800BDE8F8830020FBE770B58AB0002800F088
:1027B80097800546046890F8BD343BB3032385F839
:1027C800BD34E36B13F4807F01D100232B612868AB
:1027D80000F09CFC2C4654F8106BEC460FCCACE88F
:1027E8000F000FCCACE80F0094E803008CE803005E
:1027F8002B1D0ECB304600F0FBFB044658B10223DC
:1028080085F8BD34012420460AB070BD80F8BC3478
:10281800FEF7B2F8D2E70021286800F074FE2346DC
:1028280016E003EBC30205EB8202012182F83D109A
:1028380082F83C30A2F84430002182F840109164BC
:10284800D16403EBC30205EB820251650133DBB2AD
:1028580069688B42E5D316E004EBC40305EB8303F8
:10286800002283F87D2283F87C4283F88022C3F813
:102878008822C3F88C2204EBC40305EB8303C3F856
:1028880094220134E4B2A142E6D82C4654F8106BE5
:10289800EC460FCCACE80F000FCCACE80F0094E886
:1028A80003008CE803002B1D0ECB304600F08AFC99
:1028B800044660B9002385F83830012385F8BD3413
:1028C8006B6A012B08D0286800F0DAFD9BE7022329
:1028D80085F8BD34012496E7284600F04CFBF2E762
:1028E800012490E77047000038B503681C6C03EBBF
:1028F800411303F530639D680B4A94420FD115F4D8
:10290800004F03D04FF400429A600BE015F0200FFF
:1029180001D020229A60C9B2FFF7E4FF02E0C9B2F1
:10292800FFF7E0FF002038BD0A31544F7047704769
:1029380010B503681C6C03EB4113D3F8081B074A56
:10294800944207D903F5306311F4004F02D04FF4D5
:1029580000429A60FFF7EBFF002010BD0A30544F89
:1029680070477047704770477047704770477047A7
:1029780008B511F0800F0CD101F00F0101EBC10176
:10298800890001F51E7101440431006800F0DAFC89
:1029980008BD01F00F0101EBC10189003831014484
:1029A8000431F2E72DE9F04F83B004460568284664
:1029B80000F0A5FD10B103B0BDE8F08F0646206811
:1029C80000F06CFD0028F6D005F50067BB68C3F37E
:1029D8000D23C4F8FC34206800F060FD10F0020FED
:1029E80004D02268536903F002035361206800F0A1
:1029F80055FD10F0100F14D02268936923F01003CE
:102A08009361D5F8208008F00F09C8F34343022BDF
:102A180069D0062B00F08D802268936943F010037B
:102A28009361206800F03AFD10F4002F40F0938085
:102A3800206800F033FD10F4802F40F0FC802068FF
:102A480000F02CFD0028C0F26581206800F026FD0A
:102A580010F4006F09D0BB6813F0010F40F07281C9
:102A68002268536903F400635361206800F016FD7F
:102A780010F0006F15D02268536903F000635361AA
:102A880094F8F434002B40F06181012184F8F414A7
:102A980023685B6DC3F38303C4F8F834204600F061
:102AA8007DFA206800F0FAFC10F4805F40F0528153
:102AB800206800F0F3FC10F4005F40F09E8120686D
:102AC80000F0ECFC10F0080F40F0AF81206800F037
:102AD800E5FC10F0800F00F0C281AB6923F08003A1
:102AE800AB610126ABE147F6F07318EA030F93D008
:102AF8004FEA181B4FEAC903019309EBC90A04EB13
:102B08008A0AC8F30A12DAF88C12284600F08EFCFA
:102B1800CBF30A0BDAF88C325B44CAF88C32019B8F
:102B28004B4404EB8303D3F89C325B44CAF89C32D1
:102B380072E7082204F2C441284600F077FCC8F383
:102B48000A1809EBC90204EB8202D2F89C3243440A
:102B5800C2F89C3260E7206800F0A4FC8046B146C9
:102B680035E005EB49130122C3F8082B49462046F6
:102B7800FFF7BAFE3CE005EB49130822C3F8082B1F
:102B880049462046FFF7D4FE35E009EBC90304EBBC
:102B9800830393F87F32012B41D005EB49130222BE
:102BA800C3F8082B1AF0200F04D005EB4913202294
:102BB800C3F8082B1AF4005F05D005EB49134FF44E
:102BC8000052C3F8082B09F101094FEA5808B8F177
:102BD800000F3FF42DAF18F0010FF4D05FFA89FB16
:102BE8005946206800F06EFC824610F0010FB8D1FB
:102BF8001AF0080FBFD11AF0100F04D005EB4913D3
:102C08001022C3F8082B1AF0020FCBD06B6913F00F
:102C1800800FBAD07B6843F480637B60B5E709EB2B
:102C2800C90304EB8303002283F87F225946204618
:102C3800FFF79AFEB1E7206800F03CFC8046B146F9
:102C48001BE009F00F03012101FA03F27B6B23EA71
:102C580002037B6305EB4913C3F80819594620465C
:102C6800FFF764FE1AE01AF0020F30D11AF0800F55
:102C78004BD109F101094FEA5808B8F1000F3FF4A8
:102C8800DEAE18F0010FF4D05FFA89FB59462068D0
:102C980000F021FC824610F0010FD2D11AF0080F83
:102CA80004D005EB49130822C3F808291AF0100FBD
:102CB80004D005EB49131022C3F808291AF0400F75
:102CC800D1D005EB49134022C3F80829CBE7494680
:102CD800284600F021FA09EBC90304EB830393F8B3
:102CE8003F30012B05D005EB49130222C3F8082910
:102CF800BCE709EBC90304EB8303002283F83F20F8
:102D080059462046FFF731FEEDE749462046FFF7D2
:102D1800E6FCAEE77B6823F001037B6094F8F434AB
:102D2800012B08D02046FFF71EFE2268536903F0E6
:102D38000043536189E6002184F8F414204600F02A
:102D48002DF9F2E72046FFF70DFE89E62046FFF74A
:102D580009FEA6E67B6823F001037B60102120684A
:102D680000F0DAF91AE005EB46134FF67F31C3F8A5
:102D78000819D3F8002922F40012C3F80029C3F86F
:102D8800081BD3F8002B22F40012C3F8002BD3F849
:102D9800002B42F00062C3F8002B01366368B3428F
:102DA800E1D8FB6943F00113FB61236BD3B1D7F87A
:102DB800843043F00B03C7F884307B6C43F00B037B
:102DC8007B64D5F8003823F4FE63C5F8003804F2B4
:102DD800C441206800F0D8FB2268536903F480538B
:102DE800536165E67B6943F4005343F02B037B6131
:102DF8003B6943F00B033B61E3E7206800F0B4FB59
:102E0800206800F091FAE0602668FEF7BBFD0146F5
:102E1800227B304600F008F92046FFF7A2FD226821
:102E2800536903F40053536149E62046FFF798FDC0
:102E38002268536903F00803536147E60136636863
:102E4800B3420CD906EBC60304EB830393F87F3235
:102E5800012BF3D1F1B22046FFF78AFDEEE7206897
:102E680000F01CFB10F4801F27D1206800F016FB2F
:102E780010F4001F5BD0012328E001366368B342D9
:102E88001DD905EB4613D3F8002906EBC60304EB5E
:102E9800830393F84030012BEFD1002AEDDA06EBDB
:102EA800C60304EB8303012283F83F2066F07F0109
:102EB800C9B22046FFF75CFDDFE70126DEE722689E
:102EC800536903F480135361CFE7013362689A4270
:102ED80028D905EB4312D2F8001B03EBC30204EB1D
:102EE800820292F88022012AEFD10029EDDA01F45A
:102EF8008031D4F8FC2402F001029142E5D103EBC1
:102F0800C30204EB8202012182F87F12AA6942F00F
:102F18008002AA616A6912F0800FD6D17B6843F4F7
:102F280000737B602268536903F4001353612068BF
:102F380000F0B4FA10F0804F10D1206800F0AEFA1B
:102F480010F0040F3FF437AD23685D6815F0040FE7
:102F58000DD1226853682B4353602CE52046FFF7B8
:102F680005FD2268536903F080435361E5E7204675
:102F7800FFF7FDFCEDE7034602680121C0F80015E4
:102F8800002083F8F404936943F000639361536D60
:102F980043F0805343F003035365704770470000C4
:102FA80082B000230193019B01330193019A0F4BD7
:102FB8009A4215D80369002BF5DA002301930369B7
:102FC80043F001030361019B01330193019A074B0D
:102FD8009A4208D8036913F0010FF4D1002000E0E9
:102FE800032002B070470320FBE700BF400D030039
:102FF80084B010B504460DF10C0C8CE80E00C368C3
:1030080043F04003C360FFF7CBFF0C9B3BB9A36BB6
:1030180043F48033A363BDE8104004B07047A36B4A
:1030280023F48033A363F6E7022A0AD00921C26891
:1030380022F47052C260C36843EA8123C36000204F
:103048007047234B0B44234A93422FD9224B0B44FE
:10305800224A93422CD9A1F57403A3F51053204AB0
:10306800934227D9A1F18373A3F5E7431D4A9342FD
:1030780022D31D4B0B441D4A93421FD91C4B0B44B2
:103088001C4A93421CD31C4B0B441C4A934219D331
:10309800A1F1B773A3F55853194A934214D3194BA6
:1030A8000B44194A934211D20721C0E70F21BEE70A
:1030B8000E21BCE70D21BAE70C21B8E70B21B6E7D2
:1030C8000A21B4E70921B2E70821B0E70621AEE7F3
:1030D800405327FFFF340C00401E1BFF3F420F00E8
:1030E8007F4F120020D6130060B6E5FE5FE316009E
:1030F80000D3CEFE40771B00C05BB3FEC091210019
:1031080020753800E05459FEE09C4100836823F0A4
:10311800010383600020704782B000230193019B64
:1031280001330193019A0F4B9A4215D80369002B7A
:10313800F5DA00230193890141F020010161019B27
:1031480001330193019A074B9A4208D8036913F097
:10315800200FF4D1002000E0032002B070470320C4
:10316800FBE700BF400D030082B000230193019BE1
:1031780001330193019A0E4B9A4213D80369002B2D
:10318800F5DA0023019310230361019B01330193B6
:10319800019A074B9A4208D8036913F0100FF4D12B
:1031A800002000E0032002B070470320FBE700BFC7
:1031B800400D0300D0F800381943C0F8001800206B
:1031C8007047000084B02DE9F041044607A880E864
:1031D8000E00002306E003F1400204EB8202002106
:1031E800516001330E2BF6D9119F8FBBD4F80438E8
:1031F80043F00203C4F80438A36B23F40013A36359
:10320800236843F040032360236843F0800323606E
:103218000023C4F8003E04F50065D4F80038C4F86B
:10322800003803212046FFF7C5FF10212046FFF78D
:1032380073FF804608B14FF001082046FFF794FF5E
:1032480008B14FF0010800232B616B61EB610FE0BF
:10325800A36B43F40013A363DAE7C3B94FF000602C
:10326800C2F8000900220A614FF67F328A600133F2
:103278000799994210D904EB431202F51061D2F86C
:1032880000090028E9DB0020C2F80009EAE74FF04E
:103298009040C2F80009E5E700230AE0C3B14FF007
:1032A800904CC2F800CB002202614FF67F32826058
:1032B8000133994211D904EB431202F53060D2F878
:1032C800006B002EEADB4FF0000CC2F800CBEAE7F7
:1032D8004FF0006CC2F800CBE5E72B6923F480734C
:1032E8002B610023A3616FF080436361A36943F0FE
:1032F8001003A361A2690B4B1343A3610D9B1BB180
:10330800A36943F00803A361012F04D04046BDE838
:10331800F04104B07047A36943F0804343F00403CD
:10332800A361F3E700383C80D0F8083803F00603BF
:10333800022B05D0062B01D00F20704702207047C2
:103348000220704710B483B00246002301934878E6
:1033580001280BD00B7802EB4313D3F8000B00289D
:103368002DDB002003B05DF8044B70470B7802EBAF
:103378004313D3F80049002C01DB0020F2E7D3F80F
:10338800004944F00064C3F800490B7802EB43138A
:10339800D3F8004944F08044C3F80049019B013345
:1033A8000193019C42F210739C42DBD80B7802EB2C
:1033B8004313D3F80039002BF0DB0020D2E7D3F811
:1033C800000B40F00060C3F8000B0B7802EB4313CE
:1033D800D3F8000B40F08040C3F8000B019B013389
:1033E8000193019842F21073984208D80B7802EBC7
:1033F8004313D3F8003B002BF0DB0020B2E7012099
:10340800B0E710B503F1030E4FEA9E0E4FF0000C23
:1034180008E000EB023303F5805351F8044B1C60BD
:103428000CF1010CF445F4D3002010BD00B583B0B5
:10343800844608464FEA920E02F00302002305E094
:103448000CF58051096840F8041B01337345F7D324
:103458009AB10CF5805CDCF8003001934FF0000C59
:103468005FFA8CF3D900019BCB4000F8013B0CF1CB
:10347800010C013A92B2002AF2D103B05DF804FBC4
:10348800D0F8003E23F00303C0F8003ED0F804381B
:1034980043F00203C0F8043800207047426980698D
:1034A80010407047D0F8183800F50060C06918401F
:1034B800000C7047D0F8183800F50060C069184053
:1034C80080B2704700EB4111D1F8082B00F500607D
:1034D80040691040704710B4D0F81048D0F834381C
:1034E80001F00F02D340DB01DBB2234300EB4110B4
:1034F80000F51060806818405DF8044B704740691B
:1035080000F00100704738B50546C36823F0C04392
:10351800C360012913D019BBC36843F08043C3605B
:1035280000240120FDF7A6FD01342846FFF7E7FF38
:1035380008B1312CF5D9322C14D0002038BDC3681D
:1035480043F00053C36000240120FDF793FD0134CC
:103558002846FFF7D4FF0128EDD0312CF4D9EAE74B
:103568000120EBE70120E9E7D0F8003923F4FF63F5
:1035780023F00703C0F80039D0F8043843F4807307
:10358800C0F8043800207047026C0F4B9A4203D9E8
:10359800D0F8003B002B14DB0023C0F8103BD0F818
:1035A800103B43F40023C0F8103BD0F8103B43F025
:1035B8001803C0F8103BD0F8103B43F0C043C0F8E4
:1035C800103B0020704700BF0A30544F034AD2F81E
:1035D800883043F47003C2F88830704700ED00E08B
:1035E800DFF834D0FFF7F2FF0C480D490D4A0023ED
:1035F80002E0D458C4500433C4188C42F9D30A4AA0
:103608000A4C002301E013600432A242FBD3FCF70A
:10361800FBFDFDF793F8FEE7008001200000002085
:1036280010000020A83600081000002040060020E6
:10363800FEE70000F8B500BFF8BC08BC9E4670471E
:10364800F8B500BFF8BC08BC9E46704700000000F3
:10365800000000000000000001020304060708093A
:10366800A0860100400D0300801A060000350C00FA
:1036780040420F0080841E0000093D0000127A00BD
:103688000024F40000366E010048E801006CDC02FA
:08369800F10100080000000030
:0836A000C90100080000000050
:1036A800010000001000000000093D0000000000BB
:04000005080035E9D1
:00000001FF
