:020000040800F2
:1000000000800120055F00080D0D00080F0D00089D
:10001000110D0008130D0008150D00080000000068
:10002000000000000000000000000000170D0008A4
:10003000190D0008000000001B0D00081D0D000830
:10004000555F0008555F0008555F0008555F0008C0
:10005000555F0008555F0008555F0008555F0008B0
:10006000555F0008555F0008555F0008555F0008A0
:10007000250D0008350D0008450D0008555F0008E6
:10008000555F0008555F0008555F0008555F000880
:10009000555F0008555F0008555F0008555F000870
:1000A000555F0008555F0008555F0008555F000860
:1000B000555F0008555F0008555F0008555F000850
:1000C000555F0008555F0008555F0008550D000892
:1000D000650D0008555F0008555F0008555F000872
:1000E000555F0008555F0008555F0008555F000820
:1000F000555F0008555F0008555F0008555F000810
:10010000555F0008555F0008555F0008555F0008FF
:10011000555F0008555F0008555F0008555F0008EF
:10012000555F0008555F0008555F0008555F0008DF
:10013000555F0008555F0008555F0008555F0008CF
:10014000555F0008555F0008555F0008750D0008F1
:10015000555F0008555F0008555F0008555F0008AF
:10016000555F0008555F0008555F0008555F00089F
:10017000555F0008555F0008555F0008000000004B
:08018000555F0008555F0008FF
:100188000348044B834202D0034B03B1184770471E
:10019800100000201000002000000000054806495B
:1001A8000B1AD90F01EBA301491002D0034B03B17D
:1001B80018477047100000201000002000000000C1
:1001C80010B5064C237843B9FFF7DAFF044B13B197
:1001D8000448AFF300800123237010BD10000020F5
:1001E80000000000585F000808B5044B1BB1044923
:1001F8000448AFF30080BDE80840CFE700000000E6
:1002080014000020585F000870B50D4E0D4D761B88
:10021800B61006D0002455F8043B01349847A6428E
:10022800F9D1094E094D761B05F092FEB61006D09D
:10023800002455F8043B01349847A642F9D170BD13
:10024800E85F0008E85F0008EC5F0008E85F000866
:10025800844641EA000313F003036DD1403A41D3C9
:1002680051F8043B40F8043B51F8043B40F8043B88
:1002780051F8043B40F8043B51F8043B40F8043B78
:1002880051F8043B40F8043B51F8043B40F8043B68
:1002980051F8043B40F8043B51F8043B40F8043B58
:1002A80051F8043B40F8043B51F8043B40F8043B48
:1002B80051F8043B40F8043B51F8043B40F8043B38
:1002C80051F8043B40F8043B51F8043B40F8043B28
:1002D80051F8043B40F8043B51F8043B40F8043B18
:1002E800403ABDD2303211D351F8043B40F8043BB8
:1002F80051F8043B40F8043B51F8043B40F8043BF8
:1003080051F8043B40F8043B103AEDD20C3205D3C7
:1003180051F8043B40F8043B043AF9D2043208D0BF
:10032800D2071CBF11F8013B00F8013B01D30B8831
:1003380003806046704700BF082A13D38B078DD00F
:1003480010F003038AD0C3F10403D21ADB071CBFE1
:1003580011F8013B00F8013B80D331F8023B20F84B
:10036800023B7BE7043AD9D3013A11F8013B00F884
:10037800013BF9D20B7803704B7843708B7883700C
:1003880060467047830730B548D0541E002A3FD0D6
:10039800CAB2034601E0013C3AD303F8012B9D079A
:1003A800F9D1032C2DD9CDB245EA05250F2C45EA04
:1003B800054536D9A4F1100222F00F0C03F1200EE6
:1003C800E6444FEA121C03F1100242E9045542E9DF
:1003D800025510327245F8D10CF1010214F00C0FDD
:1003E80003EB021204F00F0C13D0ACF1040323F05A
:1003F80003030433134442F8045B9342FBD10CF02B
:1004080003042CB1CAB21C4403F8012B9C42FBD153
:1004180030BD64461346002CF4D1F9E70346144670
:10042800BFE71A46A446E0E753B94AB9002908BF0E
:1004380000281CBF4FF0FF314FF0FF3000F074B9B7
:10044800ADF1080C6DE904CE00F006F8DDF804E023
:10045800DDE9022304B070472DE9F047089D044602
:100468008E46002B4DD18A42944669D9B2FA82F25F
:1004780052B101FA02F3C2F1200120FA01F10CFA9B
:1004880002FC41EA030E94404FEA1C48210CBEFBD3
:10049800F8F61FFA8CF708FB16E341EA034306FB5C
:1004A80007F199420AD91CEB030306F1FF3080F0EB
:1004B8001F81994240F21C81023E63445B1AA4B238
:1004C800B3FBF8F008FB103344EA034400FB07F7DA
:1004D800A7420AD91CEB040400F1FF3380F00A811B
:1004E800A74240F207816444023840EA0640E41B10
:1004F80000261DB1D4400023C5E900433146BDE8BC
:10050800F0878B4209D9002D00F0EF800026C5E95D
:10051800000130463146BDE8F087B3FA83F6002E75
:100528004AD18B4202D3824200F2F980841A61EBED
:10053800030301209E46002DE0D0C5E9004EDDE70B
:1005480002B9FFDEB2FA82F2002A40F09280A1EBF3
:100558000C014FEA1C471FFA8CFE0126200CB1FB48
:10056800F7F307FB131140EA01410EFB03F0884241
:1005780008D91CEB010103F1FF3802D2884200F2CE
:10058800CB804346091AA4B2B1FBF7F007FB101160
:1005980044EA01440EFB00FEA64508D91CEB0404FE
:1005A80000F1FF3102D2A64500F2BB800846A4EB59
:1005B8000E0440EA03409CE7C6F12007B34022FA44
:1005C80007FC4CEA030C20FA07F401FA06F31C4373
:1005D800F9404FEA1C4900FA06F3B1FBF9F8200C80
:1005E8001FFA8CFE09FB181140EA014108FB0EF0C6
:1005F800884202FA06F20BD91CEB010108F1FF3A16
:1006080080F08880884240F28580A8F10208614421
:10061800091AA4B2B1FBF9F009FB101144EA01412F
:1006280000FB0EFE8E4508D91CEB010100F1FF34DA
:100638006CD28E456AD90238614440EA0840A0FB72
:100648000294A1EB0E01A142C846A64656D353D048
:100658005DB1B3EB080261EB0E0101FA07F722FA6C
:1006680006F3F1401F43C5E9007100263146BDE895
:10067800F087C2F12003D8400CFA02FC21FA03F3F8
:10068800914001434FEA1C471FFA8CFEB3FBF7F079
:1006980007FB10360B0C43EA064300FB0EF69E429E
:1006A80004FA02F408D91CEB030300F1FF382FD237
:1006B8009E422DD9023863449B1B89B2B3FBF7F6DF
:1006C80007FB163341EA034106FB0EF38B4208D9B8
:1006D8001CEB010106F1FF3816D28B4214D9023EF9
:1006E8006144C91A46EA004638E72E46284605E717
:1006F8000646E3E61846F8E64B45A9D2B9EB0208E8
:1007080064EB0C0E0138A3E74646EAE7204694E777
:100718004046D1E7D0467BE7023B614432E73046AA
:1007280009E76444023842E7704700BF2DE9F04FFB
:100738008DB000240794089409940A940B94A44B50
:10074800DA6C42F01002DA64DA6C02F010020192FC
:10075800019ADA6C42F00402DA64DA6C02F00402FC
:100768000292029ADA6C42F08002DA64DA6C02F0E1
:1007780080020392039ADA6C42F00102DA64DA6CBE
:1007880002F001020492049ADA6C42F00202DA647E
:10079800DA6C02F002020592059ADA6C42F008025D
:1007A800DA64DB6C03F008030693069B894F224644
:1007B80041F20971384602F0FBF8224620214FF039
:1007C800904002F0F5F8DFF8148222460C214046EA
:1007D80002F0EEF8DFF808B222464FF400615846FE
:1007E80002F0E6F8224680217B4802F0E1F8F42383
:1007F80007930226089609944FF00309CDF828902C
:100808000D230B9307A9384601F0D2FF082307935D
:100818000125089509940A9607A9384601F0C8FFEA
:100828004FF4105307934FF4901ACDF820A0099471
:1008380007A9584601F0BCFF40F2C7330793089454
:10084800099407A9584601F0B3FF3823079308967F
:1008580009940A940B230B9307A9584601F0A8FFA3
:100868000F2307930894099607A94FF0904001F0C9
:100878009FFF10230793CDF820A0099407A94FF0F4
:10088800904001F095FF20230793089509940A9456
:1008980007A94FF0904001F08BFF4FF233230793E5
:1008A800089609940A940B230B9307A9404601F074
:1008B8007FFF0423079308950995CDF8289007A989
:1008C800404601F075FF4FF480730793089509952A
:1008D800CDF8289007A9384601F06AFF41F2016374
:1008E8000793089509940A9407A9384601F060FF10
:1008F8004FF40063079308960994CDF828900A23CB
:100908000B9307A9384601F053FF4FF44063079350
:10091800122308930994CDF8289004230B9307A970
:10092800404601F045FF4FF47F430793089609942A
:100938000A940B230B9307A9274801F039FF4FF4BA
:1009480003430793089609940A940B230B9307A96A
:100958004FF0904001F02CFF4FF400630793089587
:1009680009940A9407A9584601F022FF0523079322
:10097800CDF820A0099407A9174801F019FF802392
:10098800079308950994CDF8289007A9124801F013
:100998000FFF08230793089509940A9407A940466E
:1009A80001F006FF4FF480730793CDF820A0099457
:1009B80007A9404601F0FCFE0796CDF820A009944F
:1009C80007A9384601F0F4FE0DB0BDE8F08F00BF6E
:1009D8000010024000100048000C004800040048C5
:1009E8000008004800B583B0124B9A6C42F001022F
:1009F8009A649B6C03F001030193019B002211464A
:100A08000C2002F053F90C2002F088F9002211465C
:100A18000D2002F04BF90D2002F080F9002211465A
:100A28000E2002F043F90E2002F078F903B05DF8C9
:100A380004FB00BF0010024072B6FEE708B510487C
:100A4800104B03604FF482734360002383604FF4BC
:100A5800E062C260036143614FF400728261282240
:100A6800C26180220262436283620722C262036318
:100A7800436302F08AFA00B908BDFFF7DDFF00BF43
:100A8800740600200030014008B51148114B03607E
:100A9800114B4360002383600122C26003614361FC
:100AA8008361C361036200F082FC50B900210848E9
:100AB80000F09AFD38B90021054800F0C3FD20B9BF
:100AC80008BDFFF7B9FFFFF7B7FFFFF7B5FF00BF96
:100AD8001401002000540040EC9C901008B50B480D
:100AE8004FF0A0430360062343600223C360836181
:100AF8000023C3610362436283620363C36202F03B
:100B080023FD00B908BDFFF797FF00BF680100206B
:100B180008B50F480F4B03604FF4827343600023FE
:100B280083604FF4E062C260036143614FF4007276
:100B38008261C36180220262436283620722C262C9
:100B48000363436302F021FA00B908BDFFF774FF9D
:100B5800D80600200038004008B50B480B4B03604E
:100B68004FF4E133436000238360C36003610C22C8
:100B780042618361C3610362436205F08EF900B983
:100B880008BDFFF759FF00BF3C07002000440040A4
:100B980000B597B04422002105A8FFF7F3FB002316
:100BA800009301930293039304934FF4007002F0AF
:100BB8001BF828BB1023059301220B9200230C93EA
:100BC80060230D9302230F93109211922822129200
:100BD800072213921493159305A800F065FE88B9AF
:100BE8000F23009303230193002302930393049399
:100BF8000421684601F066F930B917B05DF804FBC6
:100C0800FFF71AFFFFF718FFFFF716FFF0B583B0DD
:100C180000F06CFDFFF7BCFFFFF788FDFFF7E2FE71
:100C2800FFF70CFFFFF730FFFFF758FFFFF770FFE4
:100C3800FFF792FF2C4A0123137080215170002185
:100C480091702A4A102111704FF47A71009158213D
:100C5800274800F00BFC274C01224FF48051204616
:100C680001F0A6FE00224FF48051204601F0A0FEBC
:100C7800214C4FF47A750095032322461A491F48E0
:100C880002F0F2F963781B0203F44073A27813436D
:100C98001B4A1360154C00262670FF236370144FFF
:100CA8000095022322465821384600F0DFFB2846EB
:100CB80000F044FD267080236370009502232246CD
:100CC8005821384600F0D2FB284600F037FD267040
:100CD80066700095022322465821384600F0C6FB6C
:100CE800284600F02BFDB6E7340000202C00002039
:100CF8001401002000100048300000207406002075
:100D080038000020FEE7FEE7FEE7FEE7FEE7704753
:100D18007047704708B500F0FFFC08BD08B50248E9
:100D280001F0F8FE08BD00BF3C00002008B50248ED
:100D380001F0F0FE08BD00BF8400002008B502489D
:100D480001F0E8FE08BD00BFCC00002008B502484D
:100D580002F0FAFA08BD00BF7406002008B5024880
:100D680002F0F2FA08BD00BFD806002008B500203E
:100D780004F026FD014802F0E5FC08BD68010020EA
:100D880082B00A4B1A6E42F001021A661A6E02F01D
:100D980001020092009A9A6D42F080529A659B6D0A
:100DA80003F080530193019B02B07047001002408A
:100DB80010B5AAB0044600212591269127912891C3
:100DC8002991882203A8FFF7DDFA2268174B9A4277
:100DD80001D02AB010BD4023039303A801F0BEFA46
:100DE80008BB134CE36C43F00203E364E36C03F0C9
:100DF80002030193019BC02325931223269300230A
:100E08002793032328930423299325A9094801F04C
:100E1800CFFCA36D43F40013A365A36D03F4001383
:100E28000293029BD5E7FFF707FEDAE7005400407C
:100E3800001002400004004810B58AB004460023A0
:100E48000593069307930893099303684F4A9342BF
:100E580004D04F4A934259D00AB010BD4D4B1A6E78
:100E680042F480521A661A6E02F480520192019A74
:100E7800DA6C42F01002DA64DB6C03F010030293C0
:100E8800029B4FF4604305930223069303230893C0
:100E98000523099305A9404801F08AFC3F48404BC7
:100EA800036001234360102383600023C360802212
:100EB800026143618361C361036201F07FFDF8B998
:100EC800364B63659C623748374B036001234360A8
:100ED80000238360C3608022026143618361C36130
:100EE800036201F06BFD70B92E4BA3659C62002272
:100EF8001146232001F0DAFE232001F00FFFABE7B3
:100F0800FFF79AFDDCE7FFF797FDEDE7214B9A6DB8
:100F180042F480429A659A6D02F480420392039AE1
:100F2800DA6C42F00802DA64DB6C03F0080304931D
:100F3800049B1A230593022306930323089305238E
:100F4800099305A9194801F033FC1948194B0360A6
:100F58000123436000238360C360802202614361F0
:100F68008361C361036201F029FD58B9104BA36581
:100F78009C6200221146242001F098FE242001F0F2
:100F8800CDFE69E7FFF758FDF0E700BF00300140EC
:100F98000038004000100240001000488400002083
:100FA800300002403C0000201C000240000C0048B9
:100FB800CC0000204400024010B5AAB0044600212D
:100FC80025912691279128912991882203A8FFF736
:100FD800D9F92268174B9A4201D02AB010BD0223D2
:100FE800039303A801F0BAF908BB134B9A6D42F4B6
:100FF80000329A659A6D02F400320192019ADA6C15
:1010080042F00802DA64DB6C03F008030293029BE7
:1010180060232593022326930123279303232893F0
:101028000723299325A9054801F0C2FBD5E7FFF757
:1010380003FDDAE70044004000100240000C0048BD
:1010480010B5AAB004460021259126912791289130
:101058002991882203A8FFF795F92368B3F1A04FD7
:1010680001D02AB010BD4FF4005303934FF08063B2
:101078001E930123049305931823069307230793CC
:101088000223089309934FF480130A9303A801F0ED
:1010980065F900283ED1224CE36C43F00103E36478
:1010A800E36C03F001030093009B4FF4E053259396
:1010B8000223269300232793032328930A232993A3
:1010C80025A94FF0904001F073FBE36C43F4805383
:1010D800E364E36C03F480530193019BA36D13F065
:1010E800805F1AD1A36D43F08053A365A36D03F00D
:1010F80080530293029B01F0BFFDA36D23F0805340
:10110800A36500221146432001F0D0FD432001F0E1
:1011180005FEA6E7FFF790FCBDE701F0ADFDF0E79F
:101128000010024003689A6912F0020F01D00022F1
:101138009A6203689A6912F0010F03D19A6942F022
:1011480001029A61704710B4019CC1F3090141EA98
:1011580002411943214321F0004102685368640D9C
:1011680004F4806444F07F7444F4583444F47F7485
:1011780044F0030423EA0404214351605DF8044B5E
:1011880070472DE9F041044603689F6917F010077E
:101198004CD00E4690461022DA61002523689869E3
:1011A80010F0200F3BD1002D39D1B6F1FF3FF5D01B
:1011B80000F0BEFAA0EB0800B04201D8002EEDD135
:1011C80021684B6803F4804394F84220D2B28869BE
:1011D80010F4004F02D00BB9202A18D123689B695C
:1011E80013F0200FDAD100F0A3FAA0EB08001928B9
:1011F800F4D9636C43F020036364202384F84130FE
:10120800002384F8423084F840300125E6E74B6833
:1012180043F480434B6000F08BFA8046DEE7002DF4
:1012280040D12022DA610427012500E00025226848
:10123800936913F4807F05D047F001074FF480715C
:10124800D161012513F4806F06D047F008072268A2
:101258004FF48061D161012513F4007F24D047F059
:10126800020723684FF40072DA6101252046FFF770
:1012780059FF2268536823F0FF7323F48B3323F458
:10128800FF7323F001035360636C1F4367642023DB
:1012980084F84130002384F8423084F840302846EE
:1012A800BDE8F0810427C2E7002DF8D0DEE770B56D
:1012B80004460D46164623689B6913F0020F1DD19C
:1012C800324629462046FFF75CFFC8B9B5F1FF3F13
:1012D800F1D000F02DFA801BA84201D8002DEAD1E8
:1012E800636C43F020036364202384F841300023B7
:1012F80084F8423084F84030012000E0002070BDBE
:101308000120FCE72DE9F0410646884617461D46B0
:101318003468A46938EA04030CBF4FF0010C4FF09D
:10132800000CBC4518D1B5F1FF3FF1D000F000FA30
:10133800069BC01AA84201D8002DE9D1736C43F06E
:1013480020037364202386F84130002386F8423056
:1013580086F84030012000E00020BDE8F08170B53B
:1013680005460C4616462B689B6913F0200F1AD1C8
:10137800324621462846FFF704FFB0B900F0D8F9F5
:10138800801BA04201D8002CEDD16B6C43F02003E8
:101398006B64202385F84130002385F8423085F8B6
:1013A8004030012070BD0020FCE70120FAE700284A
:1013B80059D010B5044690F84130002B43D024236F
:1013C80084F841302268136823F0010313606368CE
:1013D800226823F0706313612268936823F4004342
:1013E8009360E368012B33D0A368226843F4044375
:1013F8009360E368022B31D02268536843F000738E
:1014080043F4004353602268D36823F40043D36055
:10141800236962691343A169226843EA0123D360FF
:10142800E369216A22680B4313602268136843F05A
:101438000103136000206064202384F84130206396
:1014480084F8420010BD80F84030FFF7B1FCB6E7E1
:10145800A368226843F400439360CAE723684FF403
:1014680000625A60C8E70120704700002DE9F04784
:1014780082B00F460A9E90F84110C9B2202940F068
:10148800A38004469046994690F84030012B00F01E
:101498009F804FF0010A80F840A000F049F9054606
:1014A8000090192352464FF400412046FFF72AFFC7
:1014B800002840F08F80212384F84130102384F8DD
:1014C800423000236364C4F82480A4F82A9063633C
:1014D800638D9BB2FF2B0AD9FF222285414B0093D3
:1014E8004FF0807339462046FFF72DFE18E0628DD5
:1014F80092B222853B4B00934FF00073D2B239462B
:101508002046FFF720FE0BE0628D92B22285002371
:1015180000934FF00073D2B239462046FFF713FE0E
:10152800638D9BB2002B33D02A4631462046FFF705
:10153800BEFE002850D1626A236812789A62636AF4
:1015480001336362638D9BB2013B9BB26385238D3C
:10155800013B9BB22385628D92B2002AE0D0002B1A
:10156800DED100953346002280212046FFF7CAFECF
:10157800A0BB638D9BB2FF2BC6D9FF222285002317
:1015880000934FF0807339462046FFF7DCFDC7E72C
:101598002A4631462046FFF7E2FE08BB2368202290
:1015A800DA6121684B6823F0FF7323F48B3323F44B
:1015B800FF7323F001034B6084F84120002384F873
:1015C800423084F8403000E0022002B0BDE8F087E5
:1015D8000220FAE70120F8E70120F6E70120F4E706
:1015E8000120F2E70020008090F84130DBB2202B88
:1015F80024D190F84030012B22D0012380F84030CC
:10160800242380F841300268136823F00103136033
:101618000268136823F4805313600268136819433F
:1016280011600268136843F001031360202380F8F7
:101638004130002380F84030184670470220704738
:101648000220704790F84130DBB2202B22D190F86D
:101658004030012B20D0012380F84030242380F82B
:1016680041300268136823F00103136002681368AD
:1016780023F4706343EA012111600268136843F0A0
:1016880001031360202380F84130002380F84030A4
:10169800184670470220704702207047104B1B788D
:1016A8000BB90120704710B504464FF47A70B0FBAF
:1016B800F3F30C4A1068B0FBF3F001F03DFB68B996
:1016C8000F2C01D901200AE0002221464FF0FF30FB
:1016D80001F0ECFA044B1C60002000E0012010BD72
:1016E80000000020080000200400002010B5094A6E
:1016F800136843F480731360032001F0C5FA0020D7
:10170800FFF7CCFF10B10124204610BD0446FFF7B7
:1017180037FBF9E700200240034B1B78034A1168A6
:101728000B441360704700BF00000020C007002072
:10173800014B1868704700BFC007002038B5044641
:10174800FFF7F6FF0546B4F1FF3F02D0044B1B78C4
:101758001C44FFF7EDFF401BA042FAD338BD00BF81
:101768000000002030B583B00446204B9B6D13F079
:10177800805F0BD001F030FAB0F5007F17D0802CD5
:101788001FD82DD0702C2DD000211BE0174DAB6D2C
:1017980043F08053AB65AB6D03F080530193019B1D
:1017A80001F01AFAAB6D23F08053AB65E4E7802CA7
:1017B80003D9A02C03D9022104E0002102E0012171
:1017C80000E003210A4A136823F007030B43136060
:1017D800136803F007038B4206D1002003B030BD25
:1017E8000221EFE70121EDE70120F7E700100240B1
:1017F80000200240284A9368D26802F0030213F0DE
:101808000C030AD00C2B06D0042B1FD0082B20D099
:101818000020024610E0012AF6D11F4A126812F091
:10182800080F0CD11C4AD2F89420C2F303221B499A
:1018380051F8222043B100200C2B0DD07047164AD6
:101848001268C2F30312F2E71046F5E714480022C3
:10185800F2E714480022EFE70F4BDB6803F00303BD
:10186800022B16D0032B00D10E4A0B49C868C0F3CF
:101878000210431CC868C0F3062002FB00F0B0FB4E
:10188800F3F0CB68C3F3416301335B00B0FBF3F0C3
:10189800D4E7034AE9E700BF00100240885F000868
:1018A8000024F40000127A00002800F0F182F0B55C
:1018B80083B00446964B9D6805F00C05DE6806F07B
:1018C8000306036813F0100F5AD0E5B10C2D18D099
:1018D800A369002B00F0BB808D4A136843F0010315
:1018E8001360FFF725FF0746894B1B6813F0020FAB
:1018F80040F09A80FFF71CFFC01B0228F4D9032090
:10190800D1E2012EE4D1824B1B6813F0020F03D001
:10191800A369002B00F0BE82206A7D4B1B6813F080
:10192800080F5BD07A4B1B6803F0F00398425CD831
:10193800774B1A6842F008021A601A6822F0F0021F
:10194800216A0A431A605A6822F47F42E16942EA2E
:1019580001225A60002D60D0FFF74CFF6C4B9B684A
:10196800C3F303136B4AD35C03F01F03D8406A4BDD
:1019780018606A4B1868FFF791FE002840F09382C0
:10198800236813F0010F00F08180082D75D00C2D0D
:1019980071D06368B3F5803F00F09780B3F5A02F4E
:1019A80000F099805A4B1A6822F480321A601A683B
:1019B80022F480221A606368002B00F09980FFF7F8
:1019C800B7FE0746524B1B6813F4003F5ED1FFF782
:1019D800AFFEC01B6428F5D9032064E24C4BD3F852
:1019E80094301B0903F0F003A0E7FFF7BBFE0028C3
:1019F80040F05282464B1A6842F008021A601A6890
:101A080022F0F002216A0A431A605A6822F47F42DF
:101A1800E16942EA01225A609EE7206AFFF7A2FEC6
:101A2800002899D001203EE2394B1A6842F008029A
:101A38001A601A6822F0F002216A0A431A605A688A
:101A480022F47F42E16942EA01225A6098E7304A6B
:101A5800136823F001031360FFF76AFE07462C4B57
:101A68001B6813F0020F8BD0FFF762FEC01B022821
:101A7800F5D9032017E2032E8BD1254B1B6813F4ED
:101A8800003F03D06368002B00F00882236813F03E
:101A9800020F58D0042D45D00C2D41D0E368002BFF
:101AA80077D01B4A136843F480731360FFF740FE36
:101AB8000646174B1B6813F4806F61D1FFF738FE99
:101AC800801B0228F5D90320EDE1114A136843F47D
:101AD800803313606FE703F18043A3F53C331A6842
:101AE80042F480221A601A6842F480321A6062E76F
:101AF800FFF71EFE0746064B1B6813F4003FC5D0D0
:101B0800FFF716FEC01B6428F5D90320CBE100BF00
:101B180000100240705F0008080000200400002048
:101B2800022EBBD1A34B1B6813F4806F03D0E3686C
:101B3800002B00F0B5819F4A536823F0F8532169C0
:101B480043EA01635360236813F0080F4CD06369BC
:101B58009BB3984AD2F8943043F00103C2F894300A
:101B6800FFF7E6FD0646934BD3F8943013F0020FC7
:101B78003AD1FFF7DDFD801B0228F4D9032092E15A
:101B88008C4A536823F0F853216943EA0163536090
:101B9800D9E7884A136823F480731360FFF7C8FDF8
:101BA8000646844B1B6813F4806FCCD0FFF7C0FD4A
:101BB800801B0228F5D9032075E17E4AD2F89430BB
:101BC80023F00103C2F89430FFF7B2FD0646794BC3
:101BD800D3F8943013F0020F06D0FFF7A9FD801B4D
:101BE8000228F4D903205EE1236813F0040F7AD0A9
:101BF800704B9B6D13F0805F36D16E4B9A6D42F03F
:101C080080529A659B6D03F080530193019B0126D6
:101C1800694B1B6813F4807F28D0A368012B39D047
:101C2800052B3FD0634BD3F8902022F00102C3F874
:101C38009020D3F8902022F00402C3F89020A368E3
:101C4800002B3DD0FFF774FD07465A4BD3F8903070
:101C580013F0020F46D1FFF76BFDC01B41F288332A
:101C68009842F2D903201EE10026D1E7524A1368B0
:101C780043F480731360FFF75BFD07464E4B1B6808
:101C880013F4807FC9D1FFF753FDC01B0228F5D993
:101C9800032008E1474AD2F8903043F00103C2F824
:101CA8009030CCE7434BD3F8902042F00402C3F8BD
:101CB8009020D3F8902042F00102C3F89020BEE7AC
:101CC800FFF736FD07463B4BD3F8903013F0020F71
:101CD80008D0FFF72DFDC01B41F288339842F2D996
:101CE8000320E0E0EEB9A36A002B00F0DB80022BB2
:101CF8001DD00C2D00F0DD802E4A136823F0807370
:101D08001360FFF715FD04462A4B1B6813F0007F8C
:101D180000F0B780FFF70CFD001B0228F4D9032060
:101D2800C1E0244A936D23F080539365DBE7214B90
:101D3800DB6803F00301E26A91420FD00C2D00F03A
:101D4800B4801C4B1B6813F0806F40F0B080194BB7
:101D58001B6813F0805F31D00120A4E003F070020B
:101D6800216B0139B2EB011FE8D103F4FE42616B2C
:101D7800B2EB012FE2D103F40031A26B073A18BF8E
:101D880001229142DAD103F4C001E26B5208013A10
:101D9800B1EB425FD2D103F0C063226C5208013A22
:101DA800B3EB426FCAD1034B1B6813F0007F4ED0D0
:101DB800002078E000100240007000403E4A13689E
:101DC80023F080731360FFF7B3FC05463A4B1B689A
:101DD80013F0007F06D0FFF7ABFC401B0228F5D9B3
:101DE800032060E0344AD36834491940E36A206B21
:101DF800013843EA0013606B43EA0023E06B4008B4
:101E0800013843EA4053206C4008013843EA4063F4
:101E1800A06B000943EA40430B43D360136843F0C7
:101E280080731360D36843F08073D360FFF780FC3E
:101E38000446214B1B6813F0007F06D1FFF778FC9E
:101E4800001B0228F5D903202DE000202BE01A4BB7
:101E58001A6842F080721A60DA6842F08072DA60BA
:101E6800FFF766FC0446144B1B6813F0007F06D18D
:101E7800FFF75EFC031B022BF5D9032013E00020BB
:101E880011E00D4AD1680E4B0B40D36000200AE0E8
:101E980001207047012006E0012004E0012002E053
:101EA800012000E0002003B0F0BD0120FBE7012085
:101EB800F9E70120F7E700BF001002408C809DF988
:101EC800FCFFEEFE002800F0AF8070B50D4604461A
:101ED800594B1B6803F007038B420BD2564A136811
:101EE80023F007030B431360136803F007038B42C7
:101EF80040F09C80236813F0020F0CD0A2684F4B6F
:101F08009B6803F0F0039A4205D94C498B6823F08B
:101F1800F0031A438A60236813F0010F39D063680D
:101F2800032B09D0022B26D063BB444A126812F057
:101F3800020F06D1012076E0404A126812F0007FB5
:101F480076D03E498A6822F0030213438B60FFF77C
:101F5800EFFB0646394B9B6803F00C036268B3EB52
:101F6800820F16D0FFF7E4FB801B41F288339842BA
:101F7800F0D9032057E0314A126812F4003FE0D14B
:101F8800012050E02D4A126812F4806FD9D1012047
:101F980049E0236813F0020F0CD0A268274B9B6816
:101FA80003F0F0039A4205D224498B6823F0F0032A
:101FB8001A438A60204B1B6803F00703AB420AD917
:101FC8001D4A136823F007032B431360136803F0BB
:101FD8000703AB422ED1236813F0040F06D0174A2B
:101FE800936823F4E063E1680B439360236813F07C
:101FF800080F07D0114A936823F46053216943EA14
:10200800C1039360FFF7F6FB0C4B9B68C3F3031304
:102018000B4AD35C03F01F03D8400A4B18600A4BE5
:102028001868FFF73BFB70BD012070470120FAE7F5
:102038000120F8E70120F6E70020024000100240E6
:10204800705F00080800002004000020014B186899
:10205800704700BF0800002008B5FFF7F7FF054BE1
:102068009B68C3F30223044AD35C03F01F03D840E0
:1020780008BD00BF00100240805F000808B5FFF7E8
:10208800E5FF054B9B68C3F3C223044AD35C03F006
:102098001F03D84008BD00BF00100240805F000841
:1020A800F8B504460F46594BDB6813F0030F18D0F8
:1020B800564BDB6803F003030268934202D0012504
:1020C8002846F8BD002A00F09E80504BDB68C3F319
:1020D800021301334268934201D00125F0E700253D
:1020E80009E00368022B57D0032B5CD0012B42D0A8
:1020F8000125002DE4D1454A136823F0806313605D
:10210800FFF716FB0646414B1B6813F0006F05D01E
:10211800FFF70EFB831B022BF5D90325002DCFD12A
:10212800002F4ED139490B6923F41F3323F4407330
:10213800A068E2681209520442EA002213430B61C4
:10214800324A136843F080631360FFF7F1FA0646DA
:102158002E4B1B6813F0006F05D1FFF7E9FA831BBC
:10216800022BF5D90325002DAAD1284A1369A169A4
:102178000B431361A4E7254A126812F0020F1ED020
:102188002248C26822F073026168013943EA0113E8
:102198001343C3600025ACE71C4A126812F4806F31
:1021A800EED10125A5E7194A126812F4003FE7D1DC
:1021B800164A126812F4802FE2D1012599E7012509
:1021C80097E7012F0FD01148026922F0C06222F46C
:1021D800FE42A16863695B08013B5B0643EA012391
:1021E80013430361ACE70948026922F4C00222F4F0
:1021F800FE42A16823695B08013B5B0543EA0123B2
:10220800134303619CE701255AE700BF0010024011
:10221800F8B504460F46504BDB6813F0030F18D08F
:102228004D4BDB6803F003030268934202D001259B
:102238002846F8BD002A00F08C80474BDB68C3F3C2
:10224800021301334268934201D00125F0E70025CB
:1022580009E00368022B57D0032B5CD0012B42D036
:102268000125002DE4D13C4A136823F08053136004
:10227800FFF75EFA0646384B1B6813F0005F05D07F
:10228800FFF756FA831B022BF5D90325002DCFD172
:10229800002F4ED130494B6923F41F3323F4407388
:1022A800A068E2681209520442EA002213434B6113
:1022B800294A136843F080531360FFF739FA06463A
:1022C800254B1B6813F0005F05D1FFF731FA831B1C
:1022D800022BF5D90325002DAAD11F4A536961693C
:1022E8000B435361A4E71C4A126812F0020F1ED078
:1022F8001948C26822F073026168013943EA011380
:102308001343C3600025ACE7134A126812F4806FC8
:10231800EED10125A5E7104A126812F4003FE7D173
:102328000D4A126812F4802FE2D1012599E70125A0
:1023380097E70948426922F0C06222F4FE42A16888
:1023480023695B08013B5B0643EA012313434361AE
:10235800AEE701256CE700BF001002402DE9F0410F
:1023680082B00446036813F4006F33D0436EB3F5AC
:10237800000F1FD00CD823B3B3F5800F05D100216F
:102388002030FFF745FF064620E001273E4623E0C0
:10239800B3F5400F0BD10026604AD2F8883023F4F9
:1023A8004003616E0B43C2F88830002714E0012710
:1023B8003E4611E0594AD36843F48033D36000267F
:1023C800EAE700210430FFF76BFE0646002EE3D053
:1023D800374601E000273E46236813F4805F30D07B
:1023E800A36EB3F1007F1FD00DD81BB3B3F1807F6C
:1023F80006D1002104F12000FFF70AFF064605E098
:1024080001273E461DE0B3F1407F0AD1C6B9434AD1
:10241800D2F8883023F04073A16E0B43C2F888309D
:102428000FE001273E460CE03C4AD36843F4803372
:10243800D360EBE70021201DFFF732FE0646E5E7F3
:102448003746236813F4003F71D0344B9B6D13F06B
:10245800805F4ED1314B9A6D42F080529A659B6DE8
:1024680003F080530193019B4FF001082C4A136835
:1024780043F480731360FFF75BF90546284B1B682C
:1024880013F4807F05D1FFF753F9401B0228F5D9D3
:102498000326002E46D1214BD3F8903013F4407315
:1024A80016D0D4F884209A4212D01C4AD2F8903020
:1024B80023F44073D2F8901041F48031C2F89010A0
:1024C800D2F8901021F48031C2F89010C2F8903000
:1024D80013F0010F10D1002E40F027810F4AD2F8D7
:1024E800903023F44073D4F884100B43C2F8903032
:1024F80019E04FF00008B9E7FFF71AF90546074B4E
:10250800D3F8903013F0020FE5D1FFF711F9401B13
:1025180041F288339842F2D90326DCE700100240E2
:10252800007000403746B8F1000F40F00081236882
:1025380013F0010F08D09D4AD2F8883023F0030326
:10254800A16B0B43C2F88830236813F0020F08D040
:10255800964AD2F8883023F00C03E16B0B43C2F89B
:102568008830236813F0040F08D0904AD2F88830D6
:1025780023F03003216C0B43C2F88830236813F032
:10258800080F08D0894AD2F8883023F0C003616C5C
:102598000B43C2F88830236813F0100F08D0834A21
:1025A800D2F8883023F44073A16C0B43C2F888300A
:1025B800236813F0200F08D07C4AD2F8883023F41F
:1025C8004063E16C0B43C2F88830236813F4007F42
:1025D80008D0764AD2F8883023F44023E16D0B43C3
:1025E800C2F88830236813F4806F08D06F4AD2F895
:1025F800883023F44013216E0B43C2F888302368D7
:1026080013F0400F08D0694AD2F8883023F44053B9
:10261800216D0B43C2F88830236813F0800F08D06F
:10262800624AD2F8883023F44043616D0B43C2F804
:102638008830236813F4807F08D05C4AD2F8883049
:1026480023F44033A16D0B43C2F88830236813F498
:10265800005F0FD0554AD2F8883023F04063E16E0E
:102668000B43C2F88830E36EB3F1006F65D0B3F165
:10267800806F67D0236813F4002F0FD04B4AD2F82D
:10268800883023F04063216F0B43C2F88830236FF2
:10269800B3F1006F5ED0B3F1806F60D0236813F49C
:1026A800802F0FD0414AD2F8883023F04063616F01
:1026B8000B43C2F88830636FB3F1006F57D0B3F1A2
:1026C800806F59D0236813F4804F0FD0374AD2F85F
:1026D800883023F04053A16F0B43C2F88830A36FB2
:1026E800B3F1805F50D0B3F1005F55D0236813F485
:1026F800004F08D02D4AD2F8883023F08043E16F8C
:102708000B43C2F88830236813F4803F09D0274A66
:10271800D2F8883023F00043D4F880100B43C2F875
:102728008830384602B0BDE8F0813746FBE61F4ADC
:10273800936D23F080539365F9E6D36843F48013CF
:10274800D36097E70121201DFFF7AAFC002891D04C
:1027580007468FE7D36843F48013D3609EE70121CF
:10276800201DFFF79DFC002898D0074696E7D36800
:1027780043F48013D360A5E70121201DFFF790FCE7
:1027880000289FD007469DE70221201DFFF788FCFF
:102798000028ABD00746A9E7022104F12000FFF783
:1027A80037FD0028A2D00746A0E700BF001002406E
:1027B800F0B583B000236BE085685E000324B44065
:1027C80025EA0405CC68B4402C438460456825EAB2
:1027D8000C054C68C4F300149C402C43446069E029
:1027E800C56A25EA0C0CC4F3C0049C4044EA0C04F6
:1027F800C46265E0DD08083550F8256003F0070479
:102808004FEA840C0F2404FA0CF426EA040E0C692F
:1028180004FA0CF444EA0E0440F8254067E0062464
:1028280000E0002404FA0EF42C430CF1020C5C4D79
:1028380045F82C405B4CA568D44325EA02064F684E
:1028480017F4801F01D042EA0506564DAE60ED68C8
:1028580004EA05064F6817F4001F01D042EA05068E
:10286800504DEE606D6804EA05064F6817F4003FA6
:1028780001D042EA05064B4D6E602D682C404E682B
:1028880016F4803F01D042EA0504464A1460013339
:102898000A6832FA03F400F081804FF0010C0CFA58
:1028A80003FC1CEA0202F2D04C6804F00304013C69
:1028B800012C81D94C6804F0030EBEF1030F8FD0B0
:1028C8004C6804F00304032C0CD0C4685D004FF07E
:1028D800030C0CFA05FC24EA0C0C8C68AC4044EAA6
:1028E8000C04C4604C6804F00304022C82D0046811
:1028F8004FEA430E4FF0030C0CFA0EFC24EA0C0CC2
:102908004C6804F0030404FA0EF444EA0C0404606E
:102918004C6814F4403FBAD0234C256E45F00105AD
:102928002566246E04F001040194019C4FEA930C7F
:102938000CF102051A4C54F8255003F003044FEA31
:10294800840E0F2404FA0EF425EA0405B0F1904F22
:102958003FF467AF154CA04216D004F58064A0423E
:1029680014D004F58064A04212D004F58064A0421B
:1029780010D004F58064A0420ED004F58064A04213
:102988003FF44DAF07244DE701244BE7022449E704
:10299800032447E7042445E7052443E703B0F0BDD3
:1029A80000000140000401400010024000040048FB
:1029B8000AB181617047816270470000002873D0B6
:1029C80010B403460068394A90424AD8384A02444B
:1029D8003849A1FB0212120992005A64364A1A6455
:1029E800022283F82520016821F4FF4121F07001BB
:1029F8009A68DC6822431C6922435C6922439C690B
:102A08002243DC6922431C6A22430A4302609A6813
:102A1800B2F5804F1BD0196C274A91422CD0264A18
:102A2800D2F8A814586C00F01C0C0F2000FA0CF017
:102A380021EA0001C2F8A814D2F8A81458685C6CFE
:102A480004F01C0C00FA0CF00143C2F8A814002092
:102A5800D863012283F8252083F824005DF8044B0D
:102A68007047164A02441349A1FB02121209920048
:102A78005A64134A1A64B3E7D2F8A810586C00F0E5
:102A88001C0C0F2000FA0CF021EA0001C2F8A81073
:102A9800D2F8A81058685C6C04F01C0C00FA0CF012
:102AA8000143C2F8A810D2E701207047070402408A
:102AB800F8FFFDBFCDCCCCCC00000240F8FBFDBF39
:102AC8000004024008B590F82530DBB2022B03D091
:102AD8000423C363012008BD0268136823F00E03B2
:102AE80013600268136823F001031360436C03F05A
:102AF8001C03016C012202FA03F34B6080F82520C5
:102B0800002380F82430836B13B198470020E2E754
:102B18000020E0E738B5036C196804682568436C41
:102B280003F01C0304229A400A4215D015F0040F42
:102B380012D0236813F0200F03D1236823F0040375
:102B48002360436C03F01C02016C042393404B6028
:102B5800036B03B1984738BD02229A400A421CD041
:102B680015F0020F19D0236813F0200F06D123683F
:102B780023F00A032360012380F82530436C03F017
:102B88001C02016C022393404B60002380F8243020
:102B9800C36A002BDFD09847DDE7082202FA03F367
:102BA8000B42D8D015F0080FD5D0236823F00E03B8
:102BB8002360436C03F01C03016C012202FA03F347
:102BC8004B60C26380F82520002380F82430436BD3
:102BD800002BC0D09847BEE7024B186800F4C060CD
:102BE800704700BF00700040B0F5007F0FD01F4B4A
:102BF8001B6803F4C063B3F5806F34D01B4A1368B5
:102C080023F4C06343F48063136000207047174BBC
:102C18001B6803F4C063B3F5007F20D0134A136820
:102C280023F4C06343F400731360114B1B68322212
:102C380002FB03F30F4AA2FB03239B0C013300E0C2
:102C4800013B0A4A526912F4806F01D0002BF7D178
:102C5800064B5B6913F4806F03D100207047002096
:102C68007047032070470020704700BF0070004085
:102C78000800002083DE1B43024A536843F4806344
:102C88005360704700700040074AD36823F4E0633C
:102C98001B041B0C000200F4E060034343F0BF6315
:102CA80043F40033D360704700ED00E000B5194BE2
:102CB800DB68C3F30223C3F1070CBCF1040F28BF80
:102CC8004FF0040C03F1040EBEF1060F18D9033BB4
:102CD8004FF0FF3E0EFA0CFC21EA0C0199400EFA67
:102CE80003F322EA0303194300280BDB0901C9B2E5
:102CF80000F1604000F5614080F800135DF804FBC6
:102D08000023E5E700F00F000901C9B2024B19548E
:102D1800F4E700BF00ED00E014ED00E0002807DB59
:102D280000F01F02400901239340024A42F8203074
:102D3800704700BF00E100E00138B0F1807F0BD29E
:102D48004FF0E0235861054AF02182F82310002053
:102D5800986107221A6170470120704700ED00E072
:102D68002DE9F04782B00546884617461E46FEF70D
:102D7800DFFC0A9B1B1A03EB0609FEF7D9FC824607
:102D88002B4B1B68C3F3CB3309FB03F301932B686D
:102D98009C6838EA04030CBF4FF0010C4FF0000C9C
:102DA800BC4540D0B6F1FF3FF1D0FEF7C1FCA0EB27
:102DB8000A0048450AD2B9F1000F07D0019A02B1BA
:102DC8004A46019B013B01939146E0E72A68536814
:102DD80023F0E00353606B68B3F5827F0BD0AB6AD6
:102DE800B3F5005F14D0012385F85D30002385F822
:102DF8005C30032018E0AB68B3F5004F02D0B3F5A0
:102E0800806FECD12A68136823F040031360E6E76B
:102E18002A68136823F4005313602A68136843F47C
:102E280000531360DFE7002002B0BDE8F08700BF61
:102E3800080000202DE9F04782B006460C461546EA
:102E48001F4600238DF80330FEF772FC0A9B1B1AFD
:102E580003EB0708FEF76CFC8146D6F800A0314B5F
:102E68001B6803EB8303C3EBC3031B0D08FB03F3CE
:102E7800019302E0B7F1FF3F12D133689B6803EA80
:102E8800040CAC454AD0B4F5C06FF3D1002DF1D194
:102E98009AF80C30DBB28DF803309DF80330E9E77F
:102EA800FEF746FCA0EB090040450AD2B8F1000F36
:102EB80007D0019A02B14246019B013B019390461B
:102EC800DBE73268536823F0E00353607368B3F5B7
:102ED800827F0BD0B36AB3F5005F14D0012386F864
:102EE8005D30002386F85C30032018E0B368B3F542
:102EF800004F02D0B3F5806FECD13268136823F02D
:102F080040031360E6E73268136823F40053136044
:102F18003268136843F400531360DFE7002002B0FF
:102F2800BDE8F0870800002070B582B004460D4661
:102F3800164600920B4600224FF4C051FFF77AFF65
:102F4800B0B900962B46002280212046FFF708FFE3
:102F5800A8B900962B4600224FF4C0612046FFF71F
:102F680069FF50B1236E43F020032366032004E079
:102F7800236E43F020032366032002B070BD236E46
:102F880043F0200323660320F7E700286AD010B532
:102F98000446436A33B94368B3F5827F05D00023FA
:102FA800C36102E00023036143610023A36294F834
:102FB8005D30002B4DD0022384F85D302268136801
:102FC80023F040031360E368B3F5E06F47D90022AC
:102FD800B3F5706F04D0B3F5E06F01D00023A3629E
:102FE800636803F48273A16801F404410B43216907
:102FF80001F002010B43616901F001010B43A16972
:1030080001F400710B43E16901F038010B43216AB7
:1030180001F080010B43A16A01F4005120680B43C1
:103028000360638B03F00403616A01F010010B4332
:10303800616B01F008010B43E16801F470610B4317
:10304800216813434B6000202066012384F85D301B
:1030580010BD84F85C302046FDF7EEFEABE74FF478
:103068008052B5E7012070472DE9F8431F46089DB7
:1030780090F85C30012B00F0648104468846914644
:10308800012380F85C30FEF753FB064694F85D3068
:10309800DBB26268012B0AD0B2F5827F40F038813A
:1030A800A268002A40F03D81042B40F03C81B8F131
:1030B800000F00F03A81B9F1000F00F03881002FBD
:1030C80000F0378194F85D30DBB2042B02D0052381
:1030D80084F85D3000232366C4F84090A4F8467055
:1030E800A4F84470C4F83880E787A787E3642365A9
:1030F800E368B3F5E06F01D8012F23D9226853683C
:1031080023F48053536023681A6812F0400F03D1E8
:103118001A6842F040021A60E368B3F5E06F58D9C4
:1031280063680BB1012F0BD1A26B23681288DA6098
:10313800A36B0233A363E38F9BB2013B9BB2E3878C
:10314800012731E02268536843F480535360DAE77B
:10315800A26B1288DA60A36B0233A363E38F9BB27E
:10316800013B9BB2E387002723689A6812F0010F9E
:1031780011D0B4F8462092B26AB1DA68236C1A808A
:10318800236C02332364B4F846309BB2013B9BB2F4
:10319800A4F846300127FEF7CBFA831BAB4203D3D2
:1031A800B5F1FF3F40F0C780E38F9BB22BB9B4F86D
:1031B80046309BB2002B00F0A18023689A6812F079
:1031C800020FD1D0E28F92B2002ACDD0002FCBD0FF
:1031D800BEE763680BB1012F0FD1E38F9BB2012BC0
:1031E8000DD9A26B23681288DA60A36B0233A3633C
:1031F800E38F9BB2023B9BB2E387012749E0A26BB6
:10320800236812781A73A36B0133A363E38F9BB20D
:10321800013B9BB2E387F0E7E28F92B2012A0CD917
:10322800A26B1288DA60A36B0233A363E38F9BB2AD
:10323800023B9BB2E38700273DE0A26B12781A732A
:10324800A36B0133A363E38F9BB2013B9BB2E3877C
:10325800002730E02268536843F480535360012705
:103268000DE0226C1B7B1370236C01332364B4F8CC
:1032780046309BB2013B9BB2A4F846300127FEF7CB
:1032880057FA801BA84202D3B5F1FF3F55D1002D54
:1032980055D0E38F9BB223B9B4F846309BB2002BCC
:1032A8002CD023689A6812F0020F04D0E28F92B2F1
:1032B8000AB1002FB0D123689A6812F0010FDED04E
:1032C800B4F8462092B2002AD9D0B4F8462092B277
:1032D800012AC6D9DA68236C1A80236C0233236466
:1032E800B4F846309BB2023B9BB2A4F84630B4F81F
:1032F80046309BB2012BADD90127C0E7324629469B
:103308002046FFF711FE20B120232366012000E0AC
:103318000220012384F85D30002384F85C30BDE886
:10332800F8830220F5E70220F3E70120F1E7012006
:10333800EFE70120EDE70320EBE70320E9E70320AF
:10334800E7E70220EBE7704730B585B0044602682E
:1033580051689368C3F3801013F0400F05D113F040
:10336800010F02D011F0400F69D113F0020F02D003
:1033780011F0800F67D1C3F3401513F0200F03D16C
:1033880010B913F4807F61D011F0200F5ED078B1AE
:1033980094F85D00C0B203285AD0206E40F00400B3
:1033A800206600200090D0680090906800900098F7
:1033B80065B1206E40F00100206600200290906800
:1033C8000290106820F040001060029A13F4807F89
:1033D80009D0236E43F00803236600230393236870
:1033E8009B680393039B236E002B2FD0226853689E
:1033F80023F0E0035360012384F85D3011F0030FDC
:103408002ED02268536823F003035360A36D4BB199
:10341800154A9A63A06DFFF755FB18B1236E43F068
:1034280040032366636D8BB10F4A9A63606DFFF7A3
:1034380049FB58B1236E43F04003236606E0E36C72
:103448002046984702E0236D2046984705B030BDD6
:1034580000230193D368019393680193019BF5E7D7
:103468002046FFF770FFF1E77534000808B5806A59
:103478000023A0F84630C387FFF765FF08BD2DE994
:10348800F843076801EBC10300EB8303DA6D5B6D5A
:103498009A4254D880460C469B1A01EBC10200EBB5
:1034A8008202926C9A4200D31A4602F103094FEA4B
:1034B800990913E006F103094FEA990904EBC405D9
:1034C80008EB8505B3B2E2B2E96C384600F069FE54
:1034D800EB6C3344EB64EB6D3344EB6507EB44135F
:1034E80003F510639B699BB24B4512D304EBC402EE
:1034F80008EB8202D16D536D99420AD24BB15B1A27
:1035080004EBC40208EB8202966C9E42D2D31E469C
:10351800D0E704EBC40008EB8008D8F85420D8F8AA
:103528005C309A420ED804F00F040123A340D7F868
:10353800344824EA0304C7F83448002000E0012096
:10354800BDE8F8830020FBE770B58AB0002800F0DA
:1035580097800546046890F8BD343BB3032385F88B
:10356800BD34E36B13F4807F01D100232B612868FD
:1035780000F09CFC2C4654F8106BEC460FCCACE8E1
:103588000F000FCCACE80F0094E803008CE80300B0
:103598002B1D0ECB304600F0FBFB044658B102232E
:1035A80085F8BD34012420460AB070BD80F8BC34CB
:1035B800FDF746FDD2E70021286800F074FE234697
:1035C80016E003EBC30205EB8202012182F83D10ED
:1035D80082F83C30A2F84430002182F8401091640F
:1035E800D16403EBC30205EB820251650133DBB200
:1035F80069688B42E5D316E004EBC40305EB83034B
:10360800002283F87D2283F87C4283F88022C3F865
:103618008822C3F88C2204EBC40305EB8303C3F8A8
:1036280094220134E4B2A142E6D82C4654F8106B37
:10363800EC460FCCACE80F000FCCACE80F0094E8D8
:1036480003008CE803002B1D0ECB304600F08AFCEB
:10365800044660B9002385F83830012385F8BD3465
:103668006B6A012B08D0286800F0DAFD9BE702237B
:1036780085F8BD34012496E7284600F04CFBF2E7B4
:10368800012490E77047000038B503681C6C03EB11
:10369800411303F530639D680B4A94420FD115F42A
:1036A800004F03D04FF400429A600BE015F0200F52
:1036B80001D020229A60C9B2FFF7E4FF02E0C9B244
:1036C800FFF7E0FF002038BD0A31544F70477047BC
:1036D80010B503681C6C03EB4113D3F8081B074AA9
:1036E800944207D903F5306311F4004F02D04FF428
:1036F80000429A60FFF7EBFF002010BD0A30544FDC
:1037080070477047704770477047704770477047F9
:1037180008B511F0800F0CD101F00F0101EBC101C8
:10372800890001F51E7101440431006800F0DAFCDB
:1037380008BD01F00F0101EBC101890038310144D6
:103748000431F2E72DE9F04F83B0044605682846B6
:1037580000F0A5FD10B103B0BDE8F08F0646206863
:1037680000F06CFD0028F6D005F50067BB68C3F3D0
:103778000D23C4F8FC34206800F060FD10F0020F3F
:1037880004D02268536903F002035361206800F0F3
:1037980055FD10F0100F14D02268936923F0100320
:1037A8009361D5F8208008F00F09C8F34343022B32
:1037B80069D0062B00F08D802268936943F01003CE
:1037C8009361206800F03AFD10F4002F40F09380D8
:1037D800206800F033FD10F4802F40F0FC80206852
:1037E80000F02CFD0028C0F26581206800F026FD5D
:1037F80010F4006F09D0BB6813F0010F40F072811C
:103808002268536903F400635361206800F016FDD1
:1038180010F0006F15D02268536903F000635361FC
:1038280094F8F434002B40F06181012184F8F414F9
:1038380023685B6DC3F38303C4F8F834204600F0B3
:103848007DFA206800F0FAFC10F4805F40F05281A5
:10385800206800F0F3FC10F4005F40F09E812068BF
:1038680000F0ECFC10F0080F40F0AF81206800F089
:10387800E5FC10F0800F00F0C281AB6923F08003F3
:10388800AB610126ABE147F6F07318EA030F93D05A
:103898004FEA181B4FEAC903019309EBC90A04EB65
:1038A8008A0AC8F30A12DAF88C12284600F08EFC4D
:1038B800CBF30A0BDAF88C325B44CAF88C32019BE2
:1038C8004B4404EB8303D3F89C325B44CAF89C3224
:1038D80072E7082204F2C441284600F077FCC8F3D6
:1038E8000A1809EBC90204EB8202D2F89C3243445D
:1038F800C2F89C3260E7206800F0A4FC8046B1461C
:1039080035E005EB49130122C3F8082B4946204648
:10391800FFF7BAFE3CE005EB49130822C3F8082B71
:1039280049462046FFF7D4FE35E009EBC90304EB0E
:10393800830393F87F32012B41D005EB4913022210
:10394800C3F8082B1AF0200F04D005EB49132022E6
:10395800C3F8082B1AF4005F05D005EB49134FF4A0
:103968000052C3F8082B09F101094FEA5808B8F1C9
:10397800000F3FF42DAF18F0010FF4D05FFA89FB68
:103988005946206800F06EFC824610F0010FB8D14D
:103998001AF0080FBFD11AF0100F04D005EB491325
:1039A8001022C3F8082B1AF0020FCBD06B6913F062
:1039B800800FBAD07B6843F480637B60B5E709EB7E
:1039C800C90304EB8303002283F87F22594620466B
:1039D800FFF79AFEB1E7206800F03CFC8046B1464C
:1039E8001BE009F00F03012101FA03F27B6B23EAC4
:1039F80002037B6305EB4913C3F8081959462046AF
:103A0800FFF764FE1AE01AF0020F30D11AF0800FA7
:103A18004BD109F101094FEA5808B8F1000F3FF4FA
:103A2800DEAE18F0010FF4D05FFA89FB5946206822
:103A380000F021FC824610F0010FD2D11AF0080FD5
:103A480004D005EB49130822C3F808291AF0100F0F
:103A580004D005EB49131022C3F808291AF0400FC7
:103A6800D1D005EB49134022C3F80829CBE74946D2
:103A7800284600F021FA09EBC90304EB830393F805
:103A88003F30012B05D005EB49130222C3F8082962
:103A9800BCE709EBC90304EB8303002283F83F204A
:103AA80059462046FFF731FEEDE749462046FFF725
:103AB800E6FCAEE77B6823F001037B6094F8F434FE
:103AC800012B08D02046FFF71EFE2268536903F039
:103AD8000043536189E6002184F8F414204600F07D
:103AE8002DF9F2E72046FFF70DFE89E62046FFF79D
:103AF80009FEA6E67B6823F001037B60102120689D
:103B080000F0DAF91AE005EB46134FF67F31C3F8F7
:103B18000819D3F8002922F40012C3F80029C3F8C1
:103B2800081BD3F8002B22F40012C3F8002BD3F89B
:103B3800002B42F00062C3F8002B01366368B342E1
:103B4800E1D8FB6943F00113FB61236BD3B1D7F8CC
:103B5800843043F00B03C7F884307B6C43F00B03CD
:103B68007B64D5F8003823F4FE63C5F8003804F206
:103B7800C441206800F0D8FB2268536903F48053DD
:103B8800536165E67B6943F4005343F02B037B6183
:103B98003B6943F00B033B61E3E7206800F0B4FBAB
:103BA800206800F091FAE0602668FEF74FFA0146B7
:103BB800227B304600F008F92046FFF7A2FD226874
:103BC800536903F40053536149E62046FFF798FD13
:103BD8002268536903F00803536147E601366368B6
:103BE800B3420CD906EBC60304EB830393F87F3288
:103BF800012BF3D1F1B22046FFF78AFDEEE72068EA
:103C080000F01CFB10F4801F27D1206800F016FB81
:103C180010F4001F5BD0012328E001366368B3422B
:103C28001DD905EB4613D3F8002906EBC60304EBB0
:103C3800830393F84030012BEFD1002AEDDA06EB2D
:103C4800C60304EB8303012283F83F2066F07F015B
:103C5800C9B22046FFF75CFDDFE70126DEE72268F0
:103C6800536903F480135361CFE7013362689A42C2
:103C780028D905EB4312D2F8001B03EBC30204EB6F
:103C8800820292F88022012AEFD10029EDDA01F4AC
:103C98008031D4F8FC2402F001029142E5D103EB13
:103CA800C30204EB8202012182F87F12AA6942F062
:103CB8008002AA616A6912F0800FD6D17B6843F44A
:103CC80000737B602268536903F400135361206812
:103CD80000F0B4FA10F0804F10D1206800F0AEFA6E
:103CE80010F0040F3FF437AD23685D6815F0040F3A
:103CF8000DD1226853682B4353602CE52046FFF70B
:103D080005FD2268536903F080435361E5E72046C7
:103D1800FFF7FDFCEDE7034602680121C0F8001536
:103D2800002083F8F404936943F000639361536DB2
:103D380043F0805343F00303536570477047000016
:103D480082B000230193019B01330193019A0F4B29
:103D58009A4215D80369002BF5DA00230193036909
:103D680043F001030361019B01330193019A074B5F
:103D78009A4208D8036913F0010FF4D1002000E03B
:103D8800032002B070470320FBE700BF400D03008B
:103D980084B010B504460DF10C0C8CE80E00C36815
:103DA80043F04003C360FFF7CBFF0C9B3BB9A36B09
:103DB80043F48033A363BDE8104004B07047A36B9D
:103DC80023F48033A363F6E7022A0AD00921C268E4
:103DD80022F47052C260C36843EA8123C3600020A2
:103DE8007047234B0B44234A93422FD9224B0B4451
:103DF800224A93422CD9A1F57403A3F51053204A03
:103E0800934227D9A1F18373A3F5E7431D4A93424F
:103E180022D31D4B0B441D4A93421FD91C4B0B4404
:103E28001C4A93421CD31C4B0B441C4A934219D383
:103E3800A1F1B773A3F55853194A934214D3194BF8
:103E48000B44194A934211D20721C0E70F21BEE75C
:103E58000E21BCE70D21BAE70C21B8E70B21B6E724
:103E68000A21B4E70921B2E70821B0E70621AEE745
:103E7800405327FFFF340C00401E1BFF3F420F003A
:103E88007F4F120020D6130060B6E5FE5FE31600F0
:103E980000D3CEFE40771B00C05BB3FEC09121006B
:103EA80020753800E05459FEE09C4100836823F0F7
:103EB800010383600020704782B000230193019BB7
:103EC80001330193019A0F4B9A4215D80369002BCD
:103ED800F5DA00230193890141F020010161019B7A
:103EE80001330193019A074B9A4208D8036913F0EA
:103EF800200FF4D1002000E0032002B07047032017
:103F0800FBE700BF400D030082B000230193019B33
:103F180001330193019A0E4B9A4213D80369002B7F
:103F2800F5DA0023019310230361019B0133019308
:103F3800019A074B9A4208D8036913F0100FF4D17D
:103F4800002000E0032002B070470320FBE700BF19
:103F5800400D0300D0F800381943C0F800180020BD
:103F68007047000084B02DE9F041044607A880E8B6
:103F78000E00002306E003F1400204EB8202002158
:103F8800516001330E2BF6D9119F8FBBD4F804383A
:103F980043F00203C4F80438A36B23F40013A363AB
:103FA800236843F040032360236843F080032360C1
:103FB8000023C4F8003E04F50065D4F80038C4F8BE
:103FC800003803212046FFF7C5FF10212046FFF7E0
:103FD80073FF804608B14FF001082046FFF794FFB1
:103FE80008B14FF0010800232B616B61EB610FE012
:103FF800A36B43F40013A363DAE7C3B94FF000607F
:10400800C2F8000900220A614FF67F328A60013344
:104018000799994210D904EB431202F51061D2F8BE
:1040280000090028E9DB0020C2F80009EAE74FF0A0
:104038009040C2F80009E5E700230AE0C3B14FF059
:10404800904CC2F800CB002202614FF67F328260AA
:104058000133994211D904EB431202F53060D2F8CA
:10406800006B002EEADB4FF0000CC2F800CBEAE749
:104078004FF0006CC2F800CBE5E72B6923F480739E
:104088002B610023A3616FF080436361A36943F050
:104098001003A361A2690B4B1343A3610D9B1BB1D2
:1040A800A36943F00803A361012F04D04046BDE88B
:1040B800F04104B07047A36943F0804343F0040320
:1040C800A361F3E700383C80D0F8083803F0060312
:1040D800022B05D0062B01D00F2070470220704715
:1040E8000220704710B483B0024600230193487839
:1040F80001280BD00B7802EB4313D3F8000B0028F0
:104108002DDB002003B05DF8044B70470B7802EB01
:104118004313D3F80049002C01DB0020F2E7D3F861
:10412800004944F00064C3F800490B7802EB4313DC
:10413800D3F8004944F08044C3F80049019B013397
:104148000193019C42F210739C42DBD80B7802EB7E
:104158004313D3F80039002BF0DB0020D2E7D3F863
:10416800000B40F00060C3F8000B0B7802EB431320
:10417800D3F8000B40F08040C3F8000B019B0133DB
:104188000193019842F21073984208D80B7802EB19
:104198004313D3F8003B002BF0DB0020B2E70120EB
:1041A800B0E710B503F1030E4FEA9E0E4FF0000C76
:1041B80008E000EB023303F5805351F8044B1C6010
:1041C8000CF1010CF445F4D3002010BD00B583B008
:1041D800844608464FEA920E02F00302002305E0E7
:1041E8000CF58051096840F8041B01337345F7D377
:1041F8009AB10CF5805CDCF8003001934FF0000CAC
:104208005FFA8CF3D900019BCB4000F8013B0CF11D
:10421800010C013A92B2002AF2D103B05DF804FB16
:10422800D0F8003E23F00303C0F8003ED0F804386D
:1042380043F00203C0F804380020704742698069DF
:1042480010407047D0F8183800F50060C069184071
:10425800000C7047D0F8183800F50060C0691840A5
:1042680080B2704700EB4111D1F8082B00F50060CF
:1042780040691040704710B4D0F81048D0F834386E
:1042880001F00F02D340DB01DBB2234300EB411006
:1042980000F51060806818405DF8044B704740696D
:1042A80000F00100704738B50546C36823F0C043E5
:1042B800C360012913D019BBC36843F08043C360AE
:1042C80000240120FDF73AFA01342846FFF7E7FFFA
:1042D80008B1312CF5D9322C14D0002038BDC36870
:1042E80043F00053C36000240120FDF727FA01348E
:1042F8002846FFF7D4FF0128EDD0312CF4D9EAE79E
:104308000120EBE70120E9E7D0F8003923F4FF6347
:1043180023F00703C0F80039D0F8043843F4807359
:10432800C0F8043800207047026C0F4B9A4203D93A
:10433800D0F8003B002B14DB0023C0F8103BD0F86A
:10434800103B43F40023C0F8103BD0F8103B43F077
:104358001803C0F8103BD0F8103B43F0C043C0F836
:10436800103B0020704700BF0A30544F034AD2F870
:10437800883043F47003C2F88830704700ED00E0DD
:104388000246037813F0010017D1137813F0040FD5
:1043980014D1137813F0010F05D1137813F0040F1B
:1043A80009D0002300E0002318463BB1137843F0FE
:1043B8000403137070470123F6E700207047034693
:1043C800027812F0040F07D1002210461AB11A78A9
:1043D8006FF382021A707047027812F0010F01D051
:1043E8000022F2E70122F0E78388C3F30A02C378C8
:1043F80003F00303022B1AD0032B35D0012B01D075
:1044080000207047022905D040F2FF33934204D3BD
:10441800012070474FF48063F8E74FF0E023D3F8AA
:10442800F03D13F0010F00D000BE002070470229B4
:1044380003D0402A0ED801207047B2F5007F27D05C
:104448004FF0E023D3F8F03D13F0010F00D000BE89
:10445800002070474FF0E023D3F8F03D13F0010F30
:1044680000D000BE00207047022904D040239342A8
:1044780004D3012070474FF48063F8E74FF0E0233E
:10448800D3F8F03D13F0010F00D000BE00207047B4
:104498000120704703460A4490B2814202D8B0EB2B
:1044A800430F03DB5B009BB2C01A80B2704730B584
:1044B80083B00546940803E051F8044B2C601C4671
:1044C800631E9BB2002CF7D112F0030201D103B096
:1044D80030BD0023019301A8FBF7BAFE019B2B60B6
:1044E800F5E72DE9F04782B006460F469DF82810FB
:1044F800B0F804C0ACEB03041FFA84FEA3EB0C0C69
:104508009444B0F80690C9F30E0A14FB0AF4A4B256
:104518001CFB0AFC1FFA8CF500680AFB030821B192
:10452800012916D002B0BDE8F087964506D30AFBEC
:1045380002F241463846FBF78BFEF3E72246414636
:104548003846FBF785FE2A4631683819FBF780FEA6
:10455800E8E7964507D31AFB02F292B2414638467D
:10456800FFF7A5FFDEE724F003091FFA89F94A4699
:1045780041463846FFF79BFFC84414F003042BD08C
:10458800C4F1040080B2A84228BF2846C0B2A5EBF7
:10459800000C1FFA8CF50023019301AB04E018F816
:1045A800012B03F8012B0C46611EC9B2002CF6D171
:1045B800316804E011F8010B03F8010B1046421EA4
:1045C800D2B20028F6D1019B3B60002DAAD02A4622
:1045D8003846FFF76CFFA5E73168F6E730B583B0DA
:1045E8009E46BDF81830B0F804C09E4510D3AEEB17
:1045F8000304A4B21CB3A44506D2F44510D8AEEB0C
:104608000C039BB243816446944210D314460EE0D7
:10461800AEEB03044FEA4C0515FA84F4A4B2E9E7BB
:104628000CEB0E039BB2EDE7A3EB0C039BB29C458E
:10463800FAD99DF81C2000922246FFF752FF204627
:1046480003B030BD30B583B00446B0F808C0458922
:10465800ADB2019300951FFA8CF3FFF7BFFF054633
:104668006189024689B2A088FFF714FF6081284655
:1046780003B030BD10B582B0940803E00C6840F870
:10468800044B1C46631E9BB2002CF7D112F00302A8
:1046980001D102B010BD0B68019301A9FBF7D8FD49
:1046A800F7E72DE9F04782B006460F469DF8281037
:1046B800B0F804C0ACEB03041FFA84FEA3EB0C0CA7
:1046C8009444B0F80690C9F30E0A14FB0AF4A4B295
:1046D8001CFB0AFC1FFA8CF500680AFB030821B1D1
:1046E800012916D002B0BDE8F087964506D30AFB2B
:1046F80002F239464046FBF7ABFDF3E7224639465E
:104708004046FBF7A5FD2A4639193068FBF7A0FD9E
:10471800E8E7964507D31AFB02F292B239464046BB
:10472800FFF7A8FFDEE724F003091FFA89F94A46D4
:1047380039464046FFF79EFFC84414F0030229D0CB
:10474800C2F10404A4B2AC4228BF2C46E4B2A5EBE3
:10475800040C1FFA8CF53B68019301AB04E013F8D5
:10476800012B08F8012B0A46511EC9B2002AF6D1BE
:10477800306804E013F8011B00F8011B1446621EA0
:10478800D2B2002CF6D1002DACD02A463946FFF71C
:1047980071FFA7E73068F6E72DE9F04383B091464B
:1047A800002A5BD0044688461F460689B6B241896E
:1047B80089B2C379DB0918D183888E420DD3751A63
:1047C800ADB2AB420FD95D1BADB24D4528BF4D46CA
:1047D800002D44D0A288334631E0751A590011FAE9
:1047E80085F5ADB2EDE70025EFE78588954209D854
:1047F800FFB9A2EB0509C388C3F30E0303FB0988BD
:104808000E46E5E78E420ED3731A9BB24B44B3EBC8
:10481800450F10DBA5EB090292B22846FFF73AFED6
:1048280006464D46D4E7731A6A0012FA83F39BB220
:10483800ECE70E46CCE74D46CAE79B1A9BB29A4274
:10484800FBD900972A4641462046FFF72AFF2A4609
:104858003146A088FFF71EFE208100E01546284655
:1048680003B0BDE8F083B2F5004F10D80160828034
:10487800C28863F30E02C280C3799DF8002062F3F8
:10488800C713C371002343810381012070470020AF
:1048980070470246808813899BB2528992B293422C
:1048A80005D39B1A9BB2984228BF184670479B1A9B
:1048B800420012FA83F39BB2F5E7818803899BB221
:1048C800428992B2934206D39B1A98B281428CBF16
:1048D8000020012070479B1A480010FA83F398B211
:1048E800F4E7828803899BB2408980B2834206D369
:1048F8001B1A9BB29A4208D9D31A98B270471B1A4E
:10490800500010FA83F39BB2F4E70020704708B513
:104918000023FFF797FE08BD08B50123FFF792FEB5
:1049280008BD70B504460E460589ADB2FFF7C5FF50
:1049380010B1E079C00916D0A2882B4601E09B1A75
:104948009BB29A42FBD92068E288C2F30E02314634
:1049580002FB0300FBF77CFC01222946A088FFF735
:1049680099FD2081012070BD08B50023FFF714FFD1
:1049780008BD08B50123FFF70FFF08BD00234381D9
:104988000381012070470000F0B585B005460E464A
:104998004378023B032B00F2C680DFE803F0029263
:1049A8002C506F4B1A786FF300021A701A786FF355
:1049B80041021A70002159701A7861F382021A7044
:1049C800684B1F6816B93B68084698472946381D42
:1049D800FFF7A7FF044616B93B68012098470CB1BA
:1049E80005B0F0BD4FF0E023D3F8F03D13F0010F10
:1049F800F6D000BEF4E75A4B1B7813F0010FEFD046
:104A0800574A137843F004031370564B1F6811B9C3
:104A18003B68002098472946381DFFF782FF044667
:104A280016B93B6801209847002CD9D14FF0E023F4
:104A3800D3F8F03D13F0010FD2D000BED0E7484BB9
:104A48001B7813F0010FCBD0454A13786FF382031C
:104A58001370444B1F6811B93B68002098472946DA
:104A6800381DFFF75EFF044616B93B6801209847DA
:104A7800002CB5D14FF0E023D3F8F03D13F0010F2F
:104A8800AED000BEACE7E31A03EB4303364A02EBB1
:104A9800C3030DE00134E4B2344B1B78A34212D3B4
:104AA800A342F0D9324B1B6804EB440203EBC20368
:104AB800002BEFD05B69002BECD069682878984709
:104AC800E8E70024E8E7264B1B7813F0040F87D0AB
:104AD800234A13786FF38203137000230193029320
:104AE80003932B788DF8043005238DF805301D4B82
:104AF8001D6816B92B680020984701A9281DFFF7E3
:104B080010FF044616B92B6801209847002C7FF443
:104B180067AF4FF0E023D3F8F03D13F0010F3FF4F7
:104B28005FAF00BE5CE70F4B1F6811B93B68002000
:104B380098472946381DFFF7F4FE044616B93B6826
:104B480001209847002C7FF44BAF4FF0E023D3F8B7
:104B5800F03D13F0010F3FF443AF00BE40E700BF44
:104B6800CC070020F8070020B85F0008C80700201D
:104B7800C407002038B5134B1D788B7803F07F03EA
:104B8800052B09D94FF0E023D3F8F03D13F0010FBE
:104B980000D000BE002038BD0C460B4B997820464B
:104BA800FFF722FC40B94FF0E023D3F8F03D13F0B3
:104BB800010FF0D000BEEEE72146284600F00EFDBA
:104BC800E9E700BF0C000020CC07002008B501F081
:104BD8007F00400000EBD1101830034B184400212F
:104BE8000730FFF7CDFB08BDCC07002008B501F062
:104BF8007F00400000EBD1101830034B184400210F
:104C08000730FFF7DCFB08BDCC07002070B51C4857
:104C1800007801F07F051B4C04EB450C0CEBD11C14
:104C28009CF81F4014F0010F09D04FF0E023D3F88F
:104C3800F03D13F0010F00D000BE002070BDCE097A
:104C4800104C04EB4504344494F81FC04CF0010C9C
:104C580084F81FC0183400F075FD0028EED1E37900
:104C68006FF30003E371E3796FF38203E3714FF0AD
:104C7800E023D3F8F03D13F0010FDFD000BEDDE7ED
:104C88000C000020CC07002038B5044600F11005C0
:104C98002846FFF726FE3F2800D838BDA178002017
:104CA800FFF794FF0028F8D02846FFF71AFE3F28A0
:104CB80007D9402304F1A802A1780020FFF7A6FF36
:104CC800EBE7A1780020FFF791FFE6E770B504460F
:104CD80000F11C052846FFF7DCFD08B9002070BD6F
:104CE80061780020FFF772FF08B90020F7E704F1A8
:104CF800E806402231462846FFF709FE054690B1EE
:104D08000346324661780020FFF780FF48B94FF02C
:104D1800E023D3F8F03D13F0010F00D000BE0020CF
:104D2800DDE72846DBE761780020FFF75FFF00201A
:104D3800D5E70000F0B583B04FF494720021134812
:104D4800FBF720FB00250DB103B0F0BD0F4F4FF46A
:104D5800947405FB04F404F1280104F11000002602
:104D680000960123402239443844FFF77CFD04F1C2
:104D7800680104F1180038440096012340223944A0
:104D88000430FFF770FD0135EDB2DCE7FC070020C9
:104D980070B5002505B170BD0B4E4FF4947405FB3A
:104DA80004F432190023335153609360D36004F143
:104DB80010003044FFF7E2FD18343444201DFFF79B
:104DC800DDFD0135EDB2E5E7FC0700202DE9F047F0
:104DD8004B79012B40F08680064615468B79012BCE
:104DE80040F08480CB79002B40F082800C78A3B20D
:104DF8000C446278242A06D1AB4204D822781344A2
:104E08009BB21444F5E7042A74D16279012A73D15C
:104E1800A279032A72D194F80780B8F1000F6FD1F4
:104E280042466AB14FF00009B9F1000F1CD0A278D0
:104E380089F8002094F800A053449FB2A24437E0B8
:104E4800174630494FF4947000FB0211497821B994
:104E58002C4900FB0211897811B10132D2B2E0E786
:104E6800284A00FB0729DFE74FF0E023D3F8F03D9D
:104E780013F0010F00D000BE002734E04FF0E0230C
:104E8800D3F8F03D13F0010F00D000BE00272AE050
:104E980089F801309AF80020D3199FB2924408F19A
:104EA80001085FFA88F89AF80020D3199FB2924453
:104EB8002379434512D9AF4210D89AF80130052B0F
:104EC800F1D151463046FFF755FE0028D6D09AF862
:104ED8000230DA09DCD189F80230DBE74846FFF70F
:104EE800D3FE00E000273846BDE8F0870027FAE740
:104EF8000027F8E70027F6E70027F4E70027F2E79E
:104F08000027F0E7FC07002000207047F8B50646A8
:104F18001F4600244CB1B4B9AB788B421DD06B78D6
:104F28008B422BD001242046F8BD264D4FF49473B4
:104F380003FB0455AB788B42EDD06B788B42EAD0FB
:104F48000134E4B2E6E74FF0E023D3F8F03D13F084
:104F5800010F00D000BE0024E5E7BAB205F1A801B0
:104F680005F11000FFF700FD174B13B12046AFF312
:104F780000802846FFF788FE0124D4E72846FFF77B
:104F8800A5FE08B10124CEE705F11C00FFF781FC5E
:104F9800A0B9AFB117F03F0F01D00124C3E769787A
:104FA8003046FFF713FE044608B90124BBE7002387
:104FB8001A4669783046FFF729FEB4E70124B2E7BC
:104FC8000124B0E7FC0700200000000010B40E4BDD
:104FD800020103EB00109C58017A0023184608E0F0
:104FE8000A4A02EB43125289904238BF10460133F5
:104FF800DBB28B42F4D301EB90035B000F339BB21F
:1050080063625DF8044B7047D05F000838090020E0
:10501800F0B5BDF814400001404D2D58084671B94F
:105028003F4F37F8121002EB40043E4E06EB0414D3
:1050380064898C4228BF0C46091B27F81210012AE4
:1050480020D005F530614FEA401E01EB401CDCF82A
:10505800106006F06046CCF81060DCF8106044EA96
:10506800C3443443CCF8104051F80E3043F00443A5
:1050780041F80E3051F80E3003F44023B3F5802F79
:1050880033D0F0BD05F51061460101EB401744EA45
:10509800C3433B618B5943F004438B518B5903F451
:1050A8004023B3F5802F0AD0002CEAD0D5F8342855
:1050B800012303FA00F00243C5F83428E1E702EBC4
:1050C8004002184B03EB0212137B012BECD1D5F8ED
:1050D80008288B5912F4807F04D04FF08052134374
:1050E8008B51E1E74FF00052F9E702EB40020D4B1C
:1050F80003EB0212137B012BC3D1D5F8082851F812
:105108000E3012F4807F05D04FF08052134341F8DF
:105118000E30B6E74FF00052F8E700BFD05F000846
:10512800340900203809002010B40001114B1C5824
:10513800900805E004F58050006841F8040B184613
:10514800431E9BB20028F5D1D0B212F003020ED054
:1051580004F5805423680B7010F0020F02D0C3F3DB
:1051680007204870022A02D9C3F307438B705DF801
:10517800044B7047D05F000810B50001124C24584A
:1051880001F1010C4FEA0C3E04EB0C3C980804E0DA
:1051980052F8040BCCF800000846411E89B20028DA
:1051A800F6D1D8B213F003030DD0117810F0020F26
:1051B80002D0507841EA0021022B02D9937841EAC3
:1051C800034144F80E1010BDD05F000838B5244BD9
:1051D800020103EB00109C58057AC02200212148E7
:1051E800FBF7D0F80023204A1370204A1370D4F834
:1051F800002822F4FE62C4F8002808E003F15802EF
:105208005201A15841F00061A1500133DBB2AB4219
:10521800F4D34FF00113C4F81C380923C4F8143828
:10522800C4F8103810356D000F356562104B102228
:105238001A80104BA362D4F8003923F00303C4F892
:105248000039084B40225A815A83D4F8103B43F066
:10525800C043C4F8103BA36943F44023A36138BD9D
:10526800D05F0008380900202609002030090020F6
:1052780024090020300110002DE9F04186B00746CE
:10528800374B010103EB00125D58167A00243EE00B
:10529800082205EB4813C3F8082B00230393049353
:1052A80005938DF80C7006238DF80D302D4B93E87F
:1052B800030006AB03E90300012103A8FFF764FB21
:1052C80005EB4813D3F8083B13F0010F1DD005EB8D
:1052D80048130122C3F8082B14B9234B1B88A3BB1E
:1052E800224B03EB4818B8F80820002303930493D3
:1052F80005938DF80C7007238DF80D308DF810404C
:105308000592012103A8FFF73FFB0134E4B2B44240
:1053180023D2D5F8183804F11002D34013F0010F46
:10532800F3D0A04605EB4413D3F8083B13F0080F5D
:10533800C6D013F4004FABD02A6C0D4B9A4201D85B
:105348000822A6E748F20802A3E7009313460022C2
:1053580021463846FFF75CFED7E706B0BDE8F08186
:10536800D05F0008280900203409002038090020EF
:105378000930544F2DE9F04103013F4AD5582C6AB2
:10538800C4F3434304F00F06C4F30A14013B052B8E
:1053980069D8DFE803F00A154D0C680305F5805558
:1053A8002A68364B1A602A685A60BDE8F08105EB16
:1053B8004615D5F8103B43F0C043C5F8103BF4E759
:1053C80005F580512E4B03EB46135B6813B3224659
:1053D8001846FFF7CEFA2A4B03EB46135B89A34224
:1053E800E3D905EB4615D5F8101BC1F31201244A81
:1053F80002EB461213895B1A9BB21381002ED4D19B
:10540800204A11881E4D05EB46155B1A2B81002397
:105418001380CAE7DFF868807701224658F807103A
:10542800FFF782FE58F80730234448F80730D2E7E0
:10543800002EBAD1002CB8D12A6C134B9A42B4D999
:1054480005EB4613D3F8083B48F220021342ACD0D0
:1054580013F0200F05D1012305EB4615C5F8083BCD
:10546800A3E72123F8E74FF0E023D3F8F03D13F04A
:10547800010F9AD000BE98E7D05F000828090020E5
:1054880038090020340900200930544F2DE9F04F25
:105498008BB003904D4B010103EB001253F801B0A0
:1054A80092F808A00BF510630293002424E044F05E
:1054B8008003474A02EB4812118B00220792089298
:1054C8000992039A8DF81C2007228DF81D208DF86B
:1054D80020300991012107A8FFF756FAB36813F0A5
:1054E800800F07D0DBF83438012202FA08F2049260
:1054F800134221D10134E4B2544564D2DBF81838A0
:10550800E34013F0010FF5D0A046029B03EB4416CD
:10551800B36813F0010FE1D00123B360002CC6D1AA
:105528002C4B5B88002BC2D0009301231A462146DE
:105538000398FFF76DFDD1E73369C3F3C94300272B
:10554800CDF814A09A4610E0214B03EB48192B46DE
:10555800D9F8102021460398FFF70EFED9F810302D
:105568002B44C9F810300137BFB257451CD23369F4
:105578009BB2174A02EB4812558B9D4228BF1D4625
:10558800B269154B03EA82039D420DD8104B03EB19
:10559800481358690028D7D008F101012A460BEBB7
:1055A8000131FFF7B9F9DEE7DDF814A03369C3F379
:1055B8001203002B9ED1DBF83438049A23EA020345
:1055C800CBF8343896E70BB0BDE8F08FD05F000811
:1055D8003809002034090020FCFF0300F0B5564BC1
:1055E800020103EB00109D5890F808E0887800F05D
:1055F8007F039E4547D9C609B1F804C0CCF30A0C0D
:1056080006EB43004D4C04EB0010A0F80AC08A7961
:1056180002730CF1030297083A46002E49D17244EE
:1056280052000F32686A904206D2454800881044FA
:10563800B0F5A07F31D86A6203F158025201A85828
:10564800C97801F00302920401F0030101292ED068
:105658004FF08051114306EB4302384C04EB021221
:1056680052890A43024342F4004203F158014901B6
:105678006A50D5F81C281033012000FA03F31343AD
:10568800C5F81C3808E04FF0E023D3F8F03D13F0DC
:10569800010F00D000BE0020F0BD4FF0E023D3F88A
:1056A800F03D13F0010F00D000BE0020F4E7002108
:1056B800D0E7234800883C186E6A3444B4F5A07FCC
:1056C8002ED8024492B21E480280C2F5A07242EA65
:1056D800074203F13F0005EB8000426003F14802F6
:1056E8005201A8589A0542F40042C97801F003040F
:1056F80042EA8442012C1DD04FF080510A434CEA03
:10570800020C40EA0C0003F148025201A850D5F8F7
:105718001C28012000FA03F31343C5F81C38BBE723
:105728004FF0E023D3F8F03D13F0010F00D000BE96
:105738000020B1E70021E1E7D05F00083809002028
:105748002409002070B582B08E4616461C4601F02A
:105758007F014FEADE12184B4FEA410C0CEBDE1CBE
:105768004FEA0C1503EB0C1C5E510023CCF80430F7
:10577800ACF80840B9B102EB41030F4D05EB031338
:105788005D89B4FBF5FC1FFA8CF305FB1C4C1FFA72
:105798008CF505B90CB901339BB20094FFF738FCBE
:1057A800012002B070BD054B23F81240009401237C
:1057B800FFF72EFCF4E700BF380900203409002069
:1057C800F0B585B006460301634AD458A3696569F4
:1057D8001D4015F4805F62D115F4005F1AD04FF4B4
:1057E80000536361D4F80838C3F3410213F0060F7D
:1057F8005BD0022A5BD10122002301930293039319
:105808008DF8046001218DF805108DF8082001A895
:10581800FFF7BAF815F4006F4BD1002D5BDB15F0DC
:10582800040F04D0676817F0040F65D1676015F09E
:10583800080F16D008236360484B1B78002B69D1EA
:10584800A36923F00803A361002301930293039340
:105858008DF8046003238DF80530012101A8FFF7B6
:1058680093F815F0100F12D0A36923F01003A36169
:105878003046FFF77FFD636813F0100FF8D1384BFF
:105888001B78002B59D1A36943F01003A36115F4C9
:10589800002F59D115F4802F5AD105B0F0BD4FF41F
:1058A80080536361FFF792FC96E70222A4E7002287
:1058B800A2E74FF40063636100230193029303930B
:1058C8008DF8046004238DF8053001210DEB0300E9
:1058D800FFF75AF8A1E74FF00043636100230193F3
:1058E800029303938DF8046005238DF80530012198
:1058F80001A8FFF749F892E7002301930293039365
:105908008DF8046002238DF80530012101A8FFF706
:105918003BF88BE7D4F80838C3F30D230022019233
:10592800029203928DF8046003228DF805200293F9
:10593800012101A8FFF728F886E73046FFF746FB64
:10594800074B00221A709EE73046FFF795FCA1E747
:105958003046FFF79BFDA0E7D05F00083009002024
:105968002609002010B504460168836802691343BC
:1059780042691343C269134308688E4A02401343BD
:105988000B602268536823F44053E1680B4353606B
:10599800A1692268884B9A4201D0236A1943936807
:1059A80023F430630B4393602368844A934210D0F6
:1059B800834A934221D0834A934237D0824A934202
:1059C8005CD0824A93426BD07B4A93427DD01022AE
:1059D8003AE002F55842D2F8882002F00302032A7E
:1059E80009D8DFE802F00204870601222CE004222D
:1059F8002AE0082228E0102226E002F5E632D2F852
:105A0800882002F00C020C2A0ED8DFE802F0070DFD
:105A18000D0D090D0D0D750D0D0D0B00002213E078
:105A2800042211E008220FE010220DE002F5E43212
:105A3800D2F8882002F03002202A5FD01AD8002A33
:105A48005ED0102A5ED104225B498B4276D0E06991
:105A5800B0F5004F00F0A380082A00F20E81DFE8BD
:105A680012F0DD00F300DB000C01F6000C010C0164
:105A78000C01F900302A47D10822E5E702F5E232A5
:105A8800D2F8882002F0C002802A3FD004D8FAB3A6
:105A9800402A3FD10422D7E7C02A3DD10822D3E7C4
:105AA80002F5E032D2F8882002F44072B2F5007FA5
:105AB80034D005D8A2B3B2F5807F33D10422C3E72E
:105AC800B2F5407F30D10822BEE702F5C832D2F8DD
