:020000040800F2
:1000000000800120C96F0008611500086315000811
:100010006515000867150008691500080000000054
:100020000000000000000000000000006B15000848
:100030006D150008000000006F150008711500081C
:10004000197000081970000819700008197000086C
:10005000197000081970000819700008197000085C
:10006000197000081970000819700008197000084C
:1000700079150008891500089915000819700008FD
:10008000197000081970000819700008197000082C
:10009000197000081970000819700008197000081C
:1000A000197000081970000819700008197000080C
:1000B00019700008197000081970000819700008FC
:1000C000197000081970000819700008A9150008B7
:1000D000B915000819700008197000081970000897
:1000E00019700008197000081970000819700008CC
:1000F00019700008197000081970000819700008BC
:1001000019700008197000081970000819700008AB
:10011000197000081970000819700008197000089B
:10012000197000081970000819700008197000088B
:10013000197000081970000819700008197000087B
:10014000197000081970000819700008F16D000896
:10015000197000081970000819700008197000085B
:10016000197000081970000819700008197000084B
:1001700019700008197000081970000800000000CC
:08018000197000081970000855
:1001C0000348044B834202D0034B03B118477047E6
:1001D00030000020300000200000000005480649E3
:1001E0000B1AD90F01EBA301491002D0034B03B145
:1001F0001847704730000020300000200000000049
:1002000010B5064C237843B9FFF7DAFF044B13B15E
:100210000448AFF300800123237010BD300000209C
:10022000000000001C70000808B5044B1BB1044915
:100230000448AFF30080BDE80840CFE700000000AD
:10024000340000201C70000870B50D4E0D4D761B5B
:10025000B61006D0002455F8043B01349847A64256
:10026000F9D1094E094D761B06F0D8FEB61006D01E
:10027000002455F8043B01349847A642F9D170BDDB
:100280006071000860710008647100086071000806
:10029000844641EA000313F003036DD1403A41D391
:1002A00051F8043B40F8043B51F8043B40F8043B50
:1002B00051F8043B40F8043B51F8043B40F8043B40
:1002C00051F8043B40F8043B51F8043B40F8043B30
:1002D00051F8043B40F8043B51F8043B40F8043B20
:1002E00051F8043B40F8043B51F8043B40F8043B10
:1002F00051F8043B40F8043B51F8043B40F8043B00
:1003000051F8043B40F8043B51F8043B40F8043BEF
:1003100051F8043B40F8043B51F8043B40F8043BDF
:10032000403ABDD2303211D351F8043B40F8043B7F
:1003300051F8043B40F8043B51F8043B40F8043BBF
:1003400051F8043B40F8043B103AEDD20C3205D38F
:1003500051F8043B40F8043B043AF9D2043208D087
:10036000D2071CBF11F8013B00F8013B01D30B88F9
:1003700003806046704700BF082A13D38B078DD0D7
:1003800010F003038AD0C3F10403D21ADB071CBFA9
:1003900011F8013B00F8013B80D331F8023B20F813
:1003A000023B7BE7043AD9D3013A11F8013B00F84C
:1003B000013BF9D20B7803704B7843708B788370D4
:1003C00060467047830730B548D0541E002A3FD09E
:1003D000CAB2034601E0013C3AD303F8012B9D0762
:1003E000F9D1032C2DD9CDB245EA05250F2C45EACC
:1003F000054536D9A4F1100222F00F0C03F1200EAE
:10040000E6444FEA121C03F1100242E9045542E9A6
:10041000025510327245F8D10CF1010214F00C0FA4
:1004200003EB021204F00F0C13D0ACF1040323F021
:1004300003030433134442F8045B9342FBD10CF0F2
:1004400003042CB1CAB21C4403F8012B9C42FBD11B
:1004500030BD64461346002CF4D1F9E70346144638
:10046000BFE71A46A446E0E70000000000000000D5
:10047000000000000000000000000000000000007C
:1004800090F800F06DE9024520F007016FF0000CD4
:1004900010F0070491F820F040F049804FF000047C
:1004A0006FF00700D1E9002391F840F000F1080057
:1004B00082FA4CF2A4FA8CF283FA4CF3A2FA8CF38F
:1004C0004BBBD1E9022382FA4CF200F10800A4FAF6
:1004D0008CF283FA4CF3A2FA8CF3E3B9D1E904234A
:1004E00082FA4CF200F10800A4FA8CF283FA4CF381
:1004F000A2FA8CF37BB9D1E9062301F1200182FA3B
:100500004CF200F10800A4FA8CF283FA4CF3A2FA40
:100510008CF3002BC6D0002A04BF04301A4612BA4E
:10052000B2FA82F2FDE8024500EBD2007047D1E951
:10053000002304F00305C4F100004FEAC50514F0E0
:10054000040F91F840F00CFA05F562EA05021CBFB1
:1005500063EA050362464FF00004A9E753B94AB9BC
:10056000002908BF00281CBF4FF0FF314FF0FF30BB
:1005700000F074B9ADF1080C6DE904CE00F006F896
:10058000DDF804E0DDE9022304B070472DE9F0470F
:10059000089D04468E46002B4DD18A42944669D967
:1005A000B2FA82F252B101FA02F3C2F1200120FA4A
:1005B00001F10CFA02FC41EA030E94404FEA1C4898
:1005C000210CBEFBF8F61FFA8CF708FB16E341EA94
:1005D000034306FB07F199420AD91CEB030306F11A
:1005E000FF3080F01F81994240F21C81023E63443B
:1005F0005B1AA4B2B3FBF8F008FB103344EA0344DF
:1006000000FB07F7A7420AD91CEB040400F1FF33F3
:1006100080F00A81A74240F207816444023840EA30
:100620000640E41B00261DB1D4400023C5E9004369
:100630003146BDE8F0878B4209D9002D00F0EF80EC
:100640000026C5E9000130463146BDE8F087B3FA1F
:1006500083F6002E4AD18B4202D3824200F2F98007
:10066000841A61EB030301209E46002DE0D0C5E90A
:10067000004EDDE702B9FFDEB2FA82F2002A40F056
:100680009280A1EB0C014FEA1C471FFA8CFE012659
:10069000200CB1FBF7F307FB131140EA01410EFBFD
:1006A00003F0884208D91CEB010103F1FF3802D2A4
:1006B000884200F2CB804346091AA4B2B1FBF7F09E
:1006C00007FB101144EA01440EFB00FEA64508D9C1
:1006D0001CEB040400F1FF3102D2A64500F2BB80FE
:1006E0000846A4EB0E0440EA03409CE7C6F120074D
:1006F000B34022FA07FC4CEA030C20FA07F401FA93
:1007000006F31C43F9404FEA1C4900FA06F3B1FB1B
:10071000F9F8200C1FFA8CFE09FB181140EA014180
:1007200008FB0EF0884202FA06F20BD91CEB01011D
:1007300008F1FF3A80F08880884240F28580A8F175
:1007400002086144091AA4B2B1FBF9F009FB1011C7
:1007500044EA014100FB0EFE8E4508D91CEB010165
:1007600000F1FF346CD28E456AD90238614440EA08
:100770000840A0FB0294A1EB0E01A142C846A64688
:1007800056D353D05DB1B3EB080261EB0E0101FA11
:1007900007F722FA06F3F1401F43C5E9007100266E
:1007A0003146BDE8F087C2F12003D8400CFA02FCC4
:1007B00021FA03F3914001434FEA1C471FFA8CFED4
:1007C000B3FBF7F007FB10360B0C43EA064300FBC4
:1007D0000EF69E4204FA02F408D91CEB030300F162
:1007E000FF382FD29E422DD9023863449B1B89B219
:1007F000B3FBF7F607FB163341EA034106FB0EF3A2
:100800008B4208D91CEB010106F1FF3816D28B424E
:1008100014D9023E6144C91A46EA004638E72E461A
:10082000284605E70646E3E61846F8E64B45A9D212
:10083000B9EB020864EB0C0E0138A3E74646EAE781
:10084000204694E74046D1E7D0467BE7023B61442F
:1008500032E7304609E76444023842E7704700BF98
:100860002DE9F04F8DB000240794089409940A9460
:100870000B94AD4BDA6C42F01002DA64DA6C02F0E1
:1008800010020192019ADA6C42F00402DA64DA6C26
:1008900002F004020292029ADA6C42F08002DA64F8
:1008A000DA6C02F080020392039ADA6C42F00102E1
:1008B000DA64DA6C02F001020492049ADA6C42F013
:1008C0000202DA64DA6C02F002020592059ADA6C2E
:1008D00042F00802DA64DB6C03F008030693069B1F
:1008E000924F224641F60961384602F01CFC22462E
:1008F00020214FF0904002F016FCDFF838822246AB
:100900000C21404602F00FFCDFF82CA222464FF4E7
:100910000061504602F007FC22468021844802F024
:1009200002FCF42307930226089609944FF003096A
:10093000CDF828900D230B9307A9384602F0ECFA66
:10094000082307930125089509940A9607A93846B4
:1009500002F0E2FA4FF4105307934FF4901BCDF8D6
:1009600020B0099407A9504602F0D6FA40F2C733E6
:1009700007930894099407A9504602F0CDFA38234A
:100980000793089609940A940B230B9307A95046E2
:1009900002F0C2FA072307930894099507A94FF0BC
:1009A000904002F0B9FA082307930894099607A922
:1009B0004FF0904002F0B0FA10230793CDF820B02A
:1009C000099407A94FF0904002F0A6FA202307935C
:1009D000089509940A9407A94FF0904002F09CFAF8
:1009E0004FF233230793089609940A940B230B9331
:1009F00007A9404602F090FA042307930895099549
:100A0000CDF8289007A9404602F086FA4FF480738B
:100A100007930894099507A9384602F07DFA41F634
:100A200001630793089509940A9407A9384602F0D0
:100A300073FA4FF440630793122308930994CDF897
:100A4000289004230B9307A9404602F065FA4FF45F
:100A50007F430793089609940A940B230B9307A9E5
:100A6000334802F059FA4FF401430793089609946A
:100A70000A940B230B9307A94FF0904002F04CFA15
:100A80004FF4007307930894099407A94FF090401E
:100A900002F042FA4FF4E053079308960994CDF818
:100AA00028900A230B9307A94FF0904002F034FAE4
:100AB0004FF400630793089509940A9407A95046D8
:100AC00002F02AFA05230793CDF820B0099407A96C
:100AD000174802F021FA8023079308950994CDF86E
:100AE000289007A9124802F017FA082307930895DF
:100AF00009940A9407A9404602F00EFA4FF4807355
:100B00000793CDF820B0099407A9404602F004FAF3
:100B10000796CDF820B0099407A9384602F0FCF9F1
:100B20000DB0BDE8F08F00BF00100240001000487B
:100B3000000C0048000400480008004800B583B0DD
:100B4000124B9A6C42F001029A649B6C03F0010311
:100B50000193019B002211460C2002F021FC0C2085
:100B600002F056FC002211460D2002F019FC0D2067
:100B700002F04EFC002211460E2002F011FC0E2065
:100B800002F046FC03B05DF804FB00BF0010024019
:100B9000024B4FF47A721A60704700BF9C0000202D
:100BA000014BFA221A6070479C000020024B40F66D
:100BB000C4121A60704700BF9C00002008B503F003
:100BC0007DFD20B14FF47A72024B1A6008BDFA2203
:100BD000FAE700BF9C000020F0B585B0054603E0B1
:100BE00003A9002004F028FC0021084604F010FCB2
:100BF0000028F5D1002435E00123A3401A43494BD6
:100C00001A8090238DF8083005EB450304EB83032D
:100C100018338DF809307F238DF80A30032302AA98
:100C20000021084604F028FC1BE023B93D4B1B883B
:100C30002341012B5CD03C4B1B68AB4211D080227E
:100C40008DF8042003EB430304EB830318338DF882
:100C5000053000208DF80600032301AA014604F0A8
:100C60000BFC01340B2C58DC304B1B88234113F058
:100C7000010304D02B4A128852FA04F1BCD0002B95
:100C8000D3D0284A12882241012ACED1264B1B6894
:100C9000AB42E6D080228DF80420E6B203EB43039A
:100CA00006EB830318338DF8053000278DF80670A6
:100CB000032301AA3946384604F0DEFB0123A34092
:100CC000184A11880B43138090238DF8083005EBE8
:100CD000450306EB830618368DF809607F238DF8EF
:100CE0000A30032302AA3946384604F0C5FBB8E7A8
:100CF00000200C4B188080238DF8043005EB450351
:100D000004EB830318338DF805308DF806000323B8
:100D100001AA014604F0B0FBA3E7034B1D6005B038
:100D2000F0BD00BF90000020180300208E000020BE
:100D30000023164A13800B2B27DC10B412E003F1BA
:100D40008042063A51F82220B2F5167F07D90122D7
:100D50009A400E4CB4F800C042EA0C0222800133E3
:100D60000B2B0FDC052BEADC50F82320B2F5167FA5
:100D7000F5D901229A40054CB4F800C042EA0C02B1
:100D80002280ECE75DF8044B704770478E0000202E
:100D900000230B2B00F3328110B40BE003F1804CE5
:100DA000ACF1060C51F82C40B4F5167F0BD801338A
:100DB0000B2B07DC052BF1DC50F82340B4F5167F34
:100DC000F5D900E00C232ABB002B00F09D80012BFD
:100DD00000F09E80022B00F09D80032B00F09C8091
:100DE000042B00F09B80052B00F09A80062B00F06E
:100DF0009980072B00F09880082B00F09780092B32
:100E000000F096800A2B00F095800B2B00F0948068
:100E100000207AE0012A29D0022A41D0032A59D0A1
:100E2000002B00F0D380012B00F0D280022B00F0C9
:100E3000D180032B00F0D080042B00F0CF80052B55
:100E400000F0CE80062B00F0CD80072B00F0CC8088
:100E5000082B00F0CB80092B00F0CA800A2B00F091
:100E6000C9800B2B00F0C88000204EE0002B65D01D
:100E7000012B65D0022B65D0032B65D0042B65D0E8
:100E8000052B65D0062B65D0072B65D0082B65D0C8
:100E9000092B65D00A2B65D00B2B65D0002034E0E0
:100EA000002B63D0012B63D0022B63D0032B63D0C4
:100EB000042B63D0052B63D0062B63D0072B63D0A4
:100EC000082B63D0092B63D00A2B63D00B2B63D084
:100ED00000201AE0002B61D0012B61D0022B61D0E1
:100EE000032B61D0042B61D0052B61D0062B61D080
:100EF000072B61D0082B61D0092B61D00A2B61D060
:100F00000B2B61D0002000E003205DF8044B7047FC
:100F10000720FAE70B20F8E70F20F6E71320F4E7A5
:100F20001720F2E71B20F0E71F20EEE72320ECE775
:100F30002720EAE72B20E8E72F20E6E73620E4E742
:100F40003A20E2E73E20E0E74220DEE74620DCE709
:100F50004A20DAE74E20D8E75220D6E75620D4E7D9
:100F60005A20D2E75E20D0E76220CEE76920CCE7A6
:100F70006D20CAE77120C8E77520C6E77920C4E76D
:100F80007D20C2E78120C0E78520BEE78920BCE73D
:100F90008D20BAE79120B8E79520B6E79C20B4E70A
:100FA000A020B2E7A420B0E7A820AEE7AC20ACE7D1
:100FB000B020AAE7B420A8E7B820A6E7BC20A4E7A1
:100FC000C020A2E7C420A0E7C8209EE7CF209CE76E
:100FD000D3209AE7D72098E7DB2096E7DF2094E735
:100FE000E32092E7E72090E7EB208EE7EF208CE705
:100FF000F3208AE7F72088E7FB2086E70C232ABB4B
:10100000002B00F09D80012B00F09C80022B00F053
:101010009B80032B00F09A80042B00F09980052B15
:1010200000F09880062B00F09780072B00F0968048
:10103000082B00F09580092B00F094800A2B00F01B
:1010400093800B2B00F0928000207047012A29D05A
:10105000022A41D0032A59D0002B00F0D180012B65
:1010600000F0D080022B00F0CF80032B00F0CE8068
:10107000042B00F0CD80052B00F0CC80062B00F077
:10108000CB80072B00F0CA80082B00F0C980092B09
:1010900000F0C8800A2B00F0C7800B2B00F0C68040
:1010A00000207047002B63D0012B63D0022B63D04C
:1010B000032B63D0042B63D0052B63D0062B63D0A6
:1010C000072B63D0082B63D0092B63D00A2B63D086
:1010D0000B2B63D000207047002B61D0012B61D017
:1010E000022B61D0032B61D0042B61D0052B61D082
:1010F000062B61D0072B61D0082B61D0092B61D062
:101100000A2B61D00B2B61D000207047002B5FD0E1
:10111000012B5FD0022B5FD0032B5FD0042B5FD05D
:10112000052B5FD0062B5FD0072B5FD0082B5FD03D
:10113000092B5FD00A2B5FD00B2B5FD000207047AC
:1011400003207047072070470B2070470F2070471F
:1011500013207047172070471B2070471F207047CF
:1011600023207047272070472B2070472F2070477F
:10117000362070473A2070473E2070474220704723
:10118000462070474A2070474E20704752207047D3
:10119000562070475A2070475E2070476220704783
:1011A000692070476D207047712070477520704727
:1011B000792070477D2070478120704785207047D7
:1011C000892070478D207047912070479520704787
:1011D0009C207047A0207047A4207047A82070472B
:1011E000AC207047B0207047B4207047B8207047DB
:1011F000BC207047C0207047C4207047C82070478B
:10120000CF207047D3207047D7207047DB2070472E
:10121000DF207047E3207047E7207047EB207047DE
:10122000EF207047F3207047F7207047FB2070478E
:1012300072B6FEE708B50F480F4B03604FF4827398
:101240004360002383604FF4E062C2600361436146
:101250004FF4007282612022C261036243628362A2
:101260000722C2620363436302F009FA00B908BDB2
:10127000FFF7DEFFCC0100200030014008B5114827
:10128000114B0360114B4360002383600122C26055
:10129000036143618361C361036200F03AFC50B9AA
:1012A0000021084800F052FD38B90021054800F03F
:1012B0007BFD20B908BDFFF7BBFFFFF7B9FFFFF7C4
:1012C000B7FF00BF7801002000540040EC9C901054
:1012D00008B50F480F4B03604FF48273436000233F
:1012E00083604FF4E062C260036143614FF40072B7
:1012F0008261C36180220262436283620722C2620A
:101300000363436302F0BBF900B908BDFFF790FF28
:10131000300200200038004008B50B480B4B03603A
:101320004FF4E133436000238360C36003610C2208
:1013300042618361C3610362436205F01AFD00B933
:1013400008BDFFF775FF00BF940200200044004075
:101350002DE9F04782B000F07BFD05F04FFDFFF76F
:101360007FFAFFF7EBFBFFF765FFFFF787FFFFF75C
:10137000AFFFFFF7D1FF02F081FC714B01241C701D
:1013800080225A7000279F706E4A102313704FF40A
:101390007A730093234658216B4800F019FC6B4D7B
:1013A00022464FF48051284601F0BDFE22464FF4FC
:1013B0000061284601F0B7FEB846B946022676E03D
:1013C0004FF00109042686E04FF00108002698E05E
:1013D000230163F07F03DFF868A18AF801305B4DD9
:1013E00000224FF40061284601F09DFE584F4FF453
:1013F0007A73009303233A465146564802F0AEF9F9
:101400007B781B0203F44073BA781343524A42F8C4
:10141000243001224FF40061284601F084FE01349B
:10142000072CD5DD002427E0230163F07F03DFF8DC
:1014300010A18AF80130454D00224FF48051284612
:1014400001F071FE424F4FF47A73009303233A4642
:101450005146404802F082F97B781B0203F4407346
:10146000BA7813433D4A42F8243001224FF48051A8
:10147000284601F058FE0134072CD5DD4FF4807169
:10148000324801F049FE002845D12E4C002323703C
:10149000324632493048FFF77BFC60704FF47A7374
:1014A0000093022322465821274800F091FB002197
:1014B0004FF0FF3003F036FD02214FF0904001F075
:1014C0002BFE40B9B9F1000F05D10136042E3FF7CC
:1014D00077AF4FF0010902214FF0904001F01CFE60
:1014E00008B14FF0000904214FF0904001F014FEC4
:1014F00038B9B8F1000F04D1013E3FF565AF4FF0A8
:10150000010804214FF0904001F006FE08B14FF0B1
:101510000008002484E70B4A0023137053704FF433
:101520007A73009302235821074800F051FB0B49BE
:101530000948FFF7FDFB3046FFF74EFBB7E700BF5A
:10154000980000208C000020780100200010004846
:1015500094000020CC0100204C0000206C000020F2
:10156000FEE7FEE7FEE7FEE7FEE7704770477047DD
:1015700008B500F083FC08BD08B5024801F084FE00
:1015800008BD00BFA000002008B5024801F07CFEA5
:1015900008BD00BFE800002008B5024801F074FE55
:1015A00008BD00BF3001002008B5024802F046FA2D
:1015B00008BD00BFCC01002008B5024802F03EFA89
:1015C00008BD00BF3002002082B00A4B1A6E42F004
:1015D00001021A661A6E02F001020092009A9A6DD8
:1015E00042F080529A659B6D03F080530193019BFA
:1015F00002B070470010024010B5AAB004460021A6
:1016000025912691279128912991882203A8FEF7F8
:10161000D9FE2268174B9A4201D02AB010BD402350
:10162000039303A801F038FA08BB134CE36C43F0B2
:101630000203E364E36C03F002030193019BC02304
:10164000259312232693002327930323289304230F
:10165000299325A9094801F05FFCA36D43F4001309
:10166000A365A36D03F400130293029BD5E7FFF774
:10167000DFFDDAE70054004000100240000400489B
:1016800010B58AB004460023059306930793089388
:10169000099303684F4A934204D04F4A934259D06A
:1016A0000AB010BD4D4B1A6E42F480521A661A6E83
:1016B00002F480520192019ADA6C42F01002DA646C
:1016C000DB6C03F010030293029B4FF4604305931D
:1016D00002230693032308930523099305A9404891
:1016E00001F01AFC3F48404B036001234360102384
:1016F00083600023C3608022026143618361C36110
:10170000036201F015FDF8B9364B63659C623748FA
:10171000374B03600123436000238360C360802252
:10172000026143618361C361036201F001FD70B92D
:101730002E4BA3659C6200221146232001F030FE4F
:10174000232001F065FEABE7FFF772FDDCE7FFF752
:101750006FFDEDE7214B9A6D42F480429A659A6DD8
:1017600002F480420392039ADA6C42F00802DA64CF
:10177000DB6C03F008030493049B1A2305930223F4
:101780000693032308930523099305A9194801F03B
:10179000C3FB1948194B0360012343600023836096
:1017A000C3608022026143618361C361036201F00F
:1017B000BFFC58B9104BA3659C620022114624203F
:1017C00001F0EEFD242001F023FE69E7FFF730FD74
:1017D000F0E700BF00300140003800400010024038
:1017E00000100048E800002030000240A000002067
:1017F0001C000240000C0048300100204400024060
:1018000010B5AAB004460021259126912791289170
:101810002991882203A8FEF7D5FD2268174B9A422A
:1018200001D02AB010BD0223039303A801F034F9BC
:1018300008BB134B9A6D42F400329A659A6D02F41C
:1018400000320192019ADA6C42F00802DA64DB6C31
:1018500003F008030293029B60232593022326933F
:1018600001232793032328930723299325A90548B8
:1018700001F052FBD5E7FFF7DBFCDAE7004400405C
:1018800000100240000C004803689A6912F0020F31
:1018900001D000229A6203689A6912F0010F03D105
:1018A0009A6942F001029A61704710B4019CC1F339
:1018B000090141EA02411943214321F00041026834
:1018C0005368640D04F4806444F07F7444F4583425
:1018D00044F47F7444F0030423EA04042143516078
:1018E0005DF8044B70472DE9F041044603689F6999
:1018F00017F010074CD00E4690461022DA610025F2
:101900002368986910F0200F3BD1002D39D1B6F132
:10191000FF3FF5D000F0BEFAA0EB0800B04201D8BE
:10192000002EEDD121684B6803F4804394F84220E7
:10193000D2B2886910F4004F02D00BB9202A18D116
:1019400023689B6913F0200FDAD100F0A3FAA0EB13
:1019500008001928F4D9636C43F020036364202342
:1019600084F84130002384F8423084F84030012567
:10197000E6E74B6843F480434B6000F08BFA804607
:10198000DEE7002D40D12022DA610427012500E0A6
:1019900000252268936913F4807F05D047F0010782
:1019A0004FF48071D161012513F4806F06D047F0A8
:1019B000080722684FF48061D161012513F4007F8C
:1019C00024D047F0020723684FF40072DA61012542
:1019D0002046FFF759FF2268536823F0FF7323F472
:1019E0008B3323F4FF7323F001035360636C1F43B5
:1019F0006764202384F84130002384F8423084F85F
:101A000040302846BDE8F0810427C2E7002DF8D019
:101A1000DEE770B504460D46164623689B6913F051
:101A2000020F1DD1324629462046FFF75CFFC8B998
:101A3000B5F1FF3FF1D000F02DFA801BA84201D88C
:101A4000002DEAD1636C43F020036364202384F803
:101A50004130002384F8423084F84030012000E017
:101A6000002070BD0120FCE72DE9F04106468846C4
:101A700017461D463468A46938EA04030CBF4FF0CA
:101A8000010C4FF0000CBC4518D1B5F1FF3FF1D06F
:101A900000F000FA069BC01AA84201D8002DE9D137
:101AA000736C43F020037364202386F841300023D5
:101AB00086F8423086F84030012000E00020BDE882
:101AC000F08170B505460C4616462B689B6913F0ED
:101AD000200F1AD1324621462846FFF704FFB0B93D
:101AE00000F0D8F9801BA04201D8002CEDD16B6C1E
:101AF00043F020036B64202385F84130002385F8F0
:101B0000423085F84030012070BD0020FCE7012004
:101B1000FAE7002859D010B5044690F84130002B60
:101B200043D0242384F841302268136823F0010352
:101B300013606368226823F07063136122689368FE
:101B400023F400439360E368012B33D0A368226839
:101B500043F404439360E368022B31D02268536856
:101B600043F0007343F4004353602268D36823F4C6
:101B70000043D360236962691343A169226843EA81
:101B80000123D360E369216A22680B431360226852
:101B9000136843F00103136000206064202384F87D
:101BA0004130206384F8420010BD80F84030FFF7D8
:101BB00023FDB6E7A368226843F400439360CAE7B5
:101BC00023684FF400625A60C8E7012070470000A4
:101BD0002DE9F04782B00F460A9E90F84110C9B235
:101BE000202940F0A38004469046994690F8403062
:101BF000012B00F09F804FF0010A80F840A000F018
:101C000049F905460090192352464FF400412046F9
:101C1000FFF72AFF002840F08F80212384F841300D
:101C2000102384F8423000236364C4F82480A4F8AD
:101C30002A906363638D9BB2FF2B0AD9FF22228512
:101C4000414B00934FF0807339462046FFF72DFE3D
:101C500018E0628D92B222853B4B00934FF00073E7
:101C6000D2B239462046FFF720FE0BE0628D92B2D9
:101C70002285002300934FF00073D2B239462046EC
:101C8000FFF713FE638D9BB2002B33D02A463146FB
:101C90002046FFF7BEFE002850D1626A2368127802
:101CA0009A62636A01336362638D9BB2013B9BB2AC
:101CB0006385238D013B9BB22385628D92B2002AFE
:101CC000E0D0002BDED10095334600228021204653
:101CD000FFF7CAFEA0BB638D9BB2FF2BC6D9FF22C4
:101CE0002285002300934FF0807339462046FFF78A
:101CF000DCFDC7E72A4631462046FFF7E2FE08BB77
:101D000023682022DA6121684B6823F0FF7323F4F3
:101D10008B3323F4FF7323F001034B6084F84120DD
:101D2000002384F8423084F8403000E0022002B002
:101D3000BDE8F0870220FAE70120F8E70120F6E786
:101D40000120F4E70120F2E70020008090F8413004
:101D5000DBB2202B24D190F84030012B22D001237C
:101D600080F84030242380F841300268136823F063
:101D7000010313600268136823F480531360026840
:101D80001368194311600268136843F0010313607C
:101D9000202380F84130002380F8403018467047F7
:101DA000022070470220704790F84130DBB2202BB0
:101DB00022D190F84030012B20D0012380F8403010
:101DC000242380F841300268136823F00103136074
:101DD0000268136823F4706343EA0121116002680A
:101DE000136843F001031360202380F8413000237F
:101DF00080F8403018467047022070470220704734
:101E0000104B1B780BB90120704710B504464FF4F6
:101E10007A70B0FBF3F30C4A1068B0FBF3F001F0FA
:101E200005FB68B90F2C01D901200AE000222146E8
:101E30004FF0FF3001F0B4FA044B1C60002000E0CA
:101E4000012010BD00000020080000200400002038
:101E500010B5094A136843F480731360032001F03E
:101E60008DFA0020FFF7CCFF10B10124204610BDF1
:101E70000446FFF7A9FBF9E700200240034B1B785B
:101E8000034A11680B441360704700BF0000002034
:101E90001C030020014B1868704700BF1C03002082
:101EA00030B583B00446204B9B6D13F0805F0BD0A0
:101EB00001F04CFAB0F5007F17D0802C1FD82DD040
:101EC000702C2DD000211BE0174DAB6D43F08053DB
:101ED000AB65AB6D03F080530193019B01F036FAC3
:101EE000AB6D23F08053AB65E4E7802C03D9A02CC5
:101EF00003D9022104E0002102E0012100E00321D6
:101F00000A4A136823F007030B431360136803F0B6
:101F100007038B4206D1002003B030BD0221EFE75A
:101F20000121EDE70120F7E7001002400020024008
:101F3000284A9368D26802F0030213F00C030AD017
:101F40000C2B06D0042B1FD0082B20D000200246DB
:101F500010E0012AF6D11F4A126812F0080F0CD1C6
:101F60001C4AD2F89420C2F303221B4951F82220C4
:101F700043B100200C2B0DD07047164A1268C2F3F3
:101F80000312F2E71046F5E714480022F2E714487E
:101F90000022EFE70F4BDB6803F00303022B16D0A0
:101FA000032B00D10E4A0B49C868C0F30210431C32
:101FB000C868C0F3062002FB00F0B0FBF3F0CB686A
:101FC000C3F3416301335B00B0FBF3F0D4E7034A92
:101FD000E9E700BF00100240507000080024F40040
:101FE00000127A00002800F0F182F0B583B00446B8
:101FF000964B9D6805F00C05DE6806F00306036845
:1020000013F0100F5AD0E5B10C2D18D0A369002B96
:1020100000F0BB808D4A136843F001031360FFF7A3
:1020200039FF0746894B1B6813F0020F40F09A8076
:10203000FFF730FFC01B0228F4D90320D1E2012EA4
:10204000E4D1824B1B6813F0020F03D0A369002B6D
:1020500000F0BE82206A7D4B1B6813F0080F5BD036
:102060007A4B1B6803F0F00398425CD8774B1A68F0
:1020700042F008021A601A6822F0F002216A0A434C
:102080001A605A6822F47F42E16942EA01225A60EA
:10209000002D60D0FFF74CFF6C4B9B68C3F303131C
:1020A0006B4AD35C03F01F03D8406A4B18606A4B3D
:1020B0001868FFF7A5FE002840F09382236813F00C
:1020C000010F00F08180082D75D00C2D71D0636850
:1020D000B3F5803F00F09780B3F5A02F00F0998012
:1020E0005A4B1A6822F480321A601A6822F480224D
:1020F0001A606368002B00F09980FFF7CBFE07465B
:10210000524B1B6813F4003F5ED1FFF7C3FEC01BA8
:102110006428F5D9032064E24C4BD3F894301B09B2
:1021200003F0F003A0E7FFF7BBFE002840F0528267
:10213000464B1A6842F008021A601A6822F0F00250
:10214000216A0A431A605A6822F47F42E16942EA2E
:1021500001225A609EE7206AFFF7A2FE002899D06C
:1021600001203EE2394B1A6842F008021A601A68F0
:1021700022F0F002216A0A431A605A6822F47F4270
:10218000E16942EA01225A6098E7304A136823F075
:1021900001031360FFF77EFE07462C4B1B6813F00C
:1021A000020F8BD0FFF776FEC01B0228F5D9032063
:1021B00017E2032E8BD1254B1B6813F4003F03D08D
:1021C0006368002B00F00882236813F0020F58D0D8
:1021D000042D45D00C2D41D0E368002B77D01B4A4D
:1021E000136843F480731360FFF754FE0646174BE1
:1021F0001B6813F4806F61D1FFF74CFE801B02282F
:10220000F5D90320EDE1114A136843F480331360DC
:102210006FE703F18043A3F53C331A6842F4802250
:102220001A601A6842F480321A6062E7FFF732FEE1
:102230000746064B1B6813F4003FC5D0FFF72AFE84
:10224000C01B6428F5D90320CBE100BF0010024079
:10225000387000080800002004000020022EBBD1C6
:10226000A34B1B6813F4806F03D0E368002B00F0CE
:10227000B5819F4A536823F0F853216943EA01630B
:102280005360236813F0080F4CD063699BB3984ADE
:10229000D2F8943043F00103C2F89430FFF7FAFD0E
:1022A0000646934BD3F8943013F0020F3AD1FFF760
:1022B000F1FD801B0228F4D9032092E18C4A536877
:1022C00023F0F853216943EA01635360D9E7884A50
:1022D000136823F480731360FFF7DCFD0646844B1C
:1022E0001B6813F4806FCCD0FFF7D4FD801B02284D
:1022F000F5D9032075E17E4AD2F8943023F001032A
:10230000C2F89430FFF7C6FD0646794BD3F89430F7
:1023100013F0020F06D0FFF7BDFD801B0228F4D991
:1023200003205EE1236813F0040F7AD0704B9B6D9D
:1023300013F0805F36D16E4B9A6D42F080529A65F1
:102340009B6D03F080530193019B0126694B1B6831
:1023500013F4807F28D0A368012B39D0052B3FD000
:10236000634BD3F8902022F00102C3F89020D3F8F9
:10237000902022F00402C3F89020A368002B3DD0E7
:10238000FFF788FD07465A4BD3F8903013F0020F41
:1023900046D1FFF77FFDC01B41F288339842F2D946
:1023A00003201EE10026D1E7524A136843F48073EC
:1023B0001360FFF76FFD07464E4B1B6813F4807FD9
:1023C000C9D1FFF767FDC01B0228F5D9032008E13A
:1023D000474AD2F8903043F00103C2F89030CCE77E
:1023E000434BD3F8902042F00402C3F89020D3F876
:1023F000902042F00102C3F89020BEE7FFF74AFDAB
:1024000007463B4BD3F8903013F0020F08D0FFF78C
:1024100041FDC01B41F288339842F2D90320E0E02D
:10242000EEB9A36A002B00F0DB80022B1DD00C2D2F
:1024300000F0DD802E4A136823F080731360FFF7ED
:1024400029FD04462A4B1B6813F0007F00F0B7807B
:10245000FFF720FD001B0228F4D90320C1E0244A25
:10246000936D23F080539365DBE7214BDB6803F02A
:102470000301E26A91420FD00C2D00F0B4801C4B96
:102480001B6813F0806F40F0B080194B1B6813F08D
:10249000805F31D00120A4E003F07002216B01398C
:1024A000B2EB011FE8D103F4FE42616BB2EB012FE6
:1024B000E2D103F40031A26B073A18BF0122914226
:1024C000DAD103F4C001E26B5208013AB1EB425F8A
:1024D000D2D103F0C063226C5208013AB3EB426FD1
:1024E000CAD1034B1B6813F0007F4ED0002078E068
:1024F00000100240007000403E4A136823F08073D1
:102500001360FFF7C7FC05463A4B1B6813F0007FCA
:1025100006D0FFF7BFFC401B0228F5D9032060E07E
:10252000344AD36834491940E36A206B013843EADE
:102530000013606B43EA0023E06B4008013843EA74
:102540004053206C4008013843EA4063A06B000907
:1025500043EA40430B43D360136843F08073136036
:10256000D36843F08073D360FFF794FC0446214B9B
:102570001B6813F0007F06D1FFF78CFC001B0228BC
:10258000F5D903202DE000202BE01A4B1A6842F009
:1025900080721A60DA6842F08072DA60FFF77AFCC3
:1025A0000446144B1B6813F0007F06D1FFF772FC42
:1025B000031B022BF5D9032013E0002011E00D4A84
:1025C000D1680E4B0B40D36000200AE00120704719
:1025D000012006E0012004E0012002E0012000E0EB
:1025E000002003B0F0BD0120FBE70120F9E7012046
:1025F000F7E700BF001002408C809DF9FCFFEEFE63
:10260000002800F0AF8070B50D460446594B1B689A
:1026100003F007038B420BD2564A136823F00703DB
:102620000B431360136803F007038B4240F09C8058
:10263000236813F0020F0CD0A2684F4B9B6803F085
:10264000F0039A4205D94C498B6823F0F0031A43F2
:102650008A60236813F0010F39D06368032B09D017
:10266000022B26D063BB444A126812F0020F06D137
:10267000012076E0404A126812F0007F76D03E4991
:102680008A6822F0030213438B60FFF703FC0646BF
:10269000394B9B6803F00C036268B3EB820F16D0D2
:1026A000FFF7F8FB801B41F288339842F0D90320F2
:1026B00057E0314A126812F4003FE0D1012050E0A7
:1026C0002D4A126812F4806FD9D1012049E02368A5
:1026D00013F0020F0CD0A268274B9B6803F0F003A5
:1026E0009A4205D224498B6823F0F0031A438A608A
:1026F000204B1B6803F00703AB420AD91D4A13683D
:1027000023F007032B431360136803F00703AB4266
:102710002ED1236813F0040F06D0174A936823F4D0
:10272000E063E1680B439360236813F0080F07D060
:10273000114A936823F46053216943EAC10393600B
:10274000FFF7F6FB0C4B9B68C3F303130B4AD35CF8
:1027500003F01F03D8400A4B18600A4B1868FFF7B4
:102760004FFB70BD012070470120FAE70120F8E718
:102770000120F6E7002002400010024038700008F7
:102780000800002004000020014B1868704700BFBB
:102790000800002008B5FFF7F7FF054B9B68C3F35F
:1027A0000223044AD35C03F01F03D84008BD00BFD6
:1027B000001002404870000808B5FFF7E5FF054B20
:1027C0009B68C3F3C223044AD35C03F01F03D840C1
:1027D00008BD00BF0010024048700008F8B504466C
:1027E0000F46594BDB6813F0030F18D0564BDB68CC
:1027F00003F003030268934202D001252846F8BD86
:10280000002A00F09E80504BDB68C3F302130133B3
:102810004268934201D00125F0E7002509E00368F2
:10282000022B57D0032B5CD0012B42D00125002D69
:10283000E4D1454A136823F080631360FFF72AFB55
:102840000646414B1B6813F0006F05D0FFF722FBD3
:10285000831B022BF5D90325002DCFD1002F4ED19C
:1028600039490B6923F41F3323F44073A068E268ED
:102870001209520442EA002213430B61324A1368E0
:1028800043F080631360FFF705FB06462E4B1B6881
:1028900013F0006F05D1FFF7FDFA831B022BF5D96A
:1028A0000325002DAAD1284A1369A1690B4313619E
:1028B000A4E7254A126812F0020F1ED02248C2680F
:1028C00022F073026168013943EA01131343C360C4
:1028D0000025ACE71C4A126812F4806FEED1012586
:1028E000A5E7194A126812F4003FE7D1164A1268A8
:1028F00012F4802FE2D1012599E7012597E7012FF6
:102900000FD01148026922F0C06222F4FE42A16891
:1029100063695B08013B5B0643EA012313430361E0
:10292000ACE70948026922F4C00222F4FE42A16821
:1029300023695B08013B5B0543EA01231343036101
:102940009CE701255AE700BF00100240F8B5044695
:102950000F46504BDB6813F0030F18D04D4BDB686C
:1029600003F003030268934202D001252846F8BD14
:10297000002A00F08C80474BDB68C3F3021301335D
:102980004268934201D00125F0E7002509E0036881
:10299000022B57D0032B5CD0012B42D00125002DF8
:1029A000E4D13C4A136823F080531360FFF772FAB6
:1029B0000646384B1B6813F0005F05D0FFF76AFA34
:1029C000831B022BF5D90325002DCFD1002F4ED12B
:1029D00030494B6923F41F3323F44073A068E26845
:1029E0001209520442EA002213434B61294A136838
:1029F00043F080531360FFF74DFA0646254B1B68E2
:102A000013F0005F05D1FFF745FA831B022BF5D9C0
:102A10000325002DAAD11F4A536961690B435361F5
:102A2000A4E71C4A126812F0020F1ED01948C268AF
:102A300022F073026168013943EA01131343C36052
:102A40000025ACE7134A126812F4806FEED101251D
:102A5000A5E7104A126812F4003FE7D10D4A126848
:102A600012F4802FE2D1012599E7012597E7094863
:102A7000426922F0C06222F4FE42A16823695B0829
:102A8000013B5B0643EA012313434361AEE70125A3
:102A90006CE700BF001002402DE9F04182B004460F
:102AA000036813F4006F33D0436EB3F5000F1FD0EB
:102AB0000CD823B3B3F5800F05D100212030FFF7E8
:102AC00045FF064620E001273E4623E0B3F5400FD0
:102AD0000BD10026604AD2F8883023F44003616E9F
:102AE0000B43C2F88830002714E001273E4611E06E
:102AF000594AD36843F48033D3600026EAE70021C3
:102B00000430FFF76BFE0646002EE3D0374601E0A7
:102B100000273E46236813F4805F30D0A36EB3F1E4
:102B2000007F1FD00DD81BB3B3F1807F06D10021E9
:102B300004F12000FFF70AFF064605E001273E46A4
:102B40001DE0B3F1407F0AD1C6B9434AD2F88830BC
:102B500023F04073A16E0B43C2F888300FE00127C9
:102B60003E460CE03C4AD36843F48033D360EBE745
:102B70000021201DFFF732FE0646E5E737462368B1
:102B800013F4003F71D0344B9B6D13F0805F4ED136
:102B9000314B9A6D42F080529A659B6D03F08053E1
:102BA0000193019B4FF001082C4A136843F4807392
:102BB0001360FFF76FF90546284B1B6813F4807FFD
:102BC00005D1FFF767F9401B0228F5D90326002E2F
:102BD00046D1214BD3F8903013F4407316D0D4F87B
:102BE00084209A4212D01C4AD2F8903023F44073C9
:102BF000D2F8901041F48031C2F89010D2F89010C1
:102C000021F48031C2F89010C2F8903013F0010F17
:102C100010D1002E40F027810F4AD2F8903023F4D3
:102C20004073D4F884100B43C2F8903019E04FF091
:102C30000008B9E7FFF72EF90546074BD3F89030A7
:102C400013F0020FE5D1FFF725F9401B41F288335D
:102C50009842F2D90326DCE70010024000700040E1
:102C60003746B8F1000F40F00081236813F0010FE0
:102C700008D09D4AD2F8883023F00303A16B0B43A0
:102C8000C2F88830236813F0020F08D0964AD2F8B1
:102C9000883023F00C03E16B0B43C2F888302368C3
:102CA00013F0040F08D0904AD2F8883023F0300394
:102CB000216C0B43C2F88830236813F0080F08D04A
:102CC000894AD2F8883023F0C003616C0B43C2F804
:102CD0008830236813F0100F08D0834AD2F8883068
:102CE00023F44073A16C0B43C2F88830236813F0BF
:102CF000200F08D07C4AD2F8883023F44063E16C7E
:102D00000B43C2F88830236813F4007F08D0764A5A
:102D1000D2F8883023F44023E16D0B43C2F88830A9
:102D2000236813F4806F08D06F4AD2F8883023F4F8
:102D30004013216E0B43C2F88830236813F0400F14
:102D400008D0694AD2F8883023F44053216D0B43F0
:102D5000C2F88830236813F0800F08D0624AD2F896
:102D6000883023F44043616D0B43C2F888302368F8
:102D700013F4807F08D05C4AD2F8883023F44033C3
:102D8000A16D0B43C2F88830236813F4005F0FD0A5
:102D9000554AD2F8883023F04063E16E0B43C2F805
:102DA0008830E36EB3F1006F65D0B3F1806F67D008
:102DB000236813F4002F0FD04B4AD2F8883023F049
:102DC0004063216F0B43C2F88830236FB3F1006F6B
:102DD0005ED0B3F1806F60D0236813F4802F0FD0E2
:102DE000414AD2F8883023F04063616F0B43C2F848
:102DF0008830636FB3F1006F57D0B3F1806F59D053
:102E0000236813F4804F0FD0374AD2F8883023F06C
:102E10004053A16F0B43C2F88830A36FB3F1805FBA
:102E200050D0B3F1005F55D0236813F4004F08D0A1
:102E30002D4AD2F8883023F08043E16F0B43C2F86B
:102E40008830236813F4803F09D0274AD2F88830AD
:102E500023F00043D4F880100B43C2F88830384682
:102E600002B0BDE8F0813746FBE61F4A936D23F0C0
:102E700080539365F9E6D36843F48013D36097E7F2
:102E80000121201DFFF7AAFC002891D007468FE7FB
:102E9000D36843F48013D3609EE70121201DFFF720
:102EA0009DFC002898D0074696E7D36843F480132A
:102EB000D360A5E70121201DFFF790FC00289FD0DB
:102EC00007469DE70221201DFFF788FC0028ABD0B4
:102ED0000746A9E7022104F12000FFF737FD00288B
:102EE000A2D00746A0E700BF00100240054BD3F870
:102EF000902022F02002C3F890209A6922F40072F8
:102F00009A61704700100240024A136843F00403BC
:102F10001360704700100240F0B583B000236BE0EF
:102F200085685E000324B44025EA0405CC68B440FB
:102F30002C438460456825EA0C054C68C4F30014F2
:102F40009C402C43446069E0C56A25EA0C0CC4F33C
:102F5000C0049C4044EA0C04C46265E0DD08083506
:102F600050F8256003F007044FEA840C0F2404FA9C
:102F70000CF426EA040E0C6904FA0CF444EA0E047C
:102F800040F8254067E0062400E0002404FA0EF42F
:102F90002C430CF1020C5C4D45F82C405B4CA568B1
:102FA000D44325EA02064F6817F4801F01D042EA95
:102FB0000506564DAE60ED6804EA05064F6817F445
:102FC000001F01D042EA0506504DEE606D6804EA2C
:102FD00005064F6817F4003F01D042EA05064B4D45
:102FE0006E602D682C404E6816F4803F01D042EA96
:102FF0000504464A146001330A6832FA03F400F00B
:1030000081804FF0010C0CFA03FC1CEA0202F2D0A2
:103010004C6804F00304013C012C81D94C6804F095
:10302000030EBEF1030F8FD04C6804F00304032C91
:103030000CD0C4685D004FF0030C0CFA05FC24EAC8
:103040000C0C8C68AC4044EA0C04C4604C6804F07E
:103050000304022C82D004684FEA430E4FF0030CA5
:103060000CFA0EFC24EA0C0C4C6804F0030404FA7D
:103070000EF444EA0C0404604C6814F4403FBAD0E7
:10308000234C256E45F001052566246E04F00104ED
:103090000194019C4FEA930C0CF102051A4C54F870
:1030A000255003F003044FEA840E0F2404FA0EF4B3
:1030B00025EA0405B0F1904F3FF467AF154CA042EC
:1030C00016D004F58064A04214D004F58064A042B8
:1030D00012D004F58064A04210D004F58064A042B0
:1030E0000ED004F58064A0423FF44DAF07244DE7B5
:1030F00001244BE7022449E7032447E7042445E77A
:10310000052443E703B0F0BD000001400004014086
:1031100000100240000400480369194201D0012058
:103120007047002070470AB1816170478162704723
:10313000002873D010B403460068394A90424AD838
:10314000384A02443849A1FB0212120992005A641B
:10315000364A1A64022283F82520016821F4FF41CF
:1031600021F070019A68DC6822431C6922435C6983
:1031700022439C692243DC6922431C6A22430A439E
:1031800002609A68B2F5804F1BD0196C274A9142B1
:103190002CD0264AD2F8A814586C00F01C0C0F2032
:1031A00000FA0CF021EA0001C2F8A814D2F8A81421
:1031B00058685C6C04F01C0C00FA0CF00143C2F877
:1031C000A8140020D863012283F8252083F8240066
:1031D0005DF8044B7047164A02441349A1FB0212E2
:1031E000120992005A64134A1A64B3E7D2F8A8107D
:1031F000586C00F01C0C0F2000FA0CF021EA0001C2
:10320000C2F8A810D2F8A81058685C6C04F01C0C26
:1032100000FA0CF00143C2F8A810D2E70120704771
:1032200007040240F8FFFDBFCDCCCCCC000002402B
:10323000F8FBFDBF0004024008B590F82530DBB272
:10324000022B03D00423C363012008BD0268136866
:1032500023F00E0313600268136823F00103136068
:10326000436C03F01C03016C012202FA03F34B6070
:1032700080F82520002380F82430836B13B1984711
:103280000020E2E70020E0E738B5036C1968046825
:103290002568436C03F01C0304229A400A4215D0AF
:1032A00015F0040F12D0236813F0200F03D1236808
:1032B00023F004032360436C03F01C02016C04231D
:1032C00093404B60036B03B1984738BD02229A408C
:1032D0000A421CD015F0020F19D0236813F0200FFA
:1032E00006D1236823F00A032360012380F82530E8
:1032F000436C03F01C02016C022393404B600023DB
:1033000080F82430C36A002BDFD09847DDE708221D
:1033100002FA03F30B42D8D015F0080FD5D023687A
:1033200023F00E032360436C03F01C03016C0122A5
:1033300002FA03F34B60C26380F82520002380F873
:103340002430436B002BC0D09847BEE7024B18686F
:1033500000F4C060704700BF00700040024A53682C
:1033600043F480635360704700700040024A536822
:1033700043F400735360704700700040074AD368FD
:1033800023F4E0631B041B0C000200F4E060034321
:1033900043F0BF6343F40033D360704700ED00E0B7
:1033A00000B5194BDB68C3F30223C3F1070CBCF172
:1033B000040F28BF4FF0040C03F1040EBEF1060FFA
:1033C00018D9033B4FF0FF3E0EFA0CFC21EA0C012A
:1033D00099400EFA03F322EA0303194300280BDB9A
:1033E0000901C9B200F1604000F5614080F80013A6
:1033F0005DF804FB0023E5E700F00F000901C9B206
:10340000024B1954F4E700BF00ED00E014ED00E0BA
:10341000002807DB00F01F02400901239340024A05
:1034200042F82030704700BF00E100E00138B0F101
:10343000807F0BD24FF0E0235861054AF02182F8DB
:1034400023100020986107221A61704701207047FD
:1034500000ED00E02DE9F04782B0054688461746AA
:103460001E46FEF717FD0A9B1B1A03EB0609FEF723
:1034700011FD82462B4B1B68C3F3CB3309FB03F3CF
:1034800001932B689C6838EA04030CBF4FF0010CD1
:103490004FF0000CBC4540D0B6F1FF3FF1D0FEF735
:1034A000F9FCA0EB0A0048450AD2B9F1000F07D099
:1034B000019A02B14A46019B013B01939146E0E724
:1034C0002A68536823F0E00353606B68B3F5827F8A
:1034D0000BD0AB6AB3F5005F14D0012385F85D30E3
:1034E000002385F85C30032018E0AB68B3F5004F8B
:1034F00002D0B3F5806FECD12A68136823F0400343
:103500001360E6E72A68136823F4005313602A68FF
:10351000136843F400531360DFE7002002B0BDE8F6
:10352000F08700BF080000202DE9F04782B0064672
:103530000C4615461F4600238DF80330FEF7AAFC03
:103540000A9B1B1A03EB0708FEF7A4FC8146D6F87A
:1035500000A0314B1B6803EB8303C3EBC3031B0DBC
:1035600008FB03F3019302E0B7F1FF3F12D1336888
:103570009B6803EA040CAC454AD0B4F5C06FF3D1A4
:10358000002DF1D19AF80C30DBB28DF803309DF8A4
:103590000330E9E7FEF77EFCA0EB090040450AD2C4
:1035A000B8F1000F07D0019A02B14246019B013BDE
:1035B00001939046DBE73268536823F0E0035360E1
:1035C0007368B3F5827F0BD0B36AB3F5005F14D094
:1035D000012386F85D30002386F85C30032018E074
:1035E000B368B3F5004F02D0B3F5806FECD1326809
:1035F000136823F040031360E6E73268136823F48E
:10360000005313603268136843F400531360DFE71C
:10361000002002B0BDE8F0870800002070B582B03D
:1036200004460D46164600920B4600224FF4C05148
:10363000FFF77AFFB0B900962B4600228021204682
:10364000FFF708FFA8B900962B4600224FF4C0618F
:103650002046FFF769FF50B1236E43F02003236635
:10366000032004E0236E43F020032366032002B00E
:1036700070BD236E43F0200323660320F7E7002884
:103680006AD010B50446436A33B94368B3F5827F04
:1036900005D00023C36102E00023036143610023DE
:1036A000A36294F85D30002B4DD0022384F85D3086
:1036B0002268136823F040031360E368B3F5E06FFA
:1036C00047D90022B3F5706F04D0B3F5E06F01D095
:1036D0000023A362636803F48273A16801F40441C8
:1036E0000B43216901F002010B43616901F0010103
:1036F0000B43A16901F400710B43E16901F038014A
:103700000B43216A01F080010B43A16A01F40051CF
:1037100020680B430360638B03F00403616A01F0CC
:1037200010010B43616B01F008010B43E16801F4E8
:1037300070610B43216813434B6000202066012316
:1037400084F85D3010BD84F85C302046FDF798FFAA
:10375000ABE74FF48052B5E7012070472DE9F843FD
:103760001F46089D90F85C30012B00F064810446F0
:1037700088469146012380F85C30FEF78BFB0646B5
:1037800094F85D30DBB26268012B0AD0B2F5827F1B
:1037900040F03881A268002A40F03D81042B40F0BF
:1037A0003C81B8F1000F00F03A81B9F1000F00F050
:1037B0003881002F00F0378194F85D30DBB2042BA4
:1037C00002D0052384F85D3000232366C4F84090BE
:1037D000A4F84670A4F84470C4F83880E787A78737
:1037E000E3642365E368B3F5E06F01D8012F23D9C3
:1037F0002268536823F48053536023681A6812F0D8
:10380000400F03D11A6842F040021A60E368B3F532
:10381000E06F58D963680BB1012F0BD1A26B2368FD
:103820001288DA60A36B0233A363E38F9BB2013B80
:103830009BB2E387012731E02268536843F4805349
:103840005360DAE7A26B1288DA60A36B0233A363DA
:10385000E38F9BB2013B9BB2E387002723689A6802
:1038600012F0010F11D0B4F8462092B26AB1DA68B2
:10387000236C1A80236C02332364B4F846309BB265
:10388000013B9BB2A4F846300127FEF703FB831BE4
:10389000AB4203D3B5F1FF3F40F0C780E38F9BB24B
:1038A0002BB9B4F846309BB2002B00F0A1802368FE
:1038B0009A6812F0020FD1D0E28F92B2002ACDD0D6
:1038C000002FCBD0BEE763680BB1012F0FD1E38F80
:1038D0009BB2012B0DD9A26B23681288DA60A36B0F
:1038E0000233A363E38F9BB2023B9BB2E3870127C2
:1038F00049E0A26B236812781A73A36B0133A363A8
:10390000E38F9BB2013B9BB2E387F0E7E28F92B279
:10391000012A0CD9A26B1288DA60A36B0233A3636D
:10392000E38F9BB2023B9BB2E38700273DE0A26B93
:1039300012781A73A36B0133A363E38F9BB2013B2D
:103940009BB2E387002730E02268536843F480533A
:10395000536001270DE0226C1B7B1370236C013335
:103960002364B4F846309BB2013B9BB2A4F84630C6
:103970000127FEF78FFA801BA84202D3B5F1FF3F63
:1039800055D1002D55D0E38F9BB223B9B4F8463002
:103990009BB2002B2CD023689A6812F0020F04D03F
:1039A000E28F92B20AB1002FB0D123689A6812F068
:1039B000010FDED0B4F8462092B2002AD9D0B4F874
:1039C000462092B2012AC6D9DA68236C1A80236C89
:1039D00002332364B4F846309BB2023B9BB2A4F896
:1039E0004630B4F846309BB2012BADD90127C0E771
:1039F000324629462046FFF711FE20B120232366D8
:103A0000012000E00220012384F85D30002384F8C7
:103A10005C30BDE8F8830220F5E70220F3E70120DF
:103A2000F1E70120EFE70120EDE70320EBE70320BA
:103A3000E9E70320E7E70220EBE7704730B585B000
:103A40000446026851689368C3F3801013F0400F76
:103A500005D113F0010F02D011F0400F69D113F01E
:103A6000020F02D011F0800F67D1C3F3401513F09D
:103A7000200F03D110B913F4807F61D011F0200F13
:103A80005ED078B194F85D00C0B203285AD0206EA1
:103A900040F00400206600200090D06800909068FC
:103AA0000090009865B1206E40F001002066002073
:103AB000029090680290106820F040001060029A16
:103AC00013F4807F09D0236E43F00803236600239C
:103AD000039323689B680393039B236E002B2FD0D3
:103AE0002268536823F0E0035360012384F85D30BB
:103AF00011F0030F2ED02268536823F003035360A4
:103B0000A36D4BB1154A9A63A06DFFF795FB18B1F1
:103B1000236E43F040032366636D8BB10F4A9A63B3
:103B2000606DFFF789FB58B1236E43F040032366B5
:103B300006E0E36C2046984702E0236D2046984754
:103B400005B030BD00230193D368019393680193BE
:103B5000019BF5E72046FFF770FFF1E7613B0008A6
:103B600008B5806A0023A0F84630C387FFF765FFD9
:103B700008BD0000034AD2F8883043F47003C2F84D
:103B80008830704700ED00E000487047B0700008D2
:103B900000487047C470000830B589B0A8B1032848
:103BA00022D003285BD82F4A52F820402046FCF749
:103BB00067FC202800D92020002398420BD9E15C23
:103BC0000133294A22F81310F7E7264B1B681A889D
:103BD000254B5A800120431C5B009BB243F4407389
:103BE0002148038009B030BD204B53B110216846F5
:103BF00003F0F0F80446102C00D910244FF0000E0A
:103C000008E01B4B009303F1883301930824F2E78B
:103C10000EF1010EA64520D24FF0000CBCF1010FB1
:103C2000F6D8144B0FCB08AD05E90F000EF12003B9
:103C30006B4413F8203C4FEA8C02134103F00F034E
:103C4000CCEB4E02013220336B4413F8101C0A4BAC
:103C500023F812100CF1010CE0E76000BBE7002034
:103C6000C0E700BF0C00002020030020D56D000835
:103C700001234567807000082203002008B500205A
:103C800000F02CFD00B108BD4FF0E023D3F8F03D6B
:103C900013F0010FF7D000BEF5E70246037813F0EA
:103CA000010017D1137813F0040F14D1137813F017
:103CB000010F05D1137813F0040F09D0002300E0A1
:103CC000002318463BB1137843F004031370704788
:103CD0000123F6E7002070470346027812F0040F34
:103CE00007D1002210461AB11A786FF382021A70B7
:103CF0007047027812F0010F01D00022F2E7012292
:103D0000F0E78388C3F30A02C37803F00303022BAE
:103D10001AD0032B35D0012B01D000207047022987
:103D200005D040F2FF33934204D3012070474FF493
:103D30008063F8E74FF0E023D3F8F03D13F0010F74
:103D400000D000BE00207047022903D0402A0ED8C0
:103D500001207047B2F5007F27D04FF0E023D3F861
:103D6000F03D13F0010F00D000BE002070474FF06F
:103D7000E023D3F8F03D13F0010F00D000BE002087
:103D80007047022904D04023934204D30120704796
:103D90004FF48063F8E74FF0E023D3F8F03D13F0E1
:103DA000010F00D000BE00207047012070470A4478
:103DB00004E05DF804FB91F800C0614491421AD21E
:103DC00091F801C0BCF1050FF5D100B591F802C022
:103DD0000CF07F0E00EB4E0E4FEADC1C0EF80C30A0
:103DE00091F800C061449142E3D291F801C0BCF166
:103DF000050FF5D1EAE7704703460A4490B28142C5
:103E000002D8B0EB430F03DB5B009BB2C01A80B259
:103E1000704710B586460846BEF804C09A420CD3D7
:103E2000D41AA4B22CB3A44515D294450CD8A2EB55
:103E30000C039BB2AEF80A300DE0D41A4FEA4C01E5
:103E400011FA84F4A4B2EDE70CEB02039BB2F1E7A4
:103E5000A3EB0C039BB29C45FAD9DEF80010BEF828
:103E60000620C2F30E0202FB0311FCF711FA012037
:103E700010BD0020FCE730B583B00546940803E090
:103E800051F8044B2C601C46631E9BB2002CF7D1EA
:103E900012F0030201D103B030BD0023019301A849
:103EA000FCF7F6F9019B2B60F5E72DE9F04782B0AE
:103EB00006460F469DF82810B0F804C0ACEB03048A
:103EC0001FFA84FEA3EB0C0C9444B0F80690C9F3DF
:103ED0000E0A14FB0AF4A4B21CFB0AFC1FFA8CF5B0
:103EE00000680AFB030821B1012916D002B0BDE821
:103EF000F087964506D30AFB02F241463846FCF7A6
:103F0000C7F9F3E7224641463846FCF7C1F92A468D
:103F100031683819FCF7BCF9E8E7964507D31AFB76
:103F200002F292B241463846FFF7A5FFDEE724F0E1
:103F300003091FFA89F94A4641463846FFF79BFFB5
:103F4000C84414F003042BD0C4F1040080B2A8428A
:103F500028BF2846C0B2A5EB000C1FFA8CF5002341
:103F6000019301AB04E018F8012B03F8012B0C4678
:103F7000611EC9B2002CF6D1316804E011F8010BC2
:103F800003F8010B1046421ED2B20028F6D1019B65
:103F90003B60002DAAD02A463846FFF76CFFA5E704
:103FA0003168F6E730B583B09E46BDF81830B0F8FA
:103FB00004C09E4510D3AEEB0304A4B21CB3A445C9
:103FC00006D2F44510D8AEEB0C039BB24381644695
:103FD000944210D314460EE0AEEB03044FEA4C05B6
:103FE00015FA84F4A4B2E9E70CEB0E039BB2EDE7FB
:103FF000A3EB0C039BB29C45FAD99DF81C200092C0
:104000002246FFF752FF204603B030BD30B583B0E3
:104010000446B0F808C04589ADB2019300951FFA77
:104020008CF3FFF7BFFF05466189024689B2A0887D
:10403000FFF7E2FE6081284603B030BD10B582B0C4
:10404000940803E00C6840F8044B1C46631E9BB2C6
:10405000002CF7D112F0030201D102B010BD0B68A1
:10406000019301A9FCF714F9F7E72DE9F04782B0B5
:1040700006460F469DF82810B0F804C0ACEB0304C8
:104080001FFA84FEA3EB0C0C9444B0F80690C9F31D
:104090000E0A14FB0AF4A4B21CFB0AFC1FFA8CF5EE
:1040A00000680AFB030821B1012916D002B0BDE85F
:1040B000F087964506D30AFB02F239464046FCF7E4
:1040C000E7F8F3E7224639464046FCF7E1F82A468E
:1040D00039193068FCF7DCF8E8E7964507D31AFB96
:1040E00002F292B239464046FFF7A8FFDEE724F01D
:1040F00003091FFA89F94A4639464046FFF79EFFF1
:10410000C84414F0030229D0C2F10404A4B2AC42A2
:1041100028BF2C46E4B2A5EB040C1FFA8CF53B68D3
:10412000019301AB04E013F8012B08F8012B0A46B8
:10413000511EC9B2002AF6D1306804E013F8011B01
:1041400000F8011B1446621ED2B2002CF6D1002DDD
:10415000ACD02A463946FFF771FFA7E73068F6E78B
:104160002DE9F04383B09146002A5BD0044688468F
:104170001F460689B6B2418989B2C379DB0918D1D5
:1041800083888E420DD3751AADB2AB420FD95D1B39
:10419000ADB24D4528BF4D46002D44D0A2883346D0
:1041A00031E0751A590011FA85F5ADB2EDE7002539
:1041B000EFE78588954209D8FFB9A2EB0509C388C6
:1041C000C3F30E0303FB09880E46E5E78E420ED3C8
:1041D000731A9BB24B44B3EB450F10DBA5EB0902FE
:1041E00092B22846FFF708FE06464D46D4E7731AFA
:1041F0006A0012FA83F39BB2ECE70E46CCE74D4619
:10420000CAE79B1A9BB29A42FBD900972A464146BD
:104210002046FFF72AFF2A463146A088FFF7ECFD2B
:10422000208100E01546284603B0BDE8F083B2F5D2
:10423000004F10D801608280C28863F30E02C280F2
:10424000C3799DF8002062F3C713C3710023438133
:10425000038101207047002070470246808813893F
:104260009BB2528992B2934205D39B1A9BB2984259
:1042700028BF184670479B1A420012FA83F39BB27C
:10428000F5E7818803899BB2428992B2934206D3B3
:104290009B1A98B281428CBF0020012070479B1A64
:1042A000480010FA83F398B2F4E7828803899BB23E
:1042B000408980B2834206D31B1A9BB29A4208D926
:1042C000D31A98B270471B1A500010FA83F39BB2AE
:1042D000F4E70020704738B50446028943899BB251
:1042E00092B2FFF796FD0546618982B289B2A08835
:1042F000FFF782FD6081284638BD08B50023FFF72F
:1043000085FE08BD08B50123FFF780FE08BD70B526
:1043100004460E460589ADB2FFF7B3FF10B1E07950
:10432000C00916D0A2882B4601E09B1A9BB29A4284
:10433000FBD92068E288C2F30E02314602FB03007B
:10434000FBF7A6FF01222946A088FFF755FD208133
:10435000012070BD08B50023FFF702FF08BD08B5B6
:104360000123FFF7FDFE08BD0023438103810120E7
:104370007047000038B5054600240BE0E31A03EB54
:1043800043031B4A02EBC3038BB15B682846984783
:104390000134E4B2174B1B78A34211D3A342EDD9E9
:1043A000154B1B6804EB440203EBC203ECE74FF030
:1043B000E023D3F8F03D13F0010F17D000BE15E055
:1043C0000E4C2B2200212046FBF7FCFF4FF0FF3361
:1043D000C4F80330C4F80730C4F80B30C4F80F3009
:1043E000C4F81330C4F81730C4F81B3038BD00BF10
:1043F0002C71000868030020640300206C03002077
:1044000008B5FFF7B7FF00F011FF08BD70B505460E
:104410000C461646C86800F013FFE36832460121D7
:104420002846984770BD00002DE9F04F83B08146C3
:10443000481EC0B2FFF7ACFB20B18246437801931F
:10444000022B0BD04FF0E023D3F8F03D13F0010F17
:1044500000D000BE002003B0BDE8F08FC279C2F3E7
:1044600040104D4B197860F304111970C2F380129B
:10447000C9B262F3451119700AF10908BAF802309D
:104480009A44D04580F0858098F801300B2B0AD0F3
:104490004FF0010B98F80130042B0AD1AAEB080762
:1044A000BFB2002448E098F803B098F80030984470
:1044B000F0E74FF0E023D3F8F03D13F0010F00D008
:1044C00000BE0020C7E7651B05EB4505334B03EB3A
:1044D000C5053DE04FF0E023D3F8F03D13F0010FA8
:1044E00000D000BE0020B6E7AA682D4B9A423ED10C
:1044F000DDF804B03BE04FF0E023D3F8F03D13F0DB
:10450000010F00D000BE0020A5E7234632464146F9
:104510002448FFF74CFCB044234B1B78A342B0D295
:104520004FF0E023D3F8F03D13F0010F00D000BEB0
:10453000002090E70134E4B21B4B1D78A542EBD379
:10454000A542C0D9194B1D6804EB440305EBC30514
:10455000002DBFD0AB683A464146484698470646CC
:104560000828E7D98742E5D3BBF1010FBCD0002270
:104570009345CAD998F802301344DBB2064919446E
:10458000C978FF29B7D104490B44DC700132D2B29B
:10459000EEE701205FE700BF6C0300202C710008EC
:1045A000615700087F030020680300206403002097
:1045B00038B505460C464B881A0AD8B2531E0E2B46
:1045C0005BD8DFE803F00828435A5A4E285A5A5A53
:1045D0005A5A5A5A1100FFF7D7FA024612232146B7
:1045E000284600F0DBFD49E02A4B002B47D0AFF313
:1045F0000080024628B143882146284600F0CEFDBF
:104600003CE04FF0E023D3F8F03D13F0010F00D071
:1046100000BE002032E0022A0ED01F4B8BB3AFF356
:10462000008060B94FF0E023D3F8F03D13F0010FA4
:1046300000D000BE002021E0FFF7AAFAF1E743888E
:1046400002462146284600F0A9FD17E0A188FFF7A1
:10465000A3FA0246B8B103782146284600F09EFD31
:104660000CE00E4B8BB1AFF30080024678B10378BB
:104670002146284600F092FD00E0002038BD0020D1
:10468000FCE70020FAE70020F8E70020F6E700202A
:10469000F4E700BF00000000000000000000000080
:1046A00008B520B1044B187801F00CFE08BD024B90
:1046B000187801F01BFEF9E72C000020024B587817
:1046C000003818BF012070476C030020024B187897
:1046D000FF3818BF012070472C00002070B5054638
:1046E000FFF7F4FF064608B1304670BD2B220021CB
:1046F0001E48FBF767FE1E4C201DFFF735FE1D4BC5
:104700001C601D4B23B11D48AFF300801C4B18608B
:1047100000240AE0E31A03EB43031A4A02EBC30343
:1047200083B11B6898470134E4B2144B1B78A34251
:1047300011D3A342EED9124B1B6804EB440203EBE6
:10474000C203EDE74FF0E023D3F8F03D13F0010F83
:10475000CAD000BEC8E70C4B1D70284601F0F8FD1A
:10476000284601F0AFFD0126BEE700BF6C03002024
:104770001C000020980300200000000068030020B7
:10478000640300202C7100082C000020F0B585B0D7
:1047900005460E464378023B032B00F2C680DFE855
:1047A00003F002922C506F4B1A786FF300021A70CC
:1047B0001A786FF341021A70002159701A7861F368
:1047C00082021A70684B1F6816B93B680846984702
:1047D0002946381DFFF79BFD044616B93B680120AA
:1047E00098470CB105B0F0BD4FF0E023D3F8F03D91
:1047F00013F0010FF6D000BEF4E75A4B1B7813F00C
:10480000010FEFD0574A137843F004031370564B4F
:104810001F6811B93B68002098472946381DFFF7EB
:1048200076FD044616B93B6801209847002CD9D183
:104830004FF0E023D3F8F03D13F0010FD2D000BECB
:10484000D0E7484B1B7813F0010FCBD0454A1378C3
:104850006FF382031370444B1F6811B93B6800204B
:1048600098472946381DFFF752FD044616B93B68A4
:1048700001209847002CB5D14FF0E023D3F8F03D4C
:1048800013F0010FAED000BEACE7E31A03EB430315
:10489000364A02EBC3030DE00134E4B2344B1B781B
:1048A000A34212D3A342F0D9324B1B6804EB44025B
:1048B00003EBC203002BEFD05B69002BECD06968DF
:1048C00028789847E8E70024E8E7264B1B7813F0A0
:1048D000040F87D0234A13786FF3820313700023E9
:1048E0000193029303932B788DF8043005238DF800
:1048F00005301D4B1D6816B92B680020984701A98B
:10490000281DFFF704FD044616B92B6801209847BF
:10491000002C7FF467AF4FF0E023D3F8F03D13F0A5
:10492000010F3FF45FAF00BE5CE70F4B1F6811B98A
:104930003B68002098472946381DFFF7E8FC0446ED
:1049400016B93B6801209847002C7FF44BAF4FF01D
:10495000E023D3F8F03D13F0010F3FF443AF00BE66
:1049600040E700BF6C030020980300202C71000872
:10497000680300206403002038B5134B1D788B7842
:1049800003F07F03052B09D94FF0E023D3F8F03D66
:1049900013F0010F00D000BE002038BD0C460B4BB9
:1049A00099782046FFF7ADF940B94FF0E023D3F8EE
:1049B000F03D13F0010FF0D000BEEEE7214628468F
:1049C00001F012FDE9E700BF2C0000206C0300207D
:1049D00008B501F07F00400000EBD1101830034B08
:1049E000184400210730FFF758F908BD6C03002078
:1049F00008B501F07F00400000EBD1101830034BE8
:104A0000184400210730FFF767F908BD6C03002048
:104A100070B51C48007801F07F051B4C04EB450C79
:104A20000CEBD11C9CF81F4014F0010F09D04FF083
:104A3000E023D3F8F03D13F0010F00D000BE0020BA
:104A400070BDCE09104C04EB4504344494F81FC0EB
:104A50004CF0010C84F81FC0183401F0A5FD0028AB
:104A6000EED1E3796FF30003E371E3796FF382032F
:104A7000E3714FF0E023D3F8F03D13F0010FDFD0E6
:104A800000BEDDE72C0000206C03002038B50F4B82
:104A9000187801F07F050E4B03EB450303EBD113B0
:104AA0001833DB7913F0020F00D038BDCC0901F0C8
:104AB000CDFD074B03EB45032344DA7F42F00202AE
:104AC000DA77DA7F42F00102DA77EEE72C00002095
:104AD0006C03002038B50F4B187801F07F050E4BA2
:104AE00003EB450303EBD1131833DB7913F0020F0B
:104AF00000D138BDCC0901F0AFFD074B03EB4503F6
:104B00002344DA7F6FF34102DA77DA7F6FF3000232
:104B1000DA77EEE72C0000206C03002001F07F0222
:104B2000044B03EB420303EBD111C87FC0F34000F9
:104B3000704700BF6C0300202DE9F04182B00546AC
:104B40000C46002000F07CFB237803F06003602B10
:104B500016D0402B20D0227802F01F02012A00F04C
:104B6000FB80022A00F040811AB34FF0E023D3F813
:104B7000F03D13F0010F00F0CF8100BE002008E0EF
:104B80004FF0E023D3F8F03D13F0010F00D000BE4A
:104B9000002002B0BDE8F081A94B002B00F0A881F5
:104BA000184600F04DFB224601212846AFF3008055
:104BB000EFE7202B0BD073BB6378092B00F2C18089
:104BC000DFE803F0AC9CBF8CBF3387BF424FA388A4
:104BD000DBB20F2B00F28E819A4A1344DB789A4A9B
:104BE000127893420DD2994A116803EB430301EB0B
:104BF000C301002900F0828122462846FFF706FC07
:104C0000C7E7934200F278819B1A03EB4303904974
:104C100001EBC301EDE74FF0E023D3F8F03D13F0D3
:104C2000010F00D000BE0020B3E7204600F00EFBCD
:104C30006188C9B2284601F0F5FC824A137843F036
:104C4000020313700120A4E77E4B5B788DF80630D9
:104C500001230DF106022146284600F09FFA0120AB
:104C600097E76688F6B2774B5B78DBB2B34207D042
:104C7000744B5B7863B9BEB9764B0BB1FBF790FF11
:104C8000704B5E702146284600F06EFA012080E7E6
:104C9000284601F05DFC6B4F97F802802846FFF72D
:104CA00069FB87F80280E6E731462846FFF7BCFB40
:104CB00028B1694B002BE3D0FBF76AFFE0E74FF028
:104CC000E023D3F8F03D13F0010F3FF462AF00BED4
:104CD0005FE721462846FFF76BFC5AE76388012B04
:104CE00001D0002055E7574A137843F008031370AA
:104CF0002146284600F038FA01204AE76388012B54
:104D000001D0002045E74F4B1A786FF3C3021A70A9
:104D10002146284600F028FA01203AE7494B1A7844
:104D2000930803F00203C2F340121343ADF80630B8
:104D300002230DF106022146284600F02FFA012039
:104D400027E74FF0E023D3F8F03D13F0010F00F018
:104D5000D78000BE00201CE7A388DBB20F2B00F237
:104D6000D180384A1344DB78374A1278934225D2EF
:104D7000364A116803EB430301EBC301002900F03D
:104D8000C58022462846FFF741FB00287FF401AF8B
:104D9000237813F0600F7FF4FCAE63780A3B012B9D
:104DA0003FF6F7AE002000F04BFA63780A2B0FD0E5
:104DB0002146284600F0D8F90120EAE6934200F2A5
:104DC000A3809B1A03EB4303214901EBC301D5E701
:104DD00000238DF8063001230DF1060221462846F6
:104DE00000F0DCF90120D4E6A288D1B202F07F0CF9
:104DF000C2F3C012BCF1050F17D8124800EB4C00EB
:104E00000244D27C10480078824227D20F480668BC
:104E100002EB420206EBC2065BB3002E78D02246BC
:104E200031462846FFF7F2FAB3E64FF0E023D3F815
:104E3000F03D13F0010F00D000BE0020A9E600BF36
:104E4000000000006C0300206803002064030020C1
:104E50002C710008A10B0008910B0008824206D8B3
:104E6000121A02EB42022D4E06EBC206D4E70026D0
:104E7000D2E76378012B1AD0032B18D04BB14FF037
:104E8000E023D3F8F03D13F0010F00D000BE002066
:104E90007FE62846FFF742FEADF8060002230DF13B
:104EA00006022146284600F079F9012071E6628861
:104EB00022B9012B18D02846FFF7E8FD56B3224649
:104EC00031462846FFF7A2FA002000F0B9F9144B4A
:104ED00093F8203013F001007FF45BAE21462846A2
:104EE00000F042F9012054E62846FFF7F3FDE5E71C
:104EF00000204EE600204CE600204AE6002048E66E
:104F0000002046E6002044E6002042E6002040E67D
:104F100000203EE601203CE600203AE62C71000825
:104F20006C03002030B585B0FFF7D0FB48B905B061
:104F300030BD9DF80400FFF763FA9DF808206B4B25
:104F40009A706B4B1D682C4654F8043B0020984720
:104F500001A92046FFF7BFF904462B6801209847B6
:104F6000002CE4D09DF80530013B072B00F2B48003
:104F700001A252F823F000BF334F0008994F0008F8
:104F8000D95000088F500008B1500008AD4F0008FC
:104F900003500008CB5000089DF80400FFF730FADA
:104FA000544B002BCDD0FBF7FBFDCAE74F4B1A78D3
:104FB00042F001021A70DA7F6FF30002DA77DA7FCB
:104FC0006FF38202DA7793F820206FF3000283F800
:104FD000202093F820206FF3820283F8202002A97A
:104FE0009DF80400FFF7A8FD0028AAD100219DF834
:104FF000040001F02BFB80219DF8040001F026FB4A
:105000009FE79DF8081001F07F00CC09374B03EBB8
:10501000400303EBD113DA7F6FF30002DA77DA7F14
:105020006FF38202DA77B8B1304B03EB40032344CD
:10503000DB7C314A1278934216D2304A126803EB75
:10504000430302EBC303C3B11C69039B9DF8092012
:105050009DF80400A04774E7039B9DF809209DF884
:10506000040000F001F96CE7934206D89B1A03EBA9
:105070004303234A02EBC303E5E74FF0E023D3F8F1
:10508000F03D13F0010F3FF452AF00BE4FE7174B56
:105090001B7813F0010F3FF454AF1A4B002B3FF471
:1050A00050AF124B1878C0F3C000FBF77FFD48E704
:1050B0000E4B1B7813F0010F3FF443AF124B002B44
:1050C0003FF43FAFFBF77AFD3BE7029B002B3FF439
:1050D00038AF0398984734E74FF0E023D3F8F03D1A
:1050E00013F0010F3FF42DAF00BE2AE76C03002040
:1050F00098030020A10B000868030020640300202F
:105100002C710008AD0B0008BD0B0008F8B5074670
:10511000134B9E89DD89741BA4B2402C28BF402408
:1051200093F90030002B08DB0021AE4213D00D4A6A
:1051300023463846FFF76CFCF8BDAE4209D0084B59
:105140009968402C09D822460648FBF7A1F880212F
:10515000EBE78021E9E70022EAE70020ECE700BF67
:105160005C0400207004002008B586460B460A4AFD
:10517000944608684968ACE8030000219160D18139
:10518000918193F900308B4200DB802100231A4685
:105190007046FFF73DFC08BD5C04002038B50546AD
:1051A0008C46214CA64608684968AEE80300A26018
:1051B0000021E181BCF806108B4228BF0B46A38179
:1051C000BCF80610C9B103B122B12846FFF79EFF13
:1051D00050B138BD4FF0E023D3F8F03D13F0010F8C
:1051E00000D000BE0020F4E74FF0E023D3F8F03DFC
:1051F00013F0010FEDD000BEEBE79CF90030002B5F
:1052000010DB802100231A462846FFF701FC002806
:10521000DFD14FF0E023D3F8F03D13F0010FD8D0E9
:1052200000BED6E70021EDE75C040020034B00221E
:105230001A605A609A60DA601A6170475C04002054
:10524000014B1861704700BF5C0400200146054B0C
:105250001A460068496803C200229A60DA819A817E
:10526000704700BF5C04002038B505461C463A4B29
:105270001B78DB09B3EBD11F18D04CB14FF0E02302
:10528000D3F8F03D13F0010F00D000BE002038BD70
:10529000324B13B13049AFF300802F4B1B691BB168
:1052A0002D4A0321284698470120F0E72A4B93F91D
:1052B0000030002B07DB284B9868002849D0224695
:1052C0002749FAF7E5FF244AD38913FA84F39BB2FE
:1052D000D381916821449160D288934201D03F2CC0
:1052E00029D81D4B1B6923B11B4A02212846984728
:1052F000B8B1194B93F90030002B10DB802100234B
:105300001A462846FFF784FB0028C0D14FF0E0235F
:10531000D3F8F03D13F0010FB9D000BEB7E700217C
:10532000EDE70021284601F091F98021284601F09F
:105330008DF90120ABE72846FFF7E8FE0028A6D14B
:105340004FF0E023D3F8F03D13F0010F9FD000BEE3
:105350009DE700209BE700BF5C04002000000000E8
:105360007004002038B5044600F110052846FEF709
:105370009CFF3F2800D838BDA1780020FFF728FB0C
:105380000028F8D02846FEF790FF3F2807D9402391
:1053900004F1A802A1780020FFF73AFBEBE7A1781F
:1053A0000020FFF725FBE6E770B5044600F11C0579
:1053B0002846FEF752FF08B9002070BD6178002032
:1053C000FFF706FB08B90020F7E704F1E8064022E2
:1053D00031462846FEF791FF054690B10346324616
:1053E00061780020FFF714FB48B94FF0E023D3F8B1
:1053F000F03D13F0010F00D000BE0020DDE728468D
:10540000DBE761780020FFF7F3FA0020D5E7000022
:1054100038B5084C4FF4947500FB05F505F1100004
:105420002044FEF71AFF2C44A37B627B9B1A50FAA0
:1054300083F038BDB004002038B50E4C4FF494739F
:1054400003FB0044A3780BB9002038BD4FF49473DC
:1054500003FB00F010300422064B1844FEF74DFF0A
:1054600005462046FFF77EFF042D14BF00200120D3
:10547000EBE700BFB00400202DE9F84F1F46914B29
:105480004FF4947A0AFB003A9AF80130002B00F0AE
:10549000168105468946904600267FE0F72A07D008
:1054A000884B4FF4947202FB053304221A726CE0AD
:1054B0004FEA091242F00502824B4FF4947101FB4E
:1054C0000533DA70187260E041EA09117D4B4FF440
:1054D000947202FB0533D97004221A7255E041EA36
:1054E0000911784B4FF4947202FB0533D9700322F3
:1054F0001A724AE0F02A0FD0F12A16D0F32A14D0FB
:10550000F22A27D06F4B4FF4947202FB0533052229
:10551000DA7002221A7211E06A4B4FF4947202FBA5
:1055200005330422DA701A7208E0664B4FF4947265
:1055300002FB05330222DA7003221A724FEA0913C2
:10554000DBB2604A4FF4947101FB0522D1780B4322
:10555000D3701AE05B4B4FF4947202FB05330322C5
:10556000DA7004221A72E9E7032B63D855494FF425
:10557000947000FB0511C818C2700133DBB2CB7107
:10558000C97801F00F0104295DD04E4B4FF494729D
:1055900002FB0533DA791B7A9A426CD0BE4280F066
:1055A00088804FF4947405FB04F41834454B1C4474
:1055B00004342046FEF779FE03287AD918F806202D
:1055C0000136404B4FF4947101FB0533DB79002B1E
:1055D000CAD111093B4B4FF4947000FB05330220F4
:1055E000D8711A71DB7803F00F03042B3FF456AF28
:1055F000A1F10803DBB2032B7FF666AF0E293FF45F
:1056000063AFA1F10C03DBB2012B7FF668AF0F296A
:105610003FF470AF4FEA091242F00F02294B4FF4EA
:10562000947101FB0533DA7000225A719A710222DB
:105630001A72AAE74FF0E023D3F8F03D13F0010F00
:105640003AD000BE38E0F72A9FD1DA1C52B242EAC3
:1056500009121C494FF4947000FB0511CA700B72BB
:1056600093E7184A4FF4947101FB05221A44002174
:10567000D1700133DBB2032BF3D9124B4FF4947B7F
:105680000BFB053B04220BF103012046FEF762FEF3
:1056900000238BF808308BF8073004283FF47EAFE6
:1056A0004FF0E023D3F8F03D13F0010F04D000BE1B
:1056B00002E05046FFF778FE3046BDE8F88F00263E
:1056C000FAE700BFB0040020F0B583B04FF4947245
:1056D00000211348FAF776FE00250DB103B0F0BDA6
:1056E0000F4F4FF4947405FB04F404F1280104F106
:1056F0001000002600960123402239443844FEF76A
:1057000096FD04F1680104F1180038440096012365
:10571000402239440430FEF78AFD0135EDB2DCE762
:10572000B004002070B5002505B170BD0B4E4FF4DC
:10573000947405FB04F432190023335153609360D1
:10574000D36004F110003044FEF70EFE18343444E8
:10575000201DFEF709FE0135EDB2E5E7B00400209B
:105760002DE9F0474B79012B40F08680064615461F
:105770008B79012B40F08480CB79002B40F0828024
:105780000C78A3B20C446278242A06D1AB4204D828
:10579000227813449BB21444F5E7042A74D1627949
:1057A000012A73D1A279032A72D194F80780B8F143
:1057B000000F6FD142466AB14FF00009B9F1000FF6
:1057C0001CD0A27889F8002094F800A053449FB21E
:1057D000A24437E0174630494FF4947000FB0211A1
:1057E000497821B92C4900FB0211897811B10132A5
:1057F000D2B2E0E7284A00FB0729DFE74FF0E023B9
:10580000D3F8F03D13F0010F00D000BE002734E0C4
:105810004FF0E023D3F8F03D13F0010F00D000BEAD
:1058200000272AE089F801309AF80020D3199FB2A6
:10583000924408F101085FFA88F89AF80020D31919
:105840009FB292442379434512D9AF4210D89AF8B7
:105850000130052BF1D151463046FFF78DF8002875
:10586000D6D09AF80230DA09DCD189F80230DBE7C9
:105870004846FFF777FD00E000273846BDE8F0878F
:105880000027FAE70027F8E70027F6E70027F4E704
:105890000027F2E70027F0E7B0040020002070475F
:1058A000F8B506461F4600244CB1B4B9AB788B421C
:1058B0001DD06B788B422BD001242046F8BD264D9D
:1058C0004FF4947303FB0455AB788B42EDD06B78A7
:1058D0008B42EAD00134E4B2E6E74FF0E023D3F89C
:1058E000F03D13F0010F00D000BE0024E5E7BAB28E
:1058F00005F1A80105F11000FEF72CFD174B13B1BF
:105900002046AFF300802846FFF72CFD0124D4E7A2
:105910002846FFF749FD08B10124CEE705F11C0038
:10592000FEF79BFCA0B9AFB117F03F0F01D00124E7
:10593000C3E769783046FFF74BF8044608B90124FD
:10594000BBE700231A4669783046FFF761F8B4E7F1
:105950000124B2E70124B0E7B004002000000000F9
:1059600010B40E4B020103EB00109C58017A002387
:10597000184608E00A4A02EB43125289904238BFA7
:1059800010460133DBB28B42F4D301EB90035B0092
:105990000F339BB263625DF8044B7047447100089B
:1059A000EC050020F0B5BDF814400001404D2D5825
:1059B000084671B93F4F37F8121002EB40043E4ED3
:1059C00006EB041464898C4228BF0C46091B27F897
:1059D0001210012A20D005F530614FEA401E01EB7C
:1059E000401CDCF8106006F06046CCF81060DCF873
:1059F000106044EAC3443443CCF8104051F80E30F0
:105A000043F0044341F80E3051F80E3003F44023C4
:105A1000B3F5802F33D0F0BD05F51061460101EBE1
:105A2000401744EAC3433B618B5943F004438B5115
:105A30008B5903F44023B3F5802F0AD0002CEAD011
:105A4000D5F83428012303FA00F00243C5F83428BE
:105A5000E1E702EB4002184B03EB0212137B012B30
:105A6000ECD1D5F808288B5912F4807F04D04FF080
:105A7000805213438B51E1E74FF00052F9E702EBFC
:105A800040020D4B03EB0212137B012BC3D1D5F85F
:105A9000082851F80E3012F4807F05D04FF0805264
:105AA000134341F80E30B6E74FF00052F8E700BF5D
:105AB00044710008E8050020EC050020036943F06C
:105AC00001030361036913F0010FFBD10369002B8C
:105AD000FCDA70470020704738B50446C56890F876
:105AE000483003F0C003802B09D025F0580590F80A
:105AF000513013F0C00F08D045F0080505E025F43B
:105B0000681525F0C80545F01005E56094F84830A3
