:020000040800F2
:10000000008001209D3D0008991100089B11000807
:100010009D1100089F110008A111000800000000B8
:10002000000000000000000000000000A311000814
:10003000A511000800000000A7110008A911000880
:10004000ED3D0008ED3D0008ED3D0008ED3D0008E8
:10005000ED3D0008ED3D0008ED3D0008ED3D0008D8
:10006000ED3D0008ED3D0008ED3D0008ED3D0008C8
:10007000B1110008C1110008D1110008ED3D0008C0
:10008000ED3D0008ED3D0008ED3D0008ED3D0008A8
:10009000ED3D0008ED3D0008ED3D0008ED3D000898
:1000A000ED3D0008ED3D0008ED3D0008ED3D000888
:1000B000ED3D0008ED3D0008ED3D0008ED3D000878
:1000C000ED3D0008ED3D0008ED3D0008E1110008A0
:1000D000F1110008ED3D0008ED3D0008ED3D000880
:1000E000ED3D0008ED3D0008ED3D0008ED3D000848
:1000F000ED3D0008ED3D0008ED3D0008ED3D000838
:10010000ED3D0008ED3D0008ED3D0008ED3D000827
:10011000ED3D0008ED3D0008ED3D0008ED3D000817
:10012000ED3D0008ED3D0008ED3D0008ED3D000807
:10013000ED3D0008ED3D0008ED3D0008ED3D0008F7
:10014000ED3D0008ED3D0008ED3D0008ED3D0008E7
:10015000ED3D0008ED3D0008ED3D0008ED3D0008D7
:10016000ED3D0008ED3D0008ED3D0008ED3D0008C7
:10017000ED3D0008ED3D0008ED3D000800000000E9
:08018000ED3D0008ED3D000813
:100188000348044B834202D0034B03B1184770471E
:10019800100000201000002000000000054806495B
:1001A8000B1AD90F01EBA301491002D0034B03B17D
:1001B80018477047100000201000002000000000C1
:1001C80010B5064C237843B9FFF7DAFF044B13B197
:1001D8000448AFF300800123237010BD10000020F5
:1001E80000000000F03D000808B5044B1BB10449AD
:1001F8000448AFF30080BDE80840CFE700000000E6
:1002080014000020F03D000870B50D4E0D4D761B12
:10021800B61006D0002455F8043B01349847A6428E
:10022800F9D1094E094D761B03F0DEFDB61006D054
:10023800002455F8043B01349847A642F9D170BD13
:10024800583E0008583E00085C3E0008583E00082A
:10025800830730B548D0541E002A3FD0CAB203469F
:1002680001E0013C3AD303F8012B9D07F9D1032C97
:100278002DD9CDB245EA05250F2C45EA054536D9D5
:10028800A4F1100222F00F0C03F1200EE6444FEA0D
:10029800121C03F1100242E9045542E902551032DA
:1002A8007245F8D10CF1010214F00C0F03EB0212A5
:1002B80004F00F0C13D0ACF1040323F00303043350
:1002C800134442F8045B9342FBD10CF003042CB1B5
:1002D800CAB21C4403F8012B9C42FBD130BD6446D2
:1002E8001346002CF4D1F9E703461446BFE71A4633
:1002F800A446E0E753B94AB9002908BF00281CBF43
:100308004FF0FF314FF0FF3000F074B9ADF1080C39
:100318006DE904CE00F006F8DDF804E0DDE902231B
:1003280004B070472DE9F047089D04468E46002B1F
:100338004DD18A42944669D9B2FA82F252B101FA91
:1003480002F3C2F1200120FA01F10CFA02FC41EAA1
:10035800030E94404FEA1C48210CBEFBF8F61FFA26
:100368008CF708FB16E341EA034306FB07F19942C1
:100378000AD91CEB030306F1FF3080F01F81994274
:1003880040F21C81023E63445B1AA4B2B3FBF8F04E
:1003980008FB103344EA034400FB07F7A7420AD9D5
:1003A8001CEB040400F1FF3380F00A81A74240F2FD
:1003B80007816444023840EA0640E41B00261DB168
:1003C800D4400023C5E900433146BDE8F0878B429D
:1003D80009D9002D00F0EF800026C5E9000130465C
:1003E8003146BDE8F087B3FA83F6002E4AD18B4236
:1003F80002D3824200F2F980841A61EB03030120E0
:100408009E46002DE0D0C5E9004EDDE702B9FFDECB
:10041800B2FA82F2002A40F09280A1EB0C014FEA76
:100428001C471FFA8CFE0126200CB1FBF7F307FBD3
:10043800131140EA01410EFB03F0884208D91CEB76
:10044800010103F1FF3802D2884200F2CB80434613
:10045800091AA4B2B1FBF7F007FB101144EA0144F2
:100468000EFB00FEA64508D91CEB040400F1FF3181
:1004780002D2A64500F2BB800846A4EB0E0440EA6F
:1004880003409CE7C6F12007B34022FA07FC4CEA78
:10049800030C20FA07F401FA06F31C43F9404FEA6B
:1004A8001C4900FA06F3B1FBF9F8200C1FFA8CFE80
:1004B80009FB181140EA014108FB0EF0884202FAD4
:1004C80006F20BD91CEB010108F1FF3A80F0888095
:1004D800884240F28580A8F102086144091AA4B252
:1004E800B1FBF9F009FB101144EA014100FB0EFED3
:1004F8008E4508D91CEB010100F1FF346CD28E4502
:100508006AD90238614440EA0840A0FB0294A1EB92
:100518000E01A142C846A64656D353D05DB1B3EBEF
:10052800080261EB0E0101FA07F722FA06F3F1401F
:100538001F43C5E9007100263146BDE8F087C2F1C6
:100548002003D8400CFA02FC21FA03F3914001433E
:100558004FEA1C471FFA8CFEB3FBF7F007FB103677
:100568000B0C43EA064300FB0EF69E4204FA02F423
:1005780008D91CEB030300F1FF382FD29E422DD976
:10058800023863449B1B89B2B3FBF7F607FB1633AB
:1005980041EA034106FB0EF38B4208D91CEB01012B
:1005A80006F1FF3816D28B4214D9023E6144C91AAB
:1005B80046EA004638E72E46284605E70646E3E6BB
:1005C8001846F8E64B45A9D2B9EB020864EB0C0EC5
:1005D8000138A3E74646EAE7204694E74046D1E7D4
:1005E800D0467BE7023B614432E7304609E7644482
:1005F800023842E7704700BF2DE9F04F8DB0002464
:100608000794089409940A940B94A84BDA6C42F066
:100618001002DA64DA6C02F010020192019ADA6CC4
:1006280042F00402DA64DA6C02F004020292029ADE
:10063800DA6C42F08002DA64DA6C02F0800203922B
:10064800039ADA6C42F00102DA64DA6C02F0010211
:100658000492049ADA6C42F00202DA64DA6C02F06C
:1006680002020592059ADA6C42F00802DA64DB6C41
:1006780003F008030693069B8D4F224641F6096155
:10068800384602F052FB224620214FF0904002F0FB
:100698004CFBDFF8248222460C21404602F045FB41
:1006A800DFF818A222464FF40061504602F03DFBE5
:1006B800224680217F4802F038FBF4230793022664
:1006C800089609944FF00309CDF828900D230B9351
:1006D80007A9384602F022FA08230793012508954E
:1006E80009940A9607A9384602F018FA4FF41053ED
:1006F80007934FF4901BCDF820B0099407A95046F2
:1007080002F00CFA40F2C73307930894099407A93A
:10071800504602F003FA38230793089609940A947E
:100728000B230B9307A9504602F0F8F90723079308
:100738000894099507A94FF0904002F0EFF90823B3
:1007480007930894099607A94FF0904002F0E6F93C
:1007580010230793CDF820B0099407A94FF09040D3
:1007680002F0DCF920230793089509940A9407A955
:100778004FF0904002F0D2F94FF2332307930896D6
:1007880009940A940B230B9307A9404602F0C6F973
:100798000423079308950995CDF8289007A94046A2
:1007A80002F0BCF94FF4807307930894099507A9E0
:1007B800384602F0B3F941F60163079308950994A6
:1007C8000A9407A9384602F0A9F94FF44063079341
:1007D800122308930994CDF8289004230B9307A9B2
:1007E800404602F09BF94FF47F430793089609941B
:1007F8000A940B230B9307A92E4802F08FF94FF4A4
:1008080003430793089609940A940B230B9307A9AB
:100818004FF0904002F082F94FF4E05307930896A6
:100828000994CDF828900A230B9307A94FF090401C
:1008380002F074F94FF400630793089509940A9439
:1008480007A9504602F06AF905230793CDF820B0AE
:10085800099407A9174802F061F9802307930895BE
:100868000994CDF8289007A9124802F057F90823EF
:100878000793089509940A9407A9404602F04EF98F
:100888004FF480730793CDF820B0099407A9404628
:1008980002F044F90796CDF820B0099407A9384624
:1008A80002F03CF90DB0BDE8F08F00BF0010024027
:1008B80000100048000C00480004004800080048E8
:1008C80000B583B0124B9A6C42F001029A649B6C9B
:1008D80003F001030193019B002211460C2002F052
:1008E80099FB0C2002F0CEFB002211460D2002F0ED
:1008F80091FB0D2002F0C6FB002211460E2002F0EB
:1009080089FB0E2002F0BEFB03B05DF804FB00BFBC
:100918000010024000230B2B00F3328110B40BE0CF
:1009280003F1804CACF1060C51F82C40B4F5167F5D
:100938000BD801330B2B07DC052BF1DC50F82340D7
:10094800B4F5167FF5D900E00C232ABB002B00F084
:100958009D80012B00F09E80022B00F09D80032BD0
:1009680000F09C80042B00F09B80052B00F09A80FF
:10097800062B00F09980072B00F09880082B00F0D8
:100988009780092B00F096800A2B00F095800B2B9E
:1009980000F0948000207AE0012A29D0022A41D070
:1009A800032A59D0002B00F0D380012B00F0D2800D
:1009B800022B00F0D180032B00F0D080042B00F034
:1009C800CF80052B00F0CE80062B00F0CD80072BC2
:1009D80000F0CC80082B00F0CB80092B00F0CA80F7
:1009E8000A2B00F0C9800B2B00F0C88000204EE0D5
:1009F800002B65D0012B65D0022B65D0032B65D069
:100A0800042B65D0052B65D0062B65D0072B65D048
:100A1800082B65D0092B65D00A2B65D00B2B65D028
:100A2800002034E0002B63D0012B63D0022B63D06D
:100A3800032B63D0042B63D0052B63D0062B63D024
:100A4800072B63D0082B63D0092B63D00A2B63D004
:100A58000B2B63D000201AE0002B61D0012B61D052
:100A6800022B61D0032B61D0042B61D0052B61D000
:100A7800062B61D0072B61D0082B61D0092B61D0E0
:100A88000A2B61D00B2B61D0002000E003205DF819
:100A9800044B70470720FAE70B20F8E70F20F6E72A
:100AA8001320F4E71720F2E71B20F0E71F20EEE7FA
:100AB8002320ECE72720EAE72B20E8E72F20E6E7CA
:100AC8003620E4E73A20E2E73E20E0E74220DEE78E
:100AD8004620DCE74A20DAE74E20D8E75220D6E75E
:100AE8005620D4E75A20D2E75E20D0E76220CEE72E
:100AF8006920CCE76D20CAE77120C8E77520C6E7F2
:100B08007920C4E77D20C2E78120C0E78520BEE7C1
:100B18008920BCE78D20BAE79120B8E79520B6E791
:100B28009C20B4E7A020B2E7A420B0E7A820AEE755
:100B3800AC20ACE7B020AAE7B420A8E7B820A6E725
:100B4800BC20A4E7C020A2E7C420A0E7C8209EE7F5
:100B5800CF209CE7D3209AE7D72098E7DB2096E7B9
:100B6800DF2094E7E32092E7E72090E7EB208EE789
:100B7800EF208CE7F3208AE7F72088E7FB2086E759
:100B88000C232ABB002B00F09D80012B00F09C80D9
:100B9800022B00F09B80032B00F09A80042B00F0BE
:100BA8009980052B00F09880062B00F09780072B82
:100BB80000F09680082B00F09580092B00F09480B7
:100BC8000A2B00F093800B2B00F0928000207047D6
:100BD800012A29D0022A41D0032A59D0002B00F03B
:100BE800D180012B00F0D080022B00F0CF80032BA6
:100BF80000F0CE80042B00F0CD80052B00F0CC80D7
:100C0800062B00F0CB80072B00F0CA80082B00F0E1
:100C1800C980092B00F0C8800A2B00F0C7800B2B75
:100C280000F0C68000207047002B63D0012B63D0F2
:100C3800022B63D0032B63D0042B63D0052B63D026
:100C4800062B63D0072B63D0082B63D0092B63D006
:100C58000A2B63D00B2B63D000207047002B61D088
:100C6800012B61D0022B61D0032B61D0042B61D002
:100C7800052B61D0062B61D0072B61D0082B61D0E2
:100C8800092B61D00A2B61D00B2B61D00020704753
:100C9800002B5FD0012B5FD0022B5FD0032B5FD0DE
:100CA800042B5FD0052B5FD0062B5FD0072B5FD0BE
:100CB800082B5FD0092B5FD00A2B5FD00B2B5FD09E
:100CC8000020704703207047072070470B207047AB
:100CD8000F20704713207047172070471B2070475C
:100CE8001F20704723207047272070472B2070470C
:100CF8002F207047362070473A2070473E207047B3
:100D080042207047462070474A2070474E2070475F
:100D180052207047562070475A2070475E2070470F
:100D280062207047692070476D20704771207047B6
:100D380075207047792070477D2070478120704763
:100D480085207047892070478D2070479120704713
:100D5800952070479C207047A0207047A4207047BA
:100D6800A8207047AC207047B0207047B420704767
:100D7800B8207047BC207047C0207047C420704717
:100D8800C8207047CF207047D3207047D7207047BE
:100D9800DB207047DF207047E3207047E72070476B
:100DA800EB207047EF207047F3207047F72070471B
:100DB800FB20704772B6FEE708B50F480F4B03607B
:100DC8004FF482734360002383604FF4E062C26093
:100DD800036143614FF4007282612022C2610362A1
:100DE800436283620722C2620363436302F081FAAB
:100DF80000B908BDFFF7DEFFA40100200030014064
:100E080008B51148114B0360114B43600023836000
:100E18000122C260036143618361C361036200F020
:100E280090FC50B90021084800F0A8FD38B900210D
:100E3800054800F0D1FD20B908BDFFF7BBFFFFF75B
:100E4800B9FFFFF7B7FF00BF500100200054004072
:100E5800EC9C901008B50F480F4B03604FF4827359
:100E68004360002383604FF4E062C2600361436122
:100E78004FF400728261C36180220262436283621E
:100E88000722C2620363436302F033FA00B908BD64
:100E9800FFF790FF080200200038004008B50B4813
:100EA8000B4B03604FF4E133436000238360C3605E
:100EB80003610C2242618361C3610362436202F0F1
:100EC80038FF00B908BDFFF775FF00BF6C020020AE
:100ED8000044004000B597B04422002105A8FFF760
:100EE800B7F90023009301930293039304934FF4FB
:100EF800007002F035F828BB1023059301220B92ED
:100F080000230C9360230D9302230F9310921192E8
:100F180028221292072213921493159305A800F021
:100F280079FE88B90F2300930323019300230293CA
:100F3800039304930421684601F07AF930B917B095
:100F48005DF804FBFFF736FFFFF734FFFFF732FFCA
:100F580000B5A3B0882200216846FFF779F94FF45D
:100F6800005300934FF080631B9301230193029376
:100F780018230393072304930223059306934FF43E
:100F880080130793684601F09FFB10B923B05DF802
:100F980004FBFFF70FFF00002DE9F04782B000F0D7
:100FA8006FFDFFF797FFFFF7D3FFFFF725FBFFF76D
:100FB80087FCFFF701FFFFF723FFFFF74BFFFFF762
:100FC8006DFF6B4B01241C7080225A7000279F70A4
:100FD800684A102313704FF47A73009323465821FC
:100FE800654800F00DFC654D22464FF480512846B7
:100FF80001F09BFE22464FF40061284601F095FE61
:10100800B846B946022676E04FF00109042681E089
:101018004FF00108002693E0230163F07F03DFF817
:1010280050A18AF80130554D00224FF480512846CE
:1010380001F07BFE524F4FF47A73009303233A4634
:101048005146504802F0C4F97B781B0203F4407300
:10105800BA7813434C4A42F8243001224FF48051A5
:10106800284601F062FE0134072CD5DD002427E074
:10107800230163F07F03DFF8F8A08AF801303F4DC1
:1010880000224FF40061284601F04FFE3C4F4FF418
:101098007A73009303233A4651463A4802F098F986
:1010A8007B781B0203F44073BA781343374A42F83B
:1010B800243001224FF40061284601F036FE013445
:1010C800072CD5DD4FF480712C4801F027FE00284D
:1010D80040D1284C0023237032462C492A48FFF778
:1010E80019FC60704FF47A7300930223224658214A
:1010F800214800F085FB02214FF0904001F00EFEE0
:1011080040B9B9F1000F05D10136042E3FF77CAF85
:101118004FF0010902214FF0904001F0FFFD08B1A6
:101128004FF0000904214FF0904001F0F7FD38B965
:10113800B8F1000F04D1013E3FF56AAF4FF0010846
:1011480004214FF0904001F0E9FD08B14FF000088C
:10115800002489E7074A0023137053704FF47A7309
:10116800009302235821044800F04AFBC3E700BF5C
:10117800740000206C00002050010020001000487E
:1011880070000020A40100202C0000204C0000204A
:10119800FEE7FEE7FEE7FEE7FEE7704770477047A9
:1011A80008B500F083FC08BD08B5024801F06EFEE2
:1011B80008BD00BF7800002008B5024801F066FEAF
:1011C80008BD00BFC000002008B5024801F05EFE5F
:1011D80008BD00BF0801002008B5024802F068FAFF
:1011E80008BD00BFA401002008B5024802F060FA5B
:1011F80008BD00BF0802002082B00A4B1A6E42F0F8
:1012080001021A661A6E02F001020092009A9A6DA3
:1012180042F080529A659B6D03F080530193019BC5
:1012280002B070470010024010B5AAB00446002171
:1012380025912691279128912991882203A8FFF7C3
:1012480007F82268174B9A4201D02AB010BD4023F4
:10125800039303A801F038FA08BB134CE36C43F07E
:101268000203E364E36C03F002030193019BC023D0
:1012780025931223269300232793032328930423DB
:10128800299325A9094801F049FCA36D43F40013EB
:10129800A365A36D03F400130293029BD5E7FFF740
:1012A80089FDDAE7005400400010024000040048BD
:1012B80010B58AB004460023059306930793089354
:1012C800099303684F4A934204D04F4A934259D036
:1012D8000AB010BD4D4B1A6E42F480521A661A6E4F
:1012E80002F480520192019ADA6C42F01002DA6438
:1012F800DB6C03F010030293029B4FF460430593E9
:1013080002230693032308930523099305A940485C
:1013180001F004FC3F48404B036001234360102365
:1013280083600023C3608022026143618361C361DB
:10133800036201F0FFFCF8B9364B63659C623748DD
:10134800374B03600123436000238360C36080221E
:10135800026143618361C361036201F0EBFC70B910
:101368002E4BA3659C6200221146232001F052FEF9
:10137800232001F087FEABE7FFF71CFDDCE7FFF752
:1013880019FDEDE7214B9A6D42F480429A659A6DFA
:1013980002F480420392039ADA6C42F00802DA649B
:1013A800DB6C03F008030493049B1A2305930223C0
:1013B8000693032308930523099305A9194801F007
:1013C800ADFB1948194B0360012343600023836078
:1013D800C3608022026143618361C361036201F0DB
:1013E800A9FC58B9104BA3659C6200221146242021
:1013F80001F010FE242001F045FE69E7FFF7DAFC52
:10140800F0E700BF00300140003800400010024003
:1014180000100048C0000020300002407800002082
:101428001C000240000C0048080100204400024053
:1014380010B5AAB00446002125912691279128913C
:101448002991882203A8FEF703FF2268174B9A42C6
:1014580001D02AB010BD0223039303A801F034F988
:1014680008BB134B9A6D42F400329A659A6D02F4E8
:1014780000320192019ADA6C42F00802DA64DB6CFD
:1014880003F008030293029B60232593022326930B
:1014980001232793032328930723299325A9054884
:1014A80001F03CFBD5E7FFF785FCDAE70044004094
:1014B80000100240000C004803689A6912F0020FFD
:1014C80001D000229A6203689A6912F0010F03D1D1
:1014D8009A6942F001029A61704710B4019CC1F305
:1014E800090141EA02411943214321F00041026800
:1014F8005368640D04F4806444F07F7444F45834F1
:1015080044F47F7444F0030423EA04042143516043
:101518005DF8044B70472DE9F041044603689F6964
:1015280017F010074CD00E4690461022DA610025BD
:101538002368986910F0200F3BD1002D39D1B6F1FE
:10154800FF3FF5D000F0BEFAA0EB0800B04201D88A
:10155800002EEDD121684B6803F4804394F84220B3
:10156800D2B2886910F4004F02D00BB9202A18D1E2
:1015780023689B6913F0200FDAD100F0A3FAA0EBDF
:1015880008001928F4D9636C43F02003636420230E
:1015980084F84130002384F8423084F84030012533
:1015A800E6E74B6843F480434B6000F08BFA8046D3
:1015B800DEE7002D40D12022DA610427012500E072
:1015C80000252268936913F4807F05D047F001074E
:1015D8004FF48071D161012513F4806F06D047F074
:1015E800080722684FF48061D161012513F4007F58
:1015F80024D047F0020723684FF40072DA6101250E
:101608002046FFF759FF2268536823F0FF7323F43D
:101618008B3323F4FF7323F001035360636C1F4380
:101628006764202384F84130002384F8423084F82A
:1016380040302846BDE8F0810427C2E7002DF8D0E5
:10164800DEE770B504460D46164623689B6913F01D
:10165800020F1DD1324629462046FFF75CFFC8B964
:10166800B5F1FF3FF1D000F02DFA801BA84201D858
:10167800002DEAD1636C43F020036364202384F8CF
:101688004130002384F8423084F84030012000E0E3
:10169800002070BD0120FCE72DE9F0410646884690
:1016A80017461D463468A46938EA04030CBF4FF096
:1016B800010C4FF0000CBC4518D1B5F1FF3FF1D03B
:1016C80000F000FA069BC01AA84201D8002DE9D103
:1016D800736C43F020037364202386F841300023A1
:1016E80086F8423086F84030012000E00020BDE84E
:1016F800F08170B505460C4616462B689B6913F0B9
:10170800200F1AD1324621462846FFF704FFB0B908
:1017180000F0D8F9801BA04201D8002CEDD16B6CE9
:1017280043F020036B64202385F84130002385F8BB
:10173800423085F84030012070BD0020FCE70120D0
:10174800FAE7002859D010B5044690F84130002B2C
:1017580043D0242384F841302268136823F001031E
:1017680013606368226823F07063136122689368CA
:1017780023F400439360E368012B33D0A368226805
:1017880043F404439360E368022B31D02268536822
:1017980043F0007343F4004353602268D36823F492
:1017A8000043D360236962691343A169226843EA4D
:1017B8000123D360E369216A22680B43136022681E
:1017C800136843F00103136000206064202384F849
:1017D8004130206384F8420010BD80F84030FFF7A4
:1017E80023FDB6E7A368226843F400439360CAE781
:1017F80023684FF400625A60C8E701207047000070
:101808002DE9F04782B00F460A9E90F84110C9B200
:10181800202940F0A38004469046994690F840302D
:10182800012B00F09F804FF0010A80F840A000F0E3
:1018380049F905460090192352464FF400412046C5
:10184800FFF72AFF002840F08F80212384F84130D9
:10185800102384F8423000236364C4F82480A4F879
:101868002A906363638D9BB2FF2B0AD9FF222285DE
:10187800414B00934FF0807339462046FFF72DFE09
:1018880018E0628D92B222853B4B00934FF00073B3
:10189800D2B239462046FFF720FE0BE0628D92B2A5
:1018A8002285002300934FF00073D2B239462046B8
:1018B800FFF713FE638D9BB2002B33D02A463146C7
:1018C8002046FFF7BEFE002850D1626A23681278CE
:1018D8009A62636A01336362638D9BB2013B9BB278
:1018E8006385238D013B9BB22385628D92B2002ACA
:1018F800E0D0002BDED1009533460022802120461F
:10190800FFF7CAFEA0BB638D9BB2FF2BC6D9FF228F
:101918002285002300934FF0807339462046FFF755
:10192800DCFDC7E72A4631462046FFF7E2FE08BB42
:1019380023682022DA6121684B6823F0FF7323F4BF
:101948008B3323F4FF7323F001034B6084F84120A9
:10195800002384F8423084F8403000E0022002B0CE
:10196800BDE8F0870220FAE70120F8E70120F6E752
:101978000120F4E70120F2E70020008090F84130D0
:10198800DBB2202B24D190F84030012B22D0012348
:1019980080F84030242380F841300268136823F02F
:1019A800010313600268136823F48053136002680C
:1019B8001368194311600268136843F00103136048
:1019C800202380F84130002380F8403018467047C3
:1019D800022070470220704790F84130DBB2202B7C
:1019E80022D190F84030012B20D0012380F84030DC
:1019F800242380F841300268136823F00103136040
:101A08000268136823F4706343EA012111600268D5
:101A1800136843F001031360202380F8413000234A
:101A280080F84030184670470220704702207047FF
:101A3800104B1B780BB90120704710B504464FF4C2
:101A48007A70B0FBF3F30C4A1068B0FBF3F001F0C6
:101A580027FB68B90F2C01D901200AE00022214692
:101A68004FF0FF3001F0D6FA044B1C60002000E074
:101A7800012010BD00000020080000200400002004
:101A880010B5094A136843F480731360032001F00A
:101A9800AFFA0020FFF7CCFF10B10124204610BD9B
:101AA8000446FFF7A9FBF9E700200240034B1B7827
:101AB800034A11680B441360704700BF0000002000
:101AC800F0020020014B1868704700BFF0020020A8
:101AD80030B583B00446204B9B6D13F0805F0BD06C
:101AE80001F036FAB0F5007F17D0802C1FD82DD022
:101AF800702C2DD000211BE0174DAB6D43F08053A7
:101B0800AB65AB6D03F080530193019B01F020FAA4
:101B1800AB6D23F08053AB65E4E7802C03D9A02C90
:101B280003D9022104E0002102E0012100E00321A1
:101B38000A4A136823F007030B431360136803F082
:101B480007038B4206D1002003B030BD0221EFE726
:101B58000121EDE70120F7E70010024000200240D4
:101B6800284A9368D26802F0030213F00C030AD0E3
:101B78000C2B06D0042B1FD0082B20D000200246A7
:101B880010E0012AF6D11F4A126812F0080F0CD192
:101B98001C4AD2F89420C2F303221B4951F8222090
:101BA80043B100200C2B0DD07047164A1268C2F3BF
:101BB8000312F2E71046F5E714480022F2E714484A
:101BC8000022EFE70F4BDB6803F00303022B16D06C
:101BD800032B00D10E4A0B49C868C0F30210431CFE
:101BE800C868C0F3062002FB00F0B0FBF3F0CB6836
:101BF800C3F3416301335B00B0FBF3F0D4E7034A5E
:101C0800E9E700BF00100240203E00080024F4006D
:101C180000127A00002800F0F182F0B583B0044683
:101C2800964B9D6805F00C05DE6806F00306036810
:101C380013F0100F5AD0E5B10C2D18D0A369002B62
:101C480000F0BB808D4A136843F001031360FFF76F
:101C580039FF0746894B1B6813F0020F40F09A8042
:101C6800FFF730FFC01B0228F4D90320D1E2012E70
:101C7800E4D1824B1B6813F0020F03D0A369002B39
:101C880000F0BE82206A7D4B1B6813F0080F5BD002
:101C98007A4B1B6803F0F00398425CD8774B1A68BC
:101CA80042F008021A601A6822F0F002216A0A4318
:101CB8001A605A6822F47F42E16942EA01225A60B6
:101CC800002D60D0FFF74CFF6C4B9B68C3F30313E8
:101CD8006B4AD35C03F01F03D8406A4B18606A4B09
:101CE8001868FFF7A5FE002840F09382236813F0D8
:101CF800010F00F08180082D75D00C2D71D063681C
:101D0800B3F5803F00F09780B3F5A02F00F09980DD
:101D18005A4B1A6822F480321A601A6822F4802218
:101D28001A606368002B00F09980FFF7CBFE074626
:101D3800524B1B6813F4003F5ED1FFF7C3FEC01B74
:101D48006428F5D9032064E24C4BD3F894301B097E
:101D580003F0F003A0E7FFF7BBFE002840F0528233
:101D6800464B1A6842F008021A601A6822F0F0021C
:101D7800216A0A431A605A6822F47F42E16942EAFA
:101D880001225A609EE7206AFFF7A2FE002899D038
:101D980001203EE2394B1A6842F008021A601A68BC
:101DA80022F0F002216A0A431A605A6822F47F423C
:101DB800E16942EA01225A6098E7304A136823F041
:101DC80001031360FFF77EFE07462C4B1B6813F0D8
:101DD800020F8BD0FFF776FEC01B0228F5D903202F
:101DE80017E2032E8BD1254B1B6813F4003F03D059
:101DF8006368002B00F00882236813F0020F58D0A4
:101E0800042D45D00C2D41D0E368002B77D01B4A18
:101E1800136843F480731360FFF754FE0646174BAC
:101E28001B6813F4806F61D1FFF74CFE801B0228FA
:101E3800F5D90320EDE1114A136843F480331360A8
:101E48006FE703F18043A3F53C331A6842F480221C
:101E58001A601A6842F480321A6062E7FFF732FEAD
:101E68000746064B1B6813F4003FC5D0FFF72AFE50
:101E7800C01B6428F5D90320CBE100BF0010024045
:101E8800083E00080800002004000020022EBBD1F4
:101E9800A34B1B6813F4806F03D0E368002B00F09A
:101EA800B5819F4A536823F0F853216943EA0163D7
:101EB8005360236813F0080F4CD063699BB3984AAA
:101EC800D2F8943043F00103C2F89430FFF7FAFDDA
:101ED8000646934BD3F8943013F0020F3AD1FFF72C
:101EE800F1FD801B0228F4D9032092E18C4A536843
:101EF80023F0F853216943EA01635360D9E7884A1C
:101F0800136823F480731360FFF7DCFD0646844BE7
:101F18001B6813F4806FCCD0FFF7D4FD801B022818
:101F2800F5D9032075E17E4AD2F8943023F00103F5
:101F3800C2F89430FFF7C6FD0646794BD3F89430C3
:101F480013F0020F06D0FFF7BDFD801B0228F4D95D
:101F580003205EE1236813F0040F7AD0704B9B6D69
:101F680013F0805F36D16E4B9A6D42F080529A65BD
:101F78009B6D03F080530193019B0126694B1B68FD
:101F880013F4807F28D0A368012B39D0052B3FD0CC
:101F9800634BD3F8902022F00102C3F89020D3F8C5
:101FA800902022F00402C3F89020A368002B3DD0B3
:101FB800FFF788FD07465A4BD3F8903013F0020F0D
:101FC80046D1FFF77FFDC01B41F288339842F2D912
:101FD80003201EE10026D1E7524A136843F48073B8
:101FE8001360FFF76FFD07464E4B1B6813F4807FA5
:101FF800C9D1FFF767FDC01B0228F5D9032008E106
:10200800474AD2F8903043F00103C2F89030CCE749
:10201800434BD3F8902042F00402C3F89020D3F841
:10202800902042F00102C3F89020BEE7FFF74AFD76
:1020380007463B4BD3F8903013F0020F08D0FFF758
:1020480041FDC01B41F288339842F2D90320E0E0F9
:10205800EEB9A36A002B00F0DB80022B1DD00C2DFB
:1020680000F0DD802E4A136823F080731360FFF7B9
:1020780029FD04462A4B1B6813F0007F00F0B78047
:10208800FFF720FD001B0228F4D90320C1E0244AF1
:10209800936D23F080539365DBE7214BDB6803F0F6
:1020A8000301E26A91420FD00C2D00F0B4801C4B62
:1020B8001B6813F0806F40F0B080194B1B6813F059
:1020C800805F31D00120A4E003F07002216B013958
:1020D800B2EB011FE8D103F4FE42616BB2EB012FB2
:1020E800E2D103F40031A26B073A18BF01229142F2
:1020F800DAD103F4C001E26B5208013AB1EB425F56
:10210800D2D103F0C063226C5208013AB3EB426F9C
:10211800CAD1034B1B6813F0007F4ED0002078E033
:1021280000100240007000403E4A136823F080739C
:102138001360FFF7C7FC05463A4B1B6813F0007F96
:1021480006D0FFF7BFFC401B0228F5D9032060E04A
:10215800344AD36834491940E36A206B013843EAAA
:102168000013606B43EA0023E06B4008013843EA40
:102178004053206C4008013843EA4063A06B0009D3
:1021880043EA40430B43D360136843F08073136002
:10219800D36843F08073D360FFF794FC0446214B67
:1021A8001B6813F0007F06D1FFF78CFC001B022888
:1021B800F5D903202DE000202BE01A4B1A6842F0D5
:1021C80080721A60DA6842F08072DA60FFF77AFC8F
:1021D8000446144B1B6813F0007F06D1FFF772FC0E
:1021E800031B022BF5D9032013E0002011E00D4A50
:1021F800D1680E4B0B40D36000200AE001207047E5
:10220800012006E0012004E0012002E0012000E0B6
:10221800002003B0F0BD0120FBE70120F9E7012011
:10222800F7E700BF001002408C809DF9FCFFEEFE2E
:10223800002800F0AF8070B50D460446594B1B6866
:1022480003F007038B420BD2564A136823F00703A7
:102258000B431360136803F007038B4240F09C8024
:10226800236813F0020F0CD0A2684F4B9B6803F051
:10227800F0039A4205D94C498B6823F0F0031A43BE
:102288008A60236813F0010F39D06368032B09D0E3
:10229800022B26D063BB444A126812F0020F06D103
:1022A800012076E0404A126812F0007F76D03E495D
:1022B8008A6822F0030213438B60FFF703FC06468B
:1022C800394B9B6803F00C036268B3EB820F16D09E
:1022D800FFF7F8FB801B41F288339842F0D90320BE
:1022E80057E0314A126812F4003FE0D1012050E073
:1022F8002D4A126812F4806FD9D1012049E0236871
:1023080013F0020F0CD0A268274B9B6803F0F00370
:102318009A4205D224498B6823F0F0031A438A6055
:10232800204B1B6803F00703AB420AD91D4A136808
:1023380023F007032B431360136803F00703AB4232
:102348002ED1236813F0040F06D0174A936823F49C
:10235800E063E1680B439360236813F0080F07D02C
:10236800114A936823F46053216943EAC1039360D7
:10237800FFF7F6FB0C4B9B68C3F303130B4AD35CC4
:1023880003F01F03D8400A4B18600A4B1868FFF780
:102398004FFB70BD012070470120FAE70120F8E7E4
:1023A8000120F6E70020024000100240083E000825
:1023B8000800002004000020014B1868704700BF87
:1023C8000800002008B5FFF7F7FF054B9B68C3F32B
:1023D8000223044AD35C03F01F03D84008BD00BFA2
:1023E80000100240183E000808B5FFF7E5FF054B4E
:1023F8009B68C3F3C223044AD35C03F01F03D8408D
:1024080008BD00BF00100240183E0008F8B5044699
:102418000F46594BDB6813F0030F18D0564BDB6897
:1024280003F003030268934202D001252846F8BD51
:10243800002A00F09E80504BDB68C3F3021301337F
:102448004268934201D00125F0E7002509E00368BE
:10245800022B57D0032B5CD0012B42D00125002D35
:10246800E4D1454A136823F080631360FFF72AFB21
:102478000646414B1B6813F0006F05D0FFF722FB9F
:10248800831B022BF5D90325002DCFD1002F4ED168
:1024980039490B6923F41F3323F44073A068E268B9
:1024A8001209520442EA002213430B61324A1368AC
:1024B80043F080631360FFF705FB06462E4B1B684D
:1024C80013F0006F05D1FFF7FDFA831B022BF5D936
:1024D8000325002DAAD1284A1369A1690B4313616A
:1024E800A4E7254A126812F0020F1ED02248C268DB
:1024F80022F073026168013943EA01131343C36090
:102508000025ACE71C4A126812F4806FEED1012551
:10251800A5E7194A126812F4003FE7D1164A126873
:1025280012F4802FE2D1012599E7012597E7012FC1
:102538000FD01148026922F0C06222F4FE42A1685D
:1025480063695B08013B5B0643EA012313430361AC
:10255800ACE70948026922F4C00222F4FE42A168ED
:1025680023695B08013B5B0543EA012313430361CD
:102578009CE701255AE700BF00100240F8B5044661
:102588000F46504BDB6813F0030F18D04D4BDB6838
:1025980003F003030268934202D001252846F8BDE0
:1025A800002A00F08C80474BDB68C3F30213013329
:1025B8004268934201D00125F0E7002509E003684D
:1025C800022B57D0032B5CD0012B42D00125002DC4
:1025D800E4D13C4A136823F080531360FFF772FA82
:1025E8000646384B1B6813F0005F05D0FFF76AFA00
:1025F800831B022BF5D90325002DCFD1002F4ED1F7
:1026080030494B6923F41F3323F44073A068E26810
:102618001209520442EA002213434B61294A136803
:1026280043F080531360FFF74DFA0646254B1B68AD
:1026380013F0005F05D1FFF745FA831B022BF5D98C
:102648000325002DAAD11F4A536961690B435361C1
:10265800A4E71C4A126812F0020F1ED01948C2687B
:1026680022F073026168013943EA01131343C3601E
:102678000025ACE7134A126812F4806FEED10125E9
:10268800A5E7104A126812F4003FE7D10D4A126814
:1026980012F4802FE2D1012599E7012597E709482F
:1026A800426922F0C06222F4FE42A16823695B08F5
:1026B800013B5B0643EA012313434361AEE701256F
:1026C8006CE700BF001002402DE9F04182B00446DB
:1026D800036813F4006F33D0436EB3F5000F1FD0B7
:1026E8000CD823B3B3F5800F05D100212030FFF7B4
:1026F80045FF064620E001273E4623E0B3F5400F9C
:102708000BD10026604AD2F8883023F44003616E6A
:102718000B43C2F88830002714E001273E4611E039
:10272800594AD36843F48033D3600026EAE700218E
:102738000430FFF76BFE0646002EE3D0374601E073
:1027480000273E46236813F4805F30D0A36EB3F1B0
:10275800007F1FD00DD81BB3B3F1807F06D10021B5
:1027680004F12000FFF70AFF064605E001273E4670
:102778001DE0B3F1407F0AD1C6B9434AD2F8883088
:1027880023F04073A16E0B43C2F888300FE0012795
:102798003E460CE03C4AD36843F48033D360EBE711
:1027A8000021201DFFF732FE0646E5E7374623687D
:1027B80013F4003F71D0344B9B6D13F0805F4ED102
:1027C800314B9A6D42F080529A659B6D03F08053AD
:1027D8000193019B4FF001082C4A136843F480735E
:1027E8001360FFF76FF90546284B1B6813F4807FC9
:1027F80005D1FFF767F9401B0228F5D90326002EFB
:1028080046D1214BD3F8903013F4407316D0D4F846
:1028180084209A4212D01C4AD2F8903023F4407394
:10282800D2F8901041F48031C2F89010D2F890108C
:1028380021F48031C2F89010C2F8903013F0010FE3
:1028480010D1002E40F027810F4AD2F8903023F49F
:102858004073D4F884100B43C2F8903019E04FF05D
:102868000008B9E7FFF72EF90546074BD3F8903073
:1028780013F0020FE5D1FFF725F9401B41F2883329
:102888009842F2D90326DCE70010024000700040AD
:102898003746B8F1000F40F00081236813F0010FAC
:1028A80008D09D4AD2F8883023F00303A16B0B436C
:1028B800C2F88830236813F0020F08D0964AD2F87D
:1028C800883023F00C03E16B0B43C2F8883023688F
:1028D80013F0040F08D0904AD2F8883023F0300360
:1028E800216C0B43C2F88830236813F0080F08D016
:1028F800894AD2F8883023F0C003616C0B43C2F8D0
:102908008830236813F0100F08D0834AD2F8883033
:1029180023F44073A16C0B43C2F88830236813F08A
:10292800200F08D07C4AD2F8883023F44063E16C49
:102938000B43C2F88830236813F4007F08D0764A26
:10294800D2F8883023F44023E16D0B43C2F8883075
:10295800236813F4806F08D06F4AD2F8883023F4C4
:102968004013216E0B43C2F88830236813F0400FE0
:1029780008D0694AD2F8883023F44053216D0B43BC
:10298800C2F88830236813F0800F08D0624AD2F862
:10299800883023F44043616D0B43C2F888302368C4
:1029A80013F4807F08D05C4AD2F8883023F440338F
:1029B800A16D0B43C2F88830236813F4005F0FD071
:1029C800554AD2F8883023F04063E16E0B43C2F8D1
:1029D8008830E36EB3F1006F65D0B3F1806F67D0D4
:1029E800236813F4002F0FD04B4AD2F8883023F015
:1029F8004063216F0B43C2F88830236FB3F1006F37
:102A08005ED0B3F1806F60D0236813F4802F0FD0AD
:102A1800414AD2F8883023F04063616F0B43C2F813
:102A28008830636FB3F1006F57D0B3F1806F59D01E
:102A3800236813F4804F0FD0374AD2F8883023F038
:102A48004053A16F0B43C2F88830A36FB3F1805F86
:102A580050D0B3F1005F55D0236813F4004F08D06D
:102A68002D4AD2F8883023F08043E16F0B43C2F837
:102A78008830236813F4803F09D0274AD2F8883079
:102A880023F00043D4F880100B43C2F8883038464E
:102A980002B0BDE8F0813746FBE61F4A936D23F08C
:102AA80080539365F9E6D36843F48013D36097E7BE
:102AB8000121201DFFF7AAFC002891D007468FE7C7
:102AC800D36843F48013D3609EE70121201DFFF7EC
:102AD8009DFC002898D0074696E7D36843F48013F6
:102AE800D360A5E70121201DFFF790FC00289FD0A7
:102AF80007469DE70221201DFFF788FC0028ABD080
:102B08000746A9E7022104F12000FFF737FD002856
:102B1800A2D00746A0E700BF00100240F0B583B07E
:102B280000236BE085685E000324B44025EA0405B1
:102B3800CC68B4402C438460456825EA0C054C6891
:102B4800C4F300149C402C43446069E0C56A25EA3C
:102B58000C0CC4F3C0049C4044EA0C04C46265E055
:102B6800DD08083550F8256003F007044FEA840CA7
:102B78000F2404FA0CF426EA040E0C6904FA0CF487
:102B880044EA0E0440F8254067E0062400E00024EB
:102B980004FA0EF42C430CF1020C5C4D45F82C4061
:102BA8005B4CA568D44325EA02064F6817F4801FDA
:102BB80001D042EA0506564DAE60ED6804EA050606
:102BC8004F6817F4001F01D042EA0506504DEE6029
:102BD8006D6804EA05064F6817F4003F01D042EA21
:102BE80005064B4D6E602D682C404E6816F4803FEC
:102BF80001D042EA0504464A146001330A6832FAF1
:102C080003F400F081804FF0010C0CFA03FC1CEA7D
:102C18000202F2D04C6804F00304013C012C81D973
:102C28004C6804F0030EBEF1030F8FD04C6804F01B
:102C38000304032C0CD0C4685D004FF0030C0CFA9D
:102C480005FC24EA0C0C8C68AC4044EA0C04C46013
:102C58004C6804F00304022C82D004684FEA430E47
:102C68004FF0030C0CFA0EFC24EA0C0C4C6804F030
:102C7800030404FA0EF444EA0C0404604C6814F4E7
:102C8800403FBAD0234C256E45F001052566246ED9
:102C980004F001040194019C4FEA930C0CF1020525
:102CA8001A4C54F8255003F003044FEA840E0F24FD
:102CB80004FA0EF425EA0405B0F1904F3FF467AF2B
:102CC800154CA04216D004F58064A04214D004F537
:102CD8008064A04212D004F58064A04210D004F5AC
:102CE8008064A0420ED004F58064A0423FF44DAF4A
:102CF80007244DE701244BE7022449E7032447E76B
:102D0800042445E7052443E703B0F0BD0000014073
:102D18000004014000100240000400480369194201
:102D280001D001207047002070470AB181617047C7
:102D380081627047002873D010B403460068394A8E
:102D480090424AD8384A02443849A1FB0212120973
:102D580092005A64364A1A64022283F825200168D0
:102D680021F4FF4121F070019A68DC6822431C6954
:102D780022435C6922439C692243DC6922431C6A22
:102D880022430A4302609A68B2F5804F1BD0196C3F
:102D9800274A91422CD0264AD2F8A814586C00F041
:102DA8001C0C0F2000FA0CF021EA0001C2F8A8144C
:102DB800D2F8A81458685C6C04F01C0C00FA0CF0EB
:102DC8000143C2F8A8140020D863012283F8252003
:102DD80083F824005DF8044B7047164A02441349EF
:102DE800A1FB0212120992005A64134A1A64B3E74B
:102DF800D2F8A810586C00F01C0C0F2000FA0CF048
:102E080021EA0001C2F8A810D2F8A81058685C6C32
:102E180004F01C0C00FA0CF00143C2F8A810D2E729
:102E28000120704707040240F8FFFDBFCDCCCCCC91
:102E380000000240F8FBFDBF0004024008B590F80E
:102E48002530DBB2022B03D00423C363012008BD65
:102E58000268136823F00E0313600268136823F0F6
:102E680001031360436C03F01C03016C012202FA96
:102E780003F34B6080F82520002380F82430836B0F
:102E880013B198470020E2E70020E0E738B5036C6B
:102E9800196804682568436C03F01C0304229A40EF
:102EA8000A4215D015F0040F12D0236813F0200F32
:102EB80003D1236823F004032360436C03F01C024E
:102EC800016C042393404B60036B03B1984738BDF2
:102ED80002229A400A421CD015F0020F19D023682A
:102EE80013F0200F06D1236823F00A03236001237F
:102EF80080F82530436C03F01C02016C02239340D8
:102F08004B60002380F82430C36A002BDFD0984739
:102F1800DDE7082202FA03F30B42D8D015F0080FB8
:102F2800D5D0236823F00E032360436C03F01C0301
:102F3800016C012202FA03F34B60C26380F825207A
:102F4800002380F82430436B002BC0D09847BEE79D
:102F5800024B186800F4C060704700BF0070004062
:102F6800B0F5007F0FD01F4B1B6803F4C063B3F5A7
:102F7800806F34D01B4A136823F4C06343F4806322
:102F8800136000207047174B1B6803F4C063B3F548
:102F9800007F20D0134A136823F4C06343F40073FE
:102FA8001360114B1B68322202FB03F30F4AA2FB8A
:102FB80003239B0C013300E0013B0A4A526912F4D7
:102FC800806F01D0002BF7D1064B5B6913F4806F3B
:102FD80003D100207047002070470320704700206D
:102FE800704700BF007000400800002083DE1B43CC
:102FF800074AD36823F4E0631B041B0C000200F4A7
:10300800E060034343F0BF6343F40033D360704789
:1030180000ED00E000B5194BDB68C3F30223C3F1F0
:10302800070CBCF1040F28BF4FF0040C03F1040E89
:10303800BEF1060F18D9033B4FF0FF3E0EFA0CFC09
:1030480021EA0C0199400EFA03F322EA030319431B
:1030580000280BDB0901C9B200F1604000F56140AE
:1030680080F800135DF804FB0023E5E700F00F008B
:103078000901C9B2024B1954F4E700BF00ED00E0A2
:1030880014ED00E0002807DB00F01F0240090123CF
:103098009340024A42F82030704700BF00E100E048
:1030A8000138B0F1807F0BD24FF0E0235861054A18
:1030B800F02182F823100020986107221A617047D6
:1030C8000120704700ED00E02DE9F04782B0054689
:1030D800884617461E46FEF7F5FC0A9B1B1A03EBAB
:1030E8000609FEF7EFFC82462B4B1B68C3F3CB3374
:1030F80009FB03F301932B689C6838EA04030CBFAF
:103108004FF0010C4FF0000CBC4540D0B6F1FF3F2A
:10311800F1D0FEF7D7FCA0EB0A0048450AD2B9F176
:10312800000F07D0019A02B14A46019B013B019367
:103138009146E0E72A68536823F0E00353606B6820
:10314800B3F5827F0BD0AB6AB3F5005F14D00123CF
:1031580085F85D30002385F85C30032018E0AB6803
:10316800B3F5004F02D0B3F5806FECD12A6813682D
:1031780023F040031360E6E72A68136823F400533A
:1031880013602A68136843F400531360DFE70020D4
:1031980002B0BDE8F08700BF080000202DE9F04725
:1031A80082B006460C4615461F4600238DF80330AC
:1031B800FEF788FC0A9B1B1A03EB0708FEF782FC44
:1031C8008146D6F800A0314B1B6803EB8303C3EBA1
:1031D800C3031B0D08FB03F3019302E0B7F1FF3FA4
:1031E80012D133689B6803EA040CAC454AD0B4F5A5
:1031F800C06FF3D1002DF1D19AF80C30DBB28DF805
:1032080003309DF80330E9E7FEF75CFCA0EB09000A
:1032180040450AD2B8F1000F07D0019A02B14246E0
:10322800019B013B01939046DBE73268536823F02A
:10323800E00353607368B3F5827F0BD0B36AB3F5CC
:10324800005F14D0012386F85D30002386F85C30D7
:10325800032018E0B368B3F5004F02D0B3F5806FD0
:10326800ECD13268136823F040031360E6E7326854
:10327800136823F4005313603268136843F400534F
:103288001360DFE7002002B0BDE8F08708000020E7
:1032980070B582B004460D46164600920B460022D1
:1032A8004FF4C051FFF77AFFB0B900962B460022C1
:1032B80080212046FFF708FFA8B900962B46002278
:1032C8004FF4C0612046FFF769FF50B1236E43F009
:1032D80020032366032004E0236E43F020032366C3
:1032E800032002B070BD236E43F020032366032041
:1032F800F7E700286AD010B50446436A33B9436833
:10330800B3F5827F05D00023C36102E00023036187
:1033180043610023A36294F85D30002B4DD0022353
:1033280084F85D302268136823F040031360E36873
:10333800B3F5E06F47D90022B3F5706F04D0B3F549
:10334800E06F01D00023A362636803F48273A1686D
:1033580001F404410B43216901F002010B43616947
:1033680001F001010B43A16901F400710B43E1690C
:1033780001F038010B43216A01F080010B43A16A77
:1033880001F4005120680B430360638B03F00403CE
:10339800616A01F010010B43616B01F008010B43F6
:1033A800E16801F470610B43216813434B6000200E
:1033B8002066012384F85D3010BD84F85C30204617
:1033C800FDF776FFABE74FF48052B5E70120704771
:1033D8002DE9F8431F46089D90F85C30012B00F05A
:1033E8006481044688469146012380F85C30FEF7E4
:1033F80069FB064694F85D30DBB26268012B0AD09F
:10340800B2F5827F40F03881A268002A40F03D8101
:10341800042B40F03C81B8F1000F00F03A81B9F17B
:10342800000F00F03881002F00F0378194F85D30EC
:10343800DBB2042B02D0052384F85D300023236619
:10344800C4F84090A4F84670A4F84470C4F83880D2
:10345800E787A787E3642365E368B3F5E06F01D8DE
:10346800012F23D92268536823F4805353602368BB
:103478001A6812F0400F03D11A6842F040021A602D
:10348800E368B3F5E06F58D963680BB1012F0BD12E
:10349800A26B23681288DA60A36B0233A363E38FFD
:1034A8009BB2013B9BB2E387012731E02268536856
:1034B80043F480535360DAE7A26B1288DA60A36B97
:1034C8000233A363E38F9BB2013B9BB2E3870027E0
:1034D80023689A6812F0010F11D0B4F8462092B20E
:1034E8006AB1DA68236C1A80236C02332364B4F857
:1034F80046309BB2013B9BB2A4F846300127FEF749
:10350800E1FA831BAB4203D3B5F1FF3F40F0C7801C
:10351800E38F9BB22BB9B4F846309BB2002B00F076
:10352800A18023689A6812F0020FD1D0E28F92B27C
:10353800002ACDD0002FCBD0BEE763680BB1012F96
:103548000FD1E38F9BB2012B0DD9A26B2368128890
:10355800DA60A36B0233A363E38F9BB2023B9BB297
:10356800E387012749E0A26B236812781A73A36BDB
:103578000133A363E38F9BB2013B9BB2E387F0E780
:10358800E28F92B2012A0CD9A26B1288DA60A36B7F
:103598000233A363E38F9BB2023B9BB2E38700270E
:1035A8003DE0A26B12781A73A36B0133A363E38F18
:1035B8009BB2013B9BB2E387002730E02268536847
:1035C80043F48053536001270DE0226C1B7B13707A
:1035D800236C01332364B4F846309BB2013B9BB2A1
:1035E800A4F846300127FEF76DFA801BA84202D3E3
:1035F800B5F1FF3F55D1002D55D0E38F9BB223B9CC
:10360800B4F846309BB2002B2CD023689A6812F08D
:10361800020F04D0E28F92B20AB1002FB0D1236812
:103628009A6812F0010FDED0B4F8462092B2002A50
:10363800D9D0B4F8462092B2012AC6D9DA68236CE8
:103648001A80236C02332364B4F846309BB2023BE1
:103658009BB2A4F84630B4F846309BB2012BADD9E2
:103668000127C0E7324629462046FFF711FE20B160
:1036780020232366012000E00220012384F85D3026
:10368800002384F85C30BDE8F8830220F5E70220C7
:10369800F3E70120F1E70120EFE70120EDE7032040
:1036A800EBE70320E9E70320E7E70220EBE77047B1
:1036B80030B585B00446026851689368C3F380103A
:1036C80013F0400F05D113F0010F02D011F0400F95
:1036D80069D113F0020F02D011F0800F67D1C3F344
:1036E800401513F0200F03D110B913F4807F61D077
:1036F80011F0200F5ED078B194F85D00C0B20328B5
:103708005AD0206E40F00400206600200090D06857
:10371800009090680090009865B1206E40F001001C
:1037280020660020029090680290106820F0400007
:103738001060029A13F4807F09D0236E43F00803C7
:1037480023660023039323689B680393039B236EDC
:10375800002B2FD02268536823F0E0035360012325
:1037680084F85D3011F0030F2ED02268536823F0DF
:1037780003035360A36D4BB1154A9A63A06DFFF71D
:103788005DFB18B1236E43F040032366636D8BB174
:103798000F4A9A63606DFFF751FB58B1236E43F0EF
:1037A8004003236606E0E36C2046984702E0236D59
:1037B8002046984705B030BD00230193D368019394
:1037C80093680193019BF5E72046FFF770FFF1E747
:1037D800DD37000808B5806A0023A0F84630C387A3
:1037E800FFF765FF08BD0000034AD2F8883043F4AC
:1037F8007003C2F88830704700ED00E010B5044649
:10380800016883680269134342691343C269134319
:1038180008688E4A024013430B602268536823F4F9
:103828004053E1680B435360A1692268884B9A4270
:1038380001D0236A1943936823F430630B439360E0
:103848002368844A934210D0834A934221D0834A02
:10385800934237D0824A93425CD0824A93426BD0DB
:103868007B4A93427DD010223AE002F55842D2F8C2
:10387800882002F00302032A09D8DFE802F00204D4
:10388800870601222CE004222AE0082228E01022E0
:1038980026E002F5E632D2F8882002F00C020C2A63
:1038A8000ED8DFE802F0070D0D0D090D0D0D750D91
:1038B8000D0D0B00002213E0042211E008220FE096
:1038C80010220DE002F5E432D2F8882002F030022E
:1038D800202A5FD01AD8002A5ED0102A5ED104228E
:1038E8005B498B4276D0E069B0F5004F00F0A380C9
:1038F800082A00F20E81DFE812F0DD00F300DB0099
:103908000C01F6000C010C010C01F900302A47D11A
:103918000822E5E702F5E232D2F8882002F0C00278
:10392800802A3FD004D8FAB3402A3FD10422D7E7EF
:10393800C02A3DD10822D3E702F5E032D2F8882028
:1039480002F44072B2F5007F34D005D8A2B3B2F5C4
:10395800807F33D10422C3E7B2F5407F30D10822FB
:10396800BEE702F5C832D2F8882002F44062B2F508
:10397800006F27D005D83AB3B2F5806F26D104225C
:10398800AEE7B2F5406F23D10822A9E70222A7E7E4
:103998000222A5E70222A3E70022A1E710229FE75F
:1039A80010229DE702229BE7002299E7102297E761
:1039B800102295E7022293E7002291E710228FE771
:1039C80010228DE702228BE7002289E7102287E781
:1039D800102285E7082A00F28C80DFE802F0088AC6
:1039E8002A8A278A8A8A05004FF4004003E0FEF7F6
:1039F800E9FC00287FD0626802EB420383427CD84E
:103A0800B0EB023F7BD8010E00025308C0184FF0FC
:103A1800000341F10001FCF76DFCA0F54072124B68
:103A28009A426ED82368D860002055E0FEF798F8CF
:103A3800DFE70E48DFE7082A65D8DFE802F0193328
:103A48000564366464641D00084815E0F369FFEFF7
:103A58000080004000380140004400400048004019
:103A6800004C004000500040FFFC0F000024F40010
:103A7800FEF7A8FC002848D06268530803EB400012
:103A8800B0FBF2F0A0F110024FF6EF739A423ED865
:103A980083B223F00F03C0F3420018432368D860B1
:103AA800002019E0FEF7A0FCE4E7FEF759F8E1E78B
:103AB8001B4802E0FEF786FC68B3636800EB53001E
:103AC800B0FBF3F0A0F110024FF6EF739A4224D83E
:103AD800236880B2D860002000236366A36610BD07
:103AE800FEF782FCE8E7FEF73BF8E5E74FF4004015
:103AF800E3E70120F0E70020EEE70120ECE70120F2
:103B0800EAE70120E8E70120E6E70020E4E70120F2
:103B1800E2E70120E0E70020DEE70120DCE700BF64
:103B28000024F400436A13F0010F06D002685368BA
:103B380023F40033816A0B435360436A13F0020F86
:103B480006D00268536823F48033C16A0B4353607C
:103B5800436A13F0040F06D00268536823F48023E5
:103B6800016B0B435360436A13F0080F06D00268D9
:103B7800536823F40043416B0B435360436A13F0CB
:103B8800100F06D00268936823F48053816B0B43AF
:103B98009360436A13F0200F06D00268936823F4F9
:103BA8000053C16B0B439360436A13F0400F0AD074
:103BB8000268536823F48013016C0B435360036C51
:103BC800B3F5801F0BD0436A13F0800F06D002684C
:103BD800536823F40023816C0B43536070470268D9
:103BE800536823F4C003416C0B435360EBE72DE9A2
:103BF800F84305460F4616469946DDF820802C689E
:103C0800E46937EA04030CBF4FF0010C4FF0000CD5
:103C1800B44553D1B8F1FF3FF1D0FDF753FFA0EB06
:103C2800090040452DD8B8F1000F2AD02B681A6832
:103C380012F0040FE3D0DA6912F4006FDFD04FF40A
:103C480000621A622A6852E8003F23F4D07342E8FF
:103C580000310029F6D12A6802F1080353E8003F31
:103C680023F00103083242E800310029F3D1202370
:103C7800AB67EB67C5F88030002385F87430032004
:103C88001DE02A6852E8003F23F4D07342E800316F
:103C98000029F6D12A6802F1080353E8003F23F00F
:103CA8000103083242E800310029F3D12023AB6731
:103CB800EB67002385F87430032000E00020BDE89E
:103CC800F88330B583B004460023C0F88030FDF790
:103CD800F9FE05462268126812F0080F0DD1236814
:103CE8001B6813F0040F16D12023A367E367002095
:103CF800206684F8740003B030BD6FF07E430093F3
:103D0800034600224FF400112046FFF770FF0028F9
:103D1800E5D00320EFE76FF07E4300932B460022A7
:103D28004FF480012046FFF762FF0028DCD0032013
:103D3800E1E768B310B50446836F03B32423A36790
:103D48002268136823F0010313602046FFF756FD2D
:103D5800012813D0636ABBB92268536823F49043DF
:103D680053602268936823F02A03936022681368DB
:103D780043F0010313602046FFF7A3FF10BD80F84E
:103D88007430FDF755FBD9E72046FFF7CBFEE3E794
:103D980001207047DFF834D0FFF726FD0C480D49A5
:103DA8000D4A002302E0D458C4500433C4188C428E
:103DB800F9D30A4A0A4C002301E013600432A242F4
:103DC800FBD3FCF721FAFDF7E7F8FEE700800120B6
:103DD8000000002010000020683E000810000020AD
:103DE800F4020020FEE70000F8B500BFF8BC08BCEC
:103DF8009E467047F8B500BFF8BC08BC9E467047A1
:103E08000000000000000000010203040607080982
:103E18000000000001020304A0860100400D030019
:103E2800801A060000350C0040420F0080841E00F6
:103E380000093D0000127A000024F40000366E01EB
:083E48000048E801006CDC02F7
:083E5000DCC4FF7F010000004B
:083E5800F10100080000000068
:083E6000C90100080000000088
:103E6800010000001000000000093D0000000000F3
:0400000508003D9D15
:00000001FF
